{
	"refund_by_location/contracts/refundByLocation.sol": {
		"RefundContract": {
			"abi": [
				{
					"inputs": [],
					"stateMutability": "nonpayable",
					"type": "constructor"
				},
				{
					"inputs": [
						{
							"internalType": "address",
							"name": "",
							"type": "address"
						}
					],
					"name": "empContractStatus",
					"outputs": [
						{
							"internalType": "int8",
							"name": "latitude",
							"type": "int8"
						},
						{
							"internalType": "int8",
							"name": "longitude",
							"type": "int8"
						},
						{
							"internalType": "int8",
							"name": "maxRadius",
							"type": "int8"
						},
						{
							"internalType": "uint256",
							"name": "payment",
							"type": "uint256"
						},
						{
							"internalType": "uint8",
							"name": "compCount",
							"type": "uint8"
						},
						{
							"internalType": "uint8",
							"name": "reqAmount",
							"type": "uint8"
						}
					],
					"stateMutability": "view",
					"type": "function"
				},
				{
					"inputs": [],
					"name": "employeer",
					"outputs": [
						{
							"internalType": "address",
							"name": "",
							"type": "address"
						}
					],
					"stateMutability": "view",
					"type": "function"
				},
				{
					"inputs": [
						{
							"internalType": "uint256",
							"name": "",
							"type": "uint256"
						}
					],
					"name": "employees",
					"outputs": [
						{
							"internalType": "address",
							"name": "",
							"type": "address"
						}
					],
					"stateMutability": "view",
					"type": "function"
				},
				{
					"inputs": [],
					"name": "getAdmin",
					"outputs": [
						{
							"internalType": "address",
							"name": "",
							"type": "address"
						}
					],
					"stateMutability": "view",
					"type": "function"
				},
				{
					"inputs": [],
					"name": "getEmployees",
					"outputs": [
						{
							"internalType": "address[]",
							"name": "",
							"type": "address[]"
						}
					],
					"stateMutability": "view",
					"type": "function"
				},
				{
					"inputs": [
						{
							"internalType": "address payable",
							"name": "_to",
							"type": "address"
						}
					],
					"name": "payEmployee",
					"outputs": [],
					"stateMutability": "payable",
					"type": "function"
				},
				{
					"inputs": [
						{
							"internalType": "address",
							"name": "_empAddr",
							"type": "address"
						},
						{
							"internalType": "int8",
							"name": "_latitude",
							"type": "int8"
						},
						{
							"internalType": "int8",
							"name": "_longitude",
							"type": "int8"
						},
						{
							"internalType": "int8",
							"name": "_maxRadius",
							"type": "int8"
						},
						{
							"internalType": "uint8",
							"name": "_payAmount",
							"type": "uint8"
						},
						{
							"internalType": "uint8",
							"name": "_reqAmount",
							"type": "uint8"
						}
					],
					"name": "setEmployeeAccount",
					"outputs": [],
					"stateMutability": "nonpayable",
					"type": "function"
				},
				{
					"inputs": [
						{
							"internalType": "int8",
							"name": "_latitude",
							"type": "int8"
						},
						{
							"internalType": "int8",
							"name": "_longitude",
							"type": "int8"
						}
					],
					"name": "updateCompCountStatus",
					"outputs": [],
					"stateMutability": "nonpayable",
					"type": "function"
				}
			],
			"devdoc": {
				"kind": "dev",
				"methods": {},
				"version": 1
			},
			"evm": {
				"assembly": "    /* \"refund_by_location/contracts/refundByLocation.sol\":77:3473  contract RefundContract {... */\n  mstore(0x40, 0x80)\n    /* \"refund_by_location/contracts/refundByLocation.sol\":416:469  constructor() {... */\n  callvalue\n  dup1\n  iszero\n  tag_1\n  jumpi\n  0x00\n  dup1\n  revert\ntag_1:\n  pop\n    /* \"refund_by_location/contracts/refundByLocation.sol\":452:462  msg.sender */\n  caller\n    /* \"refund_by_location/contracts/refundByLocation.sol\":440:449  employeer */\n  0x01\n  0x00\n    /* \"refund_by_location/contracts/refundByLocation.sol\":440:462  employeer = msg.sender */\n  0x0100\n  exp\n  dup2\n  sload\n  dup2\n  0xffffffffffffffffffffffffffffffffffffffff\n  mul\n  not\n  and\n  swap1\n  dup4\n  0xffffffffffffffffffffffffffffffffffffffff\n  and\n  mul\n  or\n  swap1\n  sstore\n  pop\n    /* \"refund_by_location/contracts/refundByLocation.sol\":77:3473  contract RefundContract {... */\n  dataSize(sub_0)\n  dup1\n  dataOffset(sub_0)\n  0x00\n  codecopy\n  0x00\n  return\nstop\n\nsub_0: assembly {\n        /* \"refund_by_location/contracts/refundByLocation.sol\":77:3473  contract RefundContract {... */\n      mstore(0x40, 0x80)\n      jumpi(tag_1, lt(calldatasize, 0x04))\n      shr(0xe0, calldataload(0x00))\n      dup1\n      0x4abefa36\n      gt\n      tag_10\n      jumpi\n      dup1\n      0x4abefa36\n      eq\n      tag_6\n      jumpi\n      dup1\n      0x6e9960c3\n      eq\n      tag_7\n      jumpi\n      dup1\n      0x80def88d\n      eq\n      tag_8\n      jumpi\n      dup1\n      0xaebf11b2\n      eq\n      tag_9\n      jumpi\n      jump(tag_1)\n    tag_10:\n      dup1\n      0x1296428a\n      eq\n      tag_2\n      jumpi\n      dup1\n      0x1f50ad16\n      eq\n      tag_3\n      jumpi\n      dup1\n      0x3c4c59df\n      eq\n      tag_4\n      jumpi\n      dup1\n      0x4739326b\n      eq\n      tag_5\n      jumpi\n    tag_1:\n      0x00\n      dup1\n      revert\n        /* \"refund_by_location/contracts/refundByLocation.sol\":2529:3278  function setEmployeeAccount(... */\n    tag_2:\n      callvalue\n      dup1\n      iszero\n      tag_11\n      jumpi\n      0x00\n      dup1\n      revert\n    tag_11:\n      pop\n      tag_12\n      0x04\n      dup1\n      calldatasize\n      sub\n      dup2\n      add\n      swap1\n      tag_13\n      swap2\n      swap1\n      tag_14\n      jump\t// in\n    tag_13:\n      tag_15\n      jump\t// in\n    tag_12:\n      stop\n        /* \"refund_by_location/contracts/refundByLocation.sol\":2177:2523  function payEmployee(address payable _to) public payable onlyEmployee(_to) {... */\n    tag_3:\n      tag_16\n      0x04\n      dup1\n      calldatasize\n      sub\n      dup2\n      add\n      swap1\n      tag_17\n      swap2\n      swap1\n      tag_18\n      jump\t// in\n    tag_17:\n      tag_19\n      jump\t// in\n    tag_16:\n      stop\n        /* \"refund_by_location/contracts/refundByLocation.sol\":139:163  address public employeer */\n    tag_4:\n      callvalue\n      dup1\n      iszero\n      tag_20\n      jumpi\n      0x00\n      dup1\n      revert\n    tag_20:\n      pop\n      tag_21\n      tag_22\n      jump\t// in\n    tag_21:\n      mload(0x40)\n      tag_23\n      swap2\n      swap1\n      tag_24\n      jump\t// in\n    tag_23:\n      mload(0x40)\n      dup1\n      swap2\n      sub\n      swap1\n      return\n        /* \"refund_by_location/contracts/refundByLocation.sol\":107:133  address[] public employees */\n    tag_5:\n      callvalue\n      dup1\n      iszero\n      tag_25\n      jumpi\n      0x00\n      dup1\n      revert\n    tag_25:\n      pop\n      tag_26\n      0x04\n      dup1\n      calldatasize\n      sub\n      dup2\n      add\n      swap1\n      tag_27\n      swap2\n      swap1\n      tag_28\n      jump\t// in\n    tag_27:\n      tag_29\n      jump\t// in\n    tag_26:\n      mload(0x40)\n      tag_30\n      swap2\n      swap1\n      tag_24\n      jump\t// in\n    tag_30:\n      mload(0x40)\n      dup1\n      swap2\n      sub\n      swap1\n      return\n        /* \"refund_by_location/contracts/refundByLocation.sol\":3371:3465  function getEmployees() public view returns(address[] memory){... */\n    tag_6:\n      callvalue\n      dup1\n      iszero\n      tag_31\n      jumpi\n      0x00\n      dup1\n      revert\n    tag_31:\n      pop\n      tag_32\n      tag_33\n      jump\t// in\n    tag_32:\n      mload(0x40)\n      tag_34\n      swap2\n      swap1\n      tag_35\n      jump\t// in\n    tag_34:\n      mload(0x40)\n      dup1\n      swap2\n      sub\n      swap1\n      return\n        /* \"refund_by_location/contracts/refundByLocation.sol\":3284:3366  function getAdmin() public view returns(address) {... */\n    tag_7:\n      callvalue\n      dup1\n      iszero\n      tag_36\n      jumpi\n      0x00\n      dup1\n      revert\n    tag_36:\n      pop\n      tag_37\n      tag_38\n      jump\t// in\n    tag_37:\n      mload(0x40)\n      tag_39\n      swap2\n      swap1\n      tag_24\n      jump\t// in\n    tag_39:\n      mload(0x40)\n      dup1\n      swap2\n      sub\n      swap1\n      return\n        /* \"refund_by_location/contracts/refundByLocation.sol\":350:410  mapping (address => ContractStatus) public empContractStatus */\n    tag_8:\n      callvalue\n      dup1\n      iszero\n      tag_40\n      jumpi\n      0x00\n      dup1\n      revert\n    tag_40:\n      pop\n      tag_41\n      0x04\n      dup1\n      calldatasize\n      sub\n      dup2\n      add\n      swap1\n      tag_42\n      swap2\n      swap1\n      tag_43\n      jump\t// in\n    tag_42:\n      tag_44\n      jump\t// in\n    tag_41:\n      mload(0x40)\n      tag_45\n      swap7\n      swap6\n      swap5\n      swap4\n      swap3\n      swap2\n      swap1\n      tag_46\n      jump\t// in\n    tag_45:\n      mload(0x40)\n      dup1\n      swap2\n      sub\n      swap1\n      return\n        /* \"refund_by_location/contracts/refundByLocation.sol\":1842:2171  function updateCompCountStatus(int8 _latitude, int8 _longitude) public {... */\n    tag_9:\n      callvalue\n      dup1\n      iszero\n      tag_47\n      jumpi\n      0x00\n      dup1\n      revert\n    tag_47:\n      pop\n      tag_48\n      0x04\n      dup1\n      calldatasize\n      sub\n      dup2\n      add\n      swap1\n      tag_49\n      swap2\n      swap1\n      tag_50\n      jump\t// in\n    tag_49:\n      tag_51\n      jump\t// in\n    tag_48:\n      stop\n        /* \"refund_by_location/contracts/refundByLocation.sol\":2529:3278  function setEmployeeAccount(... */\n    tag_15:\n        /* \"refund_by_location/contracts/refundByLocation.sol\":536:545  employeer */\n      0x01\n      0x00\n      swap1\n      sload\n      swap1\n      0x0100\n      exp\n      swap1\n      div\n      0xffffffffffffffffffffffffffffffffffffffff\n      and\n        /* \"refund_by_location/contracts/refundByLocation.sol\":522:545  msg.sender == employeer */\n      0xffffffffffffffffffffffffffffffffffffffff\n      and\n        /* \"refund_by_location/contracts/refundByLocation.sol\":522:532  msg.sender */\n      caller\n        /* \"refund_by_location/contracts/refundByLocation.sol\":522:545  msg.sender == employeer */\n      0xffffffffffffffffffffffffffffffffffffffff\n      and\n      eq\n        /* \"refund_by_location/contracts/refundByLocation.sol\":514:592  require(msg.sender == employeer, \"Only employeer has access to this function\") */\n      tag_53\n      jumpi\n      mload(0x40)\n      0x08c379a000000000000000000000000000000000000000000000000000000000\n      dup2\n      mstore\n      0x04\n      add\n      tag_54\n      swap1\n      tag_55\n      jump\t// in\n    tag_54:\n      mload(0x40)\n      dup1\n      swap2\n      sub\n      swap1\n      revert\n    tag_53:\n        /* \"refund_by_location/contracts/refundByLocation.sol\":2830:2839  employees */\n      0x00\n        /* \"refund_by_location/contracts/refundByLocation.sol\":2845:2853  _empAddr */\n      dup7\n        /* \"refund_by_location/contracts/refundByLocation.sol\":2830:2854  employees.push(_empAddr) */\n      swap1\n      dup1\n      0x01\n      dup2\n      sload\n      add\n      dup1\n      dup3\n      sstore\n      dup1\n      swap2\n      pop\n      pop\n      0x01\n      swap1\n      sub\n      swap1\n      0x00\n      mstore\n      keccak256(0x00, 0x20)\n      add\n      0x00\n      swap1\n      swap2\n      swap1\n      swap2\n      swap1\n      swap2\n      0x0100\n      exp\n      dup2\n      sload\n      dup2\n      0xffffffffffffffffffffffffffffffffffffffff\n      mul\n      not\n      and\n      swap1\n      dup4\n      0xffffffffffffffffffffffffffffffffffffffff\n      and\n      mul\n      or\n      swap1\n      sstore\n      pop\n        /* \"refund_by_location/contracts/refundByLocation.sol\":2953:2962  _latitude */\n      dup5\n        /* \"refund_by_location/contracts/refundByLocation.sol\":2914:2931  empContractStatus */\n      0x02\n        /* \"refund_by_location/contracts/refundByLocation.sol\":2914:2941  empContractStatus[_empAddr] */\n      0x00\n        /* \"refund_by_location/contracts/refundByLocation.sol\":2932:2940  _empAddr */\n      dup9\n        /* \"refund_by_location/contracts/refundByLocation.sol\":2914:2941  empContractStatus[_empAddr] */\n      0xffffffffffffffffffffffffffffffffffffffff\n      and\n      0xffffffffffffffffffffffffffffffffffffffff\n      and\n      dup2\n      mstore\n      0x20\n      add\n      swap1\n      dup2\n      mstore\n      0x20\n      add\n      0x00\n      keccak256\n        /* \"refund_by_location/contracts/refundByLocation.sol\":2914:2950  empContractStatus[_empAddr].latitude */\n      0x00\n      add\n      0x00\n        /* \"refund_by_location/contracts/refundByLocation.sol\":2914:2962  empContractStatus[_empAddr].latitude = _latitude */\n      0x0100\n      exp\n      dup2\n      sload\n      dup2\n      0xff\n      mul\n      not\n      and\n      swap1\n      dup4\n      0x00\n      signextend\n      0xff\n      and\n      mul\n      or\n      swap1\n      sstore\n      pop\n        /* \"refund_by_location/contracts/refundByLocation.sol\":3016:3026  _longitude */\n      dup4\n        /* \"refund_by_location/contracts/refundByLocation.sol\":2976:2993  empContractStatus */\n      0x02\n        /* \"refund_by_location/contracts/refundByLocation.sol\":2976:3003  empContractStatus[_empAddr] */\n      0x00\n        /* \"refund_by_location/contracts/refundByLocation.sol\":2994:3002  _empAddr */\n      dup9\n        /* \"refund_by_location/contracts/refundByLocation.sol\":2976:3003  empContractStatus[_empAddr] */\n      0xffffffffffffffffffffffffffffffffffffffff\n      and\n      0xffffffffffffffffffffffffffffffffffffffff\n      and\n      dup2\n      mstore\n      0x20\n      add\n      swap1\n      dup2\n      mstore\n      0x20\n      add\n      0x00\n      keccak256\n        /* \"refund_by_location/contracts/refundByLocation.sol\":2976:3013  empContractStatus[_empAddr].longitude */\n      0x00\n      add\n      0x01\n        /* \"refund_by_location/contracts/refundByLocation.sol\":2976:3026  empContractStatus[_empAddr].longitude = _longitude */\n      0x0100\n      exp\n      dup2\n      sload\n      dup2\n      0xff\n      mul\n      not\n      and\n      swap1\n      dup4\n      0x00\n      signextend\n      0xff\n      and\n      mul\n      or\n      swap1\n      sstore\n      pop\n        /* \"refund_by_location/contracts/refundByLocation.sol\":3080:3090  _maxRadius */\n      dup3\n        /* \"refund_by_location/contracts/refundByLocation.sol\":3040:3057  empContractStatus */\n      0x02\n        /* \"refund_by_location/contracts/refundByLocation.sol\":3040:3067  empContractStatus[_empAddr] */\n      0x00\n        /* \"refund_by_location/contracts/refundByLocation.sol\":3058:3066  _empAddr */\n      dup9\n        /* \"refund_by_location/contracts/refundByLocation.sol\":3040:3067  empContractStatus[_empAddr] */\n      0xffffffffffffffffffffffffffffffffffffffff\n      and\n      0xffffffffffffffffffffffffffffffffffffffff\n      and\n      dup2\n      mstore\n      0x20\n      add\n      swap1\n      dup2\n      mstore\n      0x20\n      add\n      0x00\n      keccak256\n        /* \"refund_by_location/contracts/refundByLocation.sol\":3040:3077  empContractStatus[_empAddr].maxRadius */\n      0x00\n      add\n      0x02\n        /* \"refund_by_location/contracts/refundByLocation.sol\":3040:3090  empContractStatus[_empAddr].maxRadius = _maxRadius */\n      0x0100\n      exp\n      dup2\n      sload\n      dup2\n      0xff\n      mul\n      not\n      and\n      swap1\n      dup4\n      0x00\n      signextend\n      0xff\n      and\n      mul\n      or\n      swap1\n      sstore\n      pop\n        /* \"refund_by_location/contracts/refundByLocation.sol\":3142:3152  _payAmount */\n      dup2\n        /* \"refund_by_location/contracts/refundByLocation.sol\":3104:3152  empContractStatus[_empAddr].payment = _payAmount */\n      0xff\n      and\n        /* \"refund_by_location/contracts/refundByLocation.sol\":3104:3121  empContractStatus */\n      0x02\n        /* \"refund_by_location/contracts/refundByLocation.sol\":3104:3131  empContractStatus[_empAddr] */\n      0x00\n        /* \"refund_by_location/contracts/refundByLocation.sol\":3122:3130  _empAddr */\n      dup9\n        /* \"refund_by_location/contracts/refundByLocation.sol\":3104:3131  empContractStatus[_empAddr] */\n      0xffffffffffffffffffffffffffffffffffffffff\n      and\n      0xffffffffffffffffffffffffffffffffffffffff\n      and\n      dup2\n      mstore\n      0x20\n      add\n      swap1\n      dup2\n      mstore\n      0x20\n      add\n      0x00\n      keccak256\n        /* \"refund_by_location/contracts/refundByLocation.sol\":3104:3139  empContractStatus[_empAddr].payment */\n      0x01\n      add\n        /* \"refund_by_location/contracts/refundByLocation.sol\":3104:3152  empContractStatus[_empAddr].payment = _payAmount */\n      dup2\n      swap1\n      sstore\n      pop\n        /* \"refund_by_location/contracts/refundByLocation.sol\":3206:3207  0 */\n      0x00\n        /* \"refund_by_location/contracts/refundByLocation.sol\":3166:3183  empContractStatus */\n      0x02\n        /* \"refund_by_location/contracts/refundByLocation.sol\":3166:3193  empContractStatus[_empAddr] */\n      0x00\n        /* \"refund_by_location/contracts/refundByLocation.sol\":3184:3192  _empAddr */\n      dup9\n        /* \"refund_by_location/contracts/refundByLocation.sol\":3166:3193  empContractStatus[_empAddr] */\n      0xffffffffffffffffffffffffffffffffffffffff\n      and\n      0xffffffffffffffffffffffffffffffffffffffff\n      and\n      dup2\n      mstore\n      0x20\n      add\n      swap1\n      dup2\n      mstore\n      0x20\n      add\n      0x00\n      keccak256\n        /* \"refund_by_location/contracts/refundByLocation.sol\":3166:3203  empContractStatus[_empAddr].compCount */\n      0x02\n      add\n      0x00\n        /* \"refund_by_location/contracts/refundByLocation.sol\":3166:3207  empContractStatus[_empAddr].compCount = 0 */\n      0x0100\n      exp\n      dup2\n      sload\n      dup2\n      0xff\n      mul\n      not\n      and\n      swap1\n      dup4\n      0xff\n      and\n      mul\n      or\n      swap1\n      sstore\n      pop\n        /* \"refund_by_location/contracts/refundByLocation.sol\":3261:3271  _reqAmount */\n      dup1\n        /* \"refund_by_location/contracts/refundByLocation.sol\":3221:3238  empContractStatus */\n      0x02\n        /* \"refund_by_location/contracts/refundByLocation.sol\":3221:3248  empContractStatus[_empAddr] */\n      0x00\n        /* \"refund_by_location/contracts/refundByLocation.sol\":3239:3247  _empAddr */\n      dup9\n        /* \"refund_by_location/contracts/refundByLocation.sol\":3221:3248  empContractStatus[_empAddr] */\n      0xffffffffffffffffffffffffffffffffffffffff\n      and\n      0xffffffffffffffffffffffffffffffffffffffff\n      and\n      dup2\n      mstore\n      0x20\n      add\n      swap1\n      dup2\n      mstore\n      0x20\n      add\n      0x00\n      keccak256\n        /* \"refund_by_location/contracts/refundByLocation.sol\":3221:3258  empContractStatus[_empAddr].reqAmount */\n      0x02\n      add\n      0x01\n        /* \"refund_by_location/contracts/refundByLocation.sol\":3221:3271  empContractStatus[_empAddr].reqAmount = _reqAmount */\n      0x0100\n      exp\n      dup2\n      sload\n      dup2\n      0xff\n      mul\n      not\n      and\n      swap1\n      dup4\n      0xff\n      and\n      mul\n      or\n      swap1\n      sstore\n      pop\n        /* \"refund_by_location/contracts/refundByLocation.sol\":2529:3278  function setEmployeeAccount(... */\n      pop\n      pop\n      pop\n      pop\n      pop\n      pop\n      jump\t// out\n        /* \"refund_by_location/contracts/refundByLocation.sol\":2177:2523  function payEmployee(address payable _to) public payable onlyEmployee(_to) {... */\n    tag_19:\n        /* \"refund_by_location/contracts/refundByLocation.sol\":2247:2250  _to */\n      dup1\n        /* \"refund_by_location/contracts/refundByLocation.sol\":664:675  bool exists */\n      0x00\n        /* \"refund_by_location/contracts/refundByLocation.sol\":711:716  _addr */\n      dup2\n        /* \"refund_by_location/contracts/refundByLocation.sol\":697:716  msg.sender == _addr */\n      0xffffffffffffffffffffffffffffffffffffffff\n      and\n        /* \"refund_by_location/contracts/refundByLocation.sol\":697:707  msg.sender */\n      caller\n        /* \"refund_by_location/contracts/refundByLocation.sol\":697:716  msg.sender == _addr */\n      0xffffffffffffffffffffffffffffffffffffffff\n      and\n      sub\n        /* \"refund_by_location/contracts/refundByLocation.sol\":694:755  if(msg.sender == _addr){... */\n      tag_59\n      jumpi\n        /* \"refund_by_location/contracts/refundByLocation.sol\":740:744  true */\n      0x01\n        /* \"refund_by_location/contracts/refundByLocation.sol\":731:744  exists = true */\n      swap1\n      pop\n        /* \"refund_by_location/contracts/refundByLocation.sol\":694:755  if(msg.sender == _addr){... */\n    tag_59:\n        /* \"refund_by_location/contracts/refundByLocation.sol\":770:779  uint256 i */\n      0x00\n        /* \"refund_by_location/contracts/refundByLocation.sol\":765:932  for (uint256 i = 0; i < employees.length; i++) {... */\n    tag_60:\n        /* \"refund_by_location/contracts/refundByLocation.sol\":789:798  employees */\n      0x00\n        /* \"refund_by_location/contracts/refundByLocation.sol\":789:805  employees.length */\n      dup1\n      sload\n      swap1\n      pop\n        /* \"refund_by_location/contracts/refundByLocation.sol\":785:786  i */\n      dup2\n        /* \"refund_by_location/contracts/refundByLocation.sol\":785:805  i < employees.length */\n      lt\n        /* \"refund_by_location/contracts/refundByLocation.sol\":765:932  for (uint256 i = 0; i < employees.length; i++) {... */\n      iszero\n      tag_61\n      jumpi\n        /* \"refund_by_location/contracts/refundByLocation.sol\":846:851  _addr */\n      dup3\n        /* \"refund_by_location/contracts/refundByLocation.sol\":830:851  employees[i] == _addr */\n      0xffffffffffffffffffffffffffffffffffffffff\n      and\n        /* \"refund_by_location/contracts/refundByLocation.sol\":830:839  employees */\n      0x00\n        /* \"refund_by_location/contracts/refundByLocation.sol\":840:841  i */\n      dup3\n        /* \"refund_by_location/contracts/refundByLocation.sol\":830:842  employees[i] */\n      dup2\n      sload\n      dup2\n      lt\n      tag_63\n      jumpi\n      tag_64\n      tag_65\n      jump\t// in\n    tag_64:\n    tag_63:\n      swap1\n      0x00\n      mstore\n      keccak256(0x00, 0x20)\n      add\n      0x00\n      swap1\n      sload\n      swap1\n      0x0100\n      exp\n      swap1\n      div\n      0xffffffffffffffffffffffffffffffffffffffff\n      and\n        /* \"refund_by_location/contracts/refundByLocation.sol\":830:851  employees[i] == _addr */\n      0xffffffffffffffffffffffffffffffffffffffff\n      and\n      sub\n        /* \"refund_by_location/contracts/refundByLocation.sol\":826:922  if (employees[i] == _addr) {... */\n      tag_67\n      jumpi\n        /* \"refund_by_location/contracts/refundByLocation.sol\":880:884  true */\n      0x01\n        /* \"refund_by_location/contracts/refundByLocation.sol\":871:884  exists = true */\n      swap2\n      pop\n        /* \"refund_by_location/contracts/refundByLocation.sol\":902:907  break */\n      jump(tag_61)\n        /* \"refund_by_location/contracts/refundByLocation.sol\":826:922  if (employees[i] == _addr) {... */\n    tag_67:\n        /* \"refund_by_location/contracts/refundByLocation.sol\":807:810  i++ */\n      dup1\n      dup1\n      tag_68\n      swap1\n      tag_69\n      jump\t// in\n    tag_68:\n      swap2\n      pop\n      pop\n        /* \"refund_by_location/contracts/refundByLocation.sol\":765:932  for (uint256 i = 0; i < employees.length; i++) {... */\n      jump(tag_60)\n    tag_61:\n      pop\n        /* \"refund_by_location/contracts/refundByLocation.sol\":950:956  exists */\n      dup1\n        /* \"refund_by_location/contracts/refundByLocation.sol\":942:1008  require(exists, \"Only an  employee has access to this function_2\") */\n      tag_70\n      jumpi\n      mload(0x40)\n      0x08c379a000000000000000000000000000000000000000000000000000000000\n      dup2\n      mstore\n      0x04\n      add\n      tag_71\n      swap1\n      tag_72\n      jump\t// in\n    tag_71:\n      mload(0x40)\n      dup1\n      swap2\n      sub\n      swap1\n      revert\n    tag_70:\n        /* \"refund_by_location/contracts/refundByLocation.sol\":2305:2322  empContractStatus */\n      0x02\n        /* \"refund_by_location/contracts/refundByLocation.sol\":2305:2327  empContractStatus[_to] */\n      0x00\n        /* \"refund_by_location/contracts/refundByLocation.sol\":2323:2326  _to */\n      dup5\n        /* \"refund_by_location/contracts/refundByLocation.sol\":2305:2327  empContractStatus[_to] */\n      0xffffffffffffffffffffffffffffffffffffffff\n      and\n      0xffffffffffffffffffffffffffffffffffffffff\n      and\n      dup2\n      mstore\n      0x20\n      add\n      swap1\n      dup2\n      mstore\n      0x20\n      add\n      0x00\n      keccak256\n        /* \"refund_by_location/contracts/refundByLocation.sol\":2305:2337  empContractStatus[_to].reqAmount */\n      0x02\n      add\n      0x01\n      swap1\n      sload\n      swap1\n      0x0100\n      exp\n      swap1\n      div\n      0xff\n      and\n        /* \"refund_by_location/contracts/refundByLocation.sol\":2270:2337  empContractStatus[_to].compCount > empContractStatus[_to].reqAmount */\n      0xff\n      and\n        /* \"refund_by_location/contracts/refundByLocation.sol\":2270:2287  empContractStatus */\n      0x02\n        /* \"refund_by_location/contracts/refundByLocation.sol\":2270:2292  empContractStatus[_to] */\n      0x00\n        /* \"refund_by_location/contracts/refundByLocation.sol\":2288:2291  _to */\n      dup6\n        /* \"refund_by_location/contracts/refundByLocation.sol\":2270:2292  empContractStatus[_to] */\n      0xffffffffffffffffffffffffffffffffffffffff\n      and\n      0xffffffffffffffffffffffffffffffffffffffff\n      and\n      dup2\n      mstore\n      0x20\n      add\n      swap1\n      dup2\n      mstore\n      0x20\n      add\n      0x00\n      keccak256\n        /* \"refund_by_location/contracts/refundByLocation.sol\":2270:2302  empContractStatus[_to].compCount */\n      0x02\n      add\n      0x00\n      swap1\n      sload\n      swap1\n      0x0100\n      exp\n      swap1\n      div\n      0xff\n      and\n        /* \"refund_by_location/contracts/refundByLocation.sol\":2270:2337  empContractStatus[_to].compCount > empContractStatus[_to].reqAmount */\n      0xff\n      and\n      gt\n        /* \"refund_by_location/contracts/refundByLocation.sol\":2262:2407  require(empContractStatus[_to].compCount > empContractStatus[_to].reqAmount,\"The employee did not remain in compliance with all the agreements.\") */\n      tag_74\n      jumpi\n      mload(0x40)\n      0x08c379a000000000000000000000000000000000000000000000000000000000\n      dup2\n      mstore\n      0x04\n      add\n      tag_75\n      swap1\n      tag_76\n      jump\t// in\n    tag_75:\n      mload(0x40)\n      dup1\n      swap2\n      sub\n      swap1\n      revert\n    tag_74:\n        /* \"refund_by_location/contracts/refundByLocation.sol\":2417:2426  bool sent */\n      0x00\n        /* \"refund_by_location/contracts/refundByLocation.sol\":2429:2432  _to */\n      dup4\n        /* \"refund_by_location/contracts/refundByLocation.sol\":2429:2437  _to.send */\n      0xffffffffffffffffffffffffffffffffffffffff\n      and\n        /* \"refund_by_location/contracts/refundByLocation.sol\":2429:2469  _to.send(empContractStatus[_to].payment) */\n      0x08fc\n        /* \"refund_by_location/contracts/refundByLocation.sol\":2438:2455  empContractStatus */\n      0x02\n        /* \"refund_by_location/contracts/refundByLocation.sol\":2438:2460  empContractStatus[_to] */\n      0x00\n        /* \"refund_by_location/contracts/refundByLocation.sol\":2456:2459  _to */\n      dup8\n        /* \"refund_by_location/contracts/refundByLocation.sol\":2438:2460  empContractStatus[_to] */\n      0xffffffffffffffffffffffffffffffffffffffff\n      and\n      0xffffffffffffffffffffffffffffffffffffffff\n      and\n      dup2\n      mstore\n      0x20\n      add\n      swap1\n      dup2\n      mstore\n      0x20\n      add\n      0x00\n      keccak256\n        /* \"refund_by_location/contracts/refundByLocation.sol\":2438:2468  empContractStatus[_to].payment */\n      0x01\n      add\n      sload\n        /* \"refund_by_location/contracts/refundByLocation.sol\":2429:2469  _to.send(empContractStatus[_to].payment) */\n      swap1\n      dup2\n      iszero\n      mul\n      swap1\n      mload(0x40)\n      0x00\n      mload(0x40)\n      dup1\n      dup4\n      sub\n      dup2\n      dup6\n      dup9\n      dup9\n      call\n      swap4\n      pop\n      pop\n      pop\n      pop\n        /* \"refund_by_location/contracts/refundByLocation.sol\":2417:2469  bool sent = _to.send(empContractStatus[_to].payment) */\n      swap1\n      pop\n        /* \"refund_by_location/contracts/refundByLocation.sol\":2487:2491  sent */\n      dup1\n        /* \"refund_by_location/contracts/refundByLocation.sol\":2479:2516  require(sent, \"Failed to send Ether\") */\n      tag_78\n      jumpi\n      mload(0x40)\n      0x08c379a000000000000000000000000000000000000000000000000000000000\n      dup2\n      mstore\n      0x04\n      add\n      tag_79\n      swap1\n      tag_80\n      jump\t// in\n    tag_79:\n      mload(0x40)\n      dup1\n      swap2\n      sub\n      swap1\n      revert\n    tag_78:\n        /* \"refund_by_location/contracts/refundByLocation.sol\":2252:2523  {... */\n      pop\n        /* \"refund_by_location/contracts/refundByLocation.sol\":653:1026  {... */\n      pop\n        /* \"refund_by_location/contracts/refundByLocation.sol\":2177:2523  function payEmployee(address payable _to) public payable onlyEmployee(_to) {... */\n      pop\n      pop\n      jump\t// out\n        /* \"refund_by_location/contracts/refundByLocation.sol\":139:163  address public employeer */\n    tag_22:\n      0x01\n      0x00\n      swap1\n      sload\n      swap1\n      0x0100\n      exp\n      swap1\n      div\n      0xffffffffffffffffffffffffffffffffffffffff\n      and\n      dup2\n      jump\t// out\n        /* \"refund_by_location/contracts/refundByLocation.sol\":107:133  address[] public employees */\n    tag_29:\n      0x00\n      dup2\n      dup2\n      sload\n      dup2\n      lt\n      tag_81\n      jumpi\n      0x00\n      dup1\n      revert\n    tag_81:\n      swap1\n      0x00\n      mstore\n      keccak256(0x00, 0x20)\n      add\n      0x00\n      swap2\n      pop\n      sload\n      swap1\n      0x0100\n      exp\n      swap1\n      div\n      0xffffffffffffffffffffffffffffffffffffffff\n      and\n      dup2\n      jump\t// out\n        /* \"refund_by_location/contracts/refundByLocation.sol\":3371:3465  function getEmployees() public view returns(address[] memory){... */\n    tag_33:\n        /* \"refund_by_location/contracts/refundByLocation.sol\":3415:3431  address[] memory */\n      0x60\n        /* \"refund_by_location/contracts/refundByLocation.sol\":3449:3458  employees */\n      0x00\n        /* \"refund_by_location/contracts/refundByLocation.sol\":3442:3458  return employees */\n      dup1\n      sload\n      dup1\n      0x20\n      mul\n      0x20\n      add\n      mload(0x40)\n      swap1\n      dup2\n      add\n      0x40\n      mstore\n      dup1\n      swap3\n      swap2\n      swap1\n      dup2\n      dup2\n      mstore\n      0x20\n      add\n      dup3\n      dup1\n      sload\n      dup1\n      iszero\n      tag_84\n      jumpi\n      0x20\n      mul\n      dup3\n      add\n      swap2\n      swap1\n      0x00\n      mstore\n      keccak256(0x00, 0x20)\n      swap1\n    tag_85:\n      dup2\n      0x00\n      swap1\n      sload\n      swap1\n      0x0100\n      exp\n      swap1\n      div\n      0xffffffffffffffffffffffffffffffffffffffff\n      and\n      0xffffffffffffffffffffffffffffffffffffffff\n      and\n      dup2\n      mstore\n      0x20\n      add\n      swap1\n      0x01\n      add\n      swap1\n      dup1\n      dup4\n      gt\n      tag_85\n      jumpi\n    tag_84:\n      pop\n      pop\n      pop\n      pop\n      pop\n      swap1\n      pop\n        /* \"refund_by_location/contracts/refundByLocation.sol\":3371:3465  function getEmployees() public view returns(address[] memory){... */\n      swap1\n      jump\t// out\n        /* \"refund_by_location/contracts/refundByLocation.sol\":3284:3366  function getAdmin() public view returns(address) {... */\n    tag_38:\n        /* \"refund_by_location/contracts/refundByLocation.sol\":3324:3331  address */\n      0x00\n        /* \"refund_by_location/contracts/refundByLocation.sol\":3350:3359  employeer */\n      0x01\n      0x00\n      swap1\n      sload\n      swap1\n      0x0100\n      exp\n      swap1\n      div\n      0xffffffffffffffffffffffffffffffffffffffff\n      and\n        /* \"refund_by_location/contracts/refundByLocation.sol\":3343:3359  return employeer */\n      swap1\n      pop\n        /* \"refund_by_location/contracts/refundByLocation.sol\":3284:3366  function getAdmin() public view returns(address) {... */\n      swap1\n      jump\t// out\n        /* \"refund_by_location/contracts/refundByLocation.sol\":350:410  mapping (address => ContractStatus) public empContractStatus */\n    tag_44:\n      mstore(0x20, 0x02)\n      dup1\n      0x00\n      mstore\n      keccak256(0x00, 0x40)\n      0x00\n      swap2\n      pop\n      swap1\n      pop\n      dup1\n      0x00\n      add\n      0x00\n      swap1\n      sload\n      swap1\n      0x0100\n      exp\n      swap1\n      div\n      0x00\n      signextend\n      swap1\n      dup1\n      0x00\n      add\n      0x01\n      swap1\n      sload\n      swap1\n      0x0100\n      exp\n      swap1\n      div\n      0x00\n      signextend\n      swap1\n      dup1\n      0x00\n      add\n      0x02\n      swap1\n      sload\n      swap1\n      0x0100\n      exp\n      swap1\n      div\n      0x00\n      signextend\n      swap1\n      dup1\n      0x01\n      add\n      sload\n      swap1\n      dup1\n      0x02\n      add\n      0x00\n      swap1\n      sload\n      swap1\n      0x0100\n      exp\n      swap1\n      div\n      0xff\n      and\n      swap1\n      dup1\n      0x02\n      add\n      0x01\n      swap1\n      sload\n      swap1\n      0x0100\n      exp\n      swap1\n      div\n      0xff\n      and\n      swap1\n      pop\n      dup7\n      jump\t// out\n        /* \"refund_by_location/contracts/refundByLocation.sol\":1842:2171  function updateCompCountStatus(int8 _latitude, int8 _longitude) public {... */\n    tag_51:\n        /* \"refund_by_location/contracts/refundByLocation.sol\":1927:1938  int256 dist */\n      0x00\n        /* \"refund_by_location/contracts/refundByLocation.sol\":1941:1981  calculateDistance(_latitude, _longitude) */\n      tag_88\n        /* \"refund_by_location/contracts/refundByLocation.sol\":1959:1968  _latitude */\n      dup4\n        /* \"refund_by_location/contracts/refundByLocation.sol\":1970:1980  _longitude */\n      dup4\n        /* \"refund_by_location/contracts/refundByLocation.sol\":1941:1958  calculateDistance */\n      tag_89\n        /* \"refund_by_location/contracts/refundByLocation.sol\":1941:1981  calculateDistance(_latitude, _longitude) */\n      jump\t// in\n    tag_88:\n        /* \"refund_by_location/contracts/refundByLocation.sol\":1927:1981  int256 dist = calculateDistance(_latitude, _longitude) */\n      swap1\n      pop\n        /* \"refund_by_location/contracts/refundByLocation.sol\":2006:2023  empContractStatus */\n      0x02\n        /* \"refund_by_location/contracts/refundByLocation.sol\":2006:2035  empContractStatus[msg.sender] */\n      0x00\n        /* \"refund_by_location/contracts/refundByLocation.sol\":2024:2034  msg.sender */\n      caller\n        /* \"refund_by_location/contracts/refundByLocation.sol\":2006:2035  empContractStatus[msg.sender] */\n      0xffffffffffffffffffffffffffffffffffffffff\n      and\n      0xffffffffffffffffffffffffffffffffffffffff\n      and\n      dup2\n      mstore\n      0x20\n      add\n      swap1\n      dup2\n      mstore\n      0x20\n      add\n      0x00\n      keccak256\n        /* \"refund_by_location/contracts/refundByLocation.sol\":2006:2045  empContractStatus[msg.sender].maxRadius */\n      0x00\n      add\n      0x02\n      swap1\n      sload\n      swap1\n      0x0100\n      exp\n      swap1\n      div\n      0x00\n      signextend\n        /* \"refund_by_location/contracts/refundByLocation.sol\":1999:2045  dist < empContractStatus[msg.sender].maxRadius */\n      0x00\n      signextend\n        /* \"refund_by_location/contracts/refundByLocation.sol\":1999:2003  dist */\n      dup2\n        /* \"refund_by_location/contracts/refundByLocation.sol\":1999:2045  dist < empContractStatus[msg.sender].maxRadius */\n      slt\n        /* \"refund_by_location/contracts/refundByLocation.sol\":1995:2165  if (dist < empContractStatus[msg.sender].maxRadius) {... */\n      iszero\n      tag_90\n      jumpi\n        /* \"refund_by_location/contracts/refundByLocation.sol\":2149:2150  1 */\n      0x01\n        /* \"refund_by_location/contracts/refundByLocation.sol\":2107:2124  empContractStatus */\n      0x02\n        /* \"refund_by_location/contracts/refundByLocation.sol\":2107:2136  empContractStatus[msg.sender] */\n      0x00\n        /* \"refund_by_location/contracts/refundByLocation.sol\":2125:2135  msg.sender */\n      caller\n        /* \"refund_by_location/contracts/refundByLocation.sol\":2107:2136  empContractStatus[msg.sender] */\n      0xffffffffffffffffffffffffffffffffffffffff\n      and\n      0xffffffffffffffffffffffffffffffffffffffff\n      and\n      dup2\n      mstore\n      0x20\n      add\n      swap1\n      dup2\n      mstore\n      0x20\n      add\n      0x00\n      keccak256\n        /* \"refund_by_location/contracts/refundByLocation.sol\":2107:2146  empContractStatus[msg.sender].compCount */\n      0x02\n      add\n      0x00\n      swap1\n      sload\n      swap1\n      0x0100\n      exp\n      swap1\n      div\n      0xff\n      and\n        /* \"refund_by_location/contracts/refundByLocation.sol\":2107:2150  empContractStatus[msg.sender].compCount + 1 */\n      tag_91\n      swap2\n      swap1\n      tag_92\n      jump\t// in\n    tag_91:\n        /* \"refund_by_location/contracts/refundByLocation.sol\":2065:2082  empContractStatus */\n      0x02\n        /* \"refund_by_location/contracts/refundByLocation.sol\":2065:2094  empContractStatus[msg.sender] */\n      0x00\n        /* \"refund_by_location/contracts/refundByLocation.sol\":2083:2093  msg.sender */\n      caller\n        /* \"refund_by_location/contracts/refundByLocation.sol\":2065:2094  empContractStatus[msg.sender] */\n      0xffffffffffffffffffffffffffffffffffffffff\n      and\n      0xffffffffffffffffffffffffffffffffffffffff\n      and\n      dup2\n      mstore\n      0x20\n      add\n      swap1\n      dup2\n      mstore\n      0x20\n      add\n      0x00\n      keccak256\n        /* \"refund_by_location/contracts/refundByLocation.sol\":2065:2104  empContractStatus[msg.sender].compCount */\n      0x02\n      add\n      0x00\n        /* \"refund_by_location/contracts/refundByLocation.sol\":2065:2150  empContractStatus[msg.sender].compCount = empContractStatus[msg.sender].compCount + 1 */\n      0x0100\n      exp\n      dup2\n      sload\n      dup2\n      0xff\n      mul\n      not\n      and\n      swap1\n      dup4\n      0xff\n      and\n      mul\n      or\n      swap1\n      sstore\n      pop\n        /* \"refund_by_location/contracts/refundByLocation.sol\":1995:2165  if (dist < empContractStatus[msg.sender].maxRadius) {... */\n    tag_90:\n        /* \"refund_by_location/contracts/refundByLocation.sol\":1913:2171  {... */\n      pop\n        /* \"refund_by_location/contracts/refundByLocation.sol\":1842:2171  function updateCompCountStatus(int8 _latitude, int8 _longitude) public {... */\n      pop\n      pop\n      jump\t// out\n        /* \"refund_by_location/contracts/refundByLocation.sol\":1532:1837  function calculateDistance(int8 _latitude, int8 _longitude) private view  returns (int256 dist) {... */\n    tag_89:\n        /* \"refund_by_location/contracts/refundByLocation.sol\":1615:1626  int256 dist */\n      0x00\n        /* \"refund_by_location/contracts/refundByLocation.sol\":1638:1646  int256 x */\n      dup1\n        /* \"refund_by_location/contracts/refundByLocation.sol\":1661:1678  empContractStatus */\n      0x02\n        /* \"refund_by_location/contracts/refundByLocation.sol\":1661:1690  empContractStatus[msg.sender] */\n      0x00\n        /* \"refund_by_location/contracts/refundByLocation.sol\":1679:1689  msg.sender */\n      caller\n        /* \"refund_by_location/contracts/refundByLocation.sol\":1661:1690  empContractStatus[msg.sender] */\n      0xffffffffffffffffffffffffffffffffffffffff\n      and\n      0xffffffffffffffffffffffffffffffffffffffff\n      and\n      dup2\n      mstore\n      0x20\n      add\n      swap1\n      dup2\n      mstore\n      0x20\n      add\n      0x00\n      keccak256\n        /* \"refund_by_location/contracts/refundByLocation.sol\":1661:1699  empContractStatus[msg.sender].latitude */\n      0x00\n      add\n      0x00\n      swap1\n      sload\n      swap1\n      0x0100\n      exp\n      swap1\n      div\n      0x00\n      signextend\n        /* \"refund_by_location/contracts/refundByLocation.sol\":1649:1658  _latitude */\n      dup5\n        /* \"refund_by_location/contracts/refundByLocation.sol\":1649:1699  _latitude - empContractStatus[msg.sender].latitude */\n      tag_94\n      swap2\n      swap1\n      tag_95\n      jump\t// in\n    tag_94:\n        /* \"refund_by_location/contracts/refundByLocation.sol\":1638:1699  int256 x = _latitude - empContractStatus[msg.sender].latitude */\n      0x00\n      signextend\n      swap1\n      pop\n        /* \"refund_by_location/contracts/refundByLocation.sol\":1709:1717  int256 y */\n      0x00\n        /* \"refund_by_location/contracts/refundByLocation.sol\":1733:1750  empContractStatus */\n      0x02\n        /* \"refund_by_location/contracts/refundByLocation.sol\":1733:1762  empContractStatus[msg.sender] */\n      0x00\n        /* \"refund_by_location/contracts/refundByLocation.sol\":1751:1761  msg.sender */\n      caller\n        /* \"refund_by_location/contracts/refundByLocation.sol\":1733:1762  empContractStatus[msg.sender] */\n      0xffffffffffffffffffffffffffffffffffffffff\n      and\n      0xffffffffffffffffffffffffffffffffffffffff\n      and\n      dup2\n      mstore\n      0x20\n      add\n      swap1\n      dup2\n      mstore\n      0x20\n      add\n      0x00\n      keccak256\n        /* \"refund_by_location/contracts/refundByLocation.sol\":1733:1772  empContractStatus[msg.sender].longitude */\n      0x00\n      add\n      0x01\n      swap1\n      sload\n      swap1\n      0x0100\n      exp\n      swap1\n      div\n      0x00\n      signextend\n        /* \"refund_by_location/contracts/refundByLocation.sol\":1720:1730  _longitude */\n      dup5\n        /* \"refund_by_location/contracts/refundByLocation.sol\":1720:1772  _longitude - empContractStatus[msg.sender].longitude */\n      tag_96\n      swap2\n      swap1\n      tag_95\n      jump\t// in\n    tag_96:\n        /* \"refund_by_location/contracts/refundByLocation.sol\":1709:1772  int256 y = _longitude - empContractStatus[msg.sender].longitude */\n      0x00\n      signextend\n      swap1\n      pop\n        /* \"refund_by_location/contracts/refundByLocation.sol\":1789:1809  getSqrt(x**2 + y**2) */\n      tag_97\n        /* \"refund_by_location/contracts/refundByLocation.sol\":1807:1808  2 */\n      0x02\n        /* \"refund_by_location/contracts/refundByLocation.sol\":1804:1805  y */\n      dup3\n        /* \"refund_by_location/contracts/refundByLocation.sol\":1804:1808  y**2 */\n      tag_98\n      swap2\n      swap1\n      tag_99\n      jump\t// in\n    tag_98:\n        /* \"refund_by_location/contracts/refundByLocation.sol\":1800:1801  2 */\n      0x02\n        /* \"refund_by_location/contracts/refundByLocation.sol\":1797:1798  x */\n      dup5\n        /* \"refund_by_location/contracts/refundByLocation.sol\":1797:1801  x**2 */\n      tag_100\n      swap2\n      swap1\n      tag_99\n      jump\t// in\n    tag_100:\n        /* \"refund_by_location/contracts/refundByLocation.sol\":1797:1808  x**2 + y**2 */\n      tag_101\n      swap2\n      swap1\n      tag_102\n      jump\t// in\n    tag_101:\n        /* \"refund_by_location/contracts/refundByLocation.sol\":1789:1796  getSqrt */\n      tag_103\n        /* \"refund_by_location/contracts/refundByLocation.sol\":1789:1809  getSqrt(x**2 + y**2) */\n      jump\t// in\n    tag_97:\n        /* \"refund_by_location/contracts/refundByLocation.sol\":1782:1809  dist = getSqrt(x**2 + y**2) */\n      swap3\n      pop\n        /* \"refund_by_location/contracts/refundByLocation.sol\":1819:1830  return dist */\n      pop\n      pop\n        /* \"refund_by_location/contracts/refundByLocation.sol\":1532:1837  function calculateDistance(int8 _latitude, int8 _longitude) private view  returns (int256 dist) {... */\n      swap3\n      swap2\n      pop\n      pop\n      jump\t// out\n        /* \"refund_by_location/contracts/refundByLocation.sol\":1270:1526  function getSqrt(int256 input) private pure returns (int256  output ) {... */\n    tag_103:\n        /* \"refund_by_location/contracts/refundByLocation.sol\":1323:1337  int256  output */\n      0x00\n        /* \"refund_by_location/contracts/refundByLocation.sol\":1350:1361  int256 temp */\n      dup1\n        /* \"refund_by_location/contracts/refundByLocation.sol\":1378:1379  2 */\n      0x02\n        /* \"refund_by_location/contracts/refundByLocation.sol\":1373:1374  1 */\n      0x01\n        /* \"refund_by_location/contracts/refundByLocation.sol\":1365:1370  input */\n      dup5\n        /* \"refund_by_location/contracts/refundByLocation.sol\":1365:1374  input + 1 */\n      tag_105\n      swap2\n      swap1\n      tag_102\n      jump\t// in\n    tag_105:\n        /* \"refund_by_location/contracts/refundByLocation.sol\":1364:1379  (input + 1) / 2 */\n      tag_106\n      swap2\n      swap1\n      tag_107\n      jump\t// in\n    tag_106:\n        /* \"refund_by_location/contracts/refundByLocation.sol\":1350:1379  int256 temp = (input + 1) / 2 */\n      swap1\n      pop\n        /* \"refund_by_location/contracts/refundByLocation.sol\":1398:1403  input */\n      dup3\n        /* \"refund_by_location/contracts/refundByLocation.sol\":1389:1403  output = input */\n      swap2\n      pop\n        /* \"refund_by_location/contracts/refundByLocation.sol\":1413:1520  while (temp < output) {... */\n    tag_108:\n        /* \"refund_by_location/contracts/refundByLocation.sol\":1427:1433  output */\n      dup2\n        /* \"refund_by_location/contracts/refundByLocation.sol\":1420:1424  temp */\n      dup2\n        /* \"refund_by_location/contracts/refundByLocation.sol\":1420:1433  temp < output */\n      slt\n        /* \"refund_by_location/contracts/refundByLocation.sol\":1413:1520  while (temp < output) {... */\n      iszero\n      tag_109\n      jumpi\n        /* \"refund_by_location/contracts/refundByLocation.sol\":1458:1462  temp */\n      dup1\n        /* \"refund_by_location/contracts/refundByLocation.sol\":1449:1462  output = temp */\n      swap2\n      pop\n        /* \"refund_by_location/contracts/refundByLocation.sol\":1508:1509  2 */\n      0x02\n        /* \"refund_by_location/contracts/refundByLocation.sol\":1503:1504  2 */\n      dup1\n        /* \"refund_by_location/contracts/refundByLocation.sol\":1493:1499  output */\n      dup4\n        /* \"refund_by_location/contracts/refundByLocation.sol\":1485:1490  input */\n      dup6\n        /* \"refund_by_location/contracts/refundByLocation.sol\":1485:1499  input / output */\n      tag_110\n      swap2\n      swap1\n      tag_107\n      jump\t// in\n    tag_110:\n        /* \"refund_by_location/contracts/refundByLocation.sol\":1484:1504  (input / output) * 2 */\n      tag_111\n      swap2\n      swap1\n      tag_112\n      jump\t// in\n    tag_111:\n        /* \"refund_by_location/contracts/refundByLocation.sol\":1483:1509  ((input / output) * 2) / 2 */\n      tag_113\n      swap2\n      swap1\n      tag_107\n      jump\t// in\n    tag_113:\n        /* \"refund_by_location/contracts/refundByLocation.sol\":1476:1509  temp = ((input / output) * 2) / 2 */\n      swap1\n      pop\n        /* \"refund_by_location/contracts/refundByLocation.sol\":1413:1520  while (temp < output) {... */\n      jump(tag_108)\n    tag_109:\n        /* \"refund_by_location/contracts/refundByLocation.sol\":1340:1526  {... */\n      pop\n        /* \"refund_by_location/contracts/refundByLocation.sol\":1270:1526  function getSqrt(int256 input) private pure returns (int256  output ) {... */\n      swap2\n      swap1\n      pop\n      jump\t// out\n        /* \"#utility.yul\":88:205   */\n    tag_115:\n        /* \"#utility.yul\":197:198   */\n      0x00\n        /* \"#utility.yul\":194:195   */\n      dup1\n        /* \"#utility.yul\":187:199   */\n      revert\n        /* \"#utility.yul\":334:460   */\n    tag_117:\n        /* \"#utility.yul\":371:378   */\n      0x00\n        /* \"#utility.yul\":411:453   */\n      0xffffffffffffffffffffffffffffffffffffffff\n        /* \"#utility.yul\":404:409   */\n      dup3\n        /* \"#utility.yul\":400:454   */\n      and\n        /* \"#utility.yul\":389:454   */\n      swap1\n      pop\n        /* \"#utility.yul\":334:460   */\n      swap2\n      swap1\n      pop\n      jump\t// out\n        /* \"#utility.yul\":466:562   */\n    tag_118:\n        /* \"#utility.yul\":503:510   */\n      0x00\n        /* \"#utility.yul\":532:556   */\n      tag_165\n        /* \"#utility.yul\":550:555   */\n      dup3\n        /* \"#utility.yul\":532:556   */\n      tag_117\n      jump\t// in\n    tag_165:\n        /* \"#utility.yul\":521:556   */\n      swap1\n      pop\n        /* \"#utility.yul\":466:562   */\n      swap2\n      swap1\n      pop\n      jump\t// out\n        /* \"#utility.yul\":568:690   */\n    tag_119:\n        /* \"#utility.yul\":641:665   */\n      tag_167\n        /* \"#utility.yul\":659:664   */\n      dup2\n        /* \"#utility.yul\":641:665   */\n      tag_118\n      jump\t// in\n    tag_167:\n        /* \"#utility.yul\":634:639   */\n      dup2\n        /* \"#utility.yul\":631:666   */\n      eq\n        /* \"#utility.yul\":621:684   */\n      tag_168\n      jumpi\n        /* \"#utility.yul\":680:681   */\n      0x00\n        /* \"#utility.yul\":677:678   */\n      dup1\n        /* \"#utility.yul\":670:682   */\n      revert\n        /* \"#utility.yul\":621:684   */\n    tag_168:\n        /* \"#utility.yul\":568:690   */\n      pop\n      jump\t// out\n        /* \"#utility.yul\":696:835   */\n    tag_120:\n        /* \"#utility.yul\":742:747   */\n      0x00\n        /* \"#utility.yul\":780:786   */\n      dup2\n        /* \"#utility.yul\":767:787   */\n      calldataload\n        /* \"#utility.yul\":758:787   */\n      swap1\n      pop\n        /* \"#utility.yul\":796:829   */\n      tag_170\n        /* \"#utility.yul\":823:828   */\n      dup2\n        /* \"#utility.yul\":796:829   */\n      tag_119\n      jump\t// in\n    tag_170:\n        /* \"#utility.yul\":696:835   */\n      swap3\n      swap2\n      pop\n      pop\n      jump\t// out\n        /* \"#utility.yul\":841:930   */\n    tag_121:\n        /* \"#utility.yul\":875:882   */\n      0x00\n        /* \"#utility.yul\":918:923   */\n      dup2\n        /* \"#utility.yul\":915:916   */\n      0x00\n        /* \"#utility.yul\":904:924   */\n      signextend\n        /* \"#utility.yul\":893:924   */\n      swap1\n      pop\n        /* \"#utility.yul\":841:930   */\n      swap2\n      swap1\n      pop\n      jump\t// out\n        /* \"#utility.yul\":936:1052   */\n    tag_122:\n        /* \"#utility.yul\":1006:1027   */\n      tag_173\n        /* \"#utility.yul\":1021:1026   */\n      dup2\n        /* \"#utility.yul\":1006:1027   */\n      tag_121\n      jump\t// in\n    tag_173:\n        /* \"#utility.yul\":999:1004   */\n      dup2\n        /* \"#utility.yul\":996:1028   */\n      eq\n        /* \"#utility.yul\":986:1046   */\n      tag_174\n      jumpi\n        /* \"#utility.yul\":1042:1043   */\n      0x00\n        /* \"#utility.yul\":1039:1040   */\n      dup1\n        /* \"#utility.yul\":1032:1044   */\n      revert\n        /* \"#utility.yul\":986:1046   */\n    tag_174:\n        /* \"#utility.yul\":936:1052   */\n      pop\n      jump\t// out\n        /* \"#utility.yul\":1058:1191   */\n    tag_123:\n        /* \"#utility.yul\":1101:1106   */\n      0x00\n        /* \"#utility.yul\":1139:1145   */\n      dup2\n        /* \"#utility.yul\":1126:1146   */\n      calldataload\n        /* \"#utility.yul\":1117:1146   */\n      swap1\n      pop\n        /* \"#utility.yul\":1155:1185   */\n      tag_176\n        /* \"#utility.yul\":1179:1184   */\n      dup2\n        /* \"#utility.yul\":1155:1185   */\n      tag_122\n      jump\t// in\n    tag_176:\n        /* \"#utility.yul\":1058:1191   */\n      swap3\n      swap2\n      pop\n      pop\n      jump\t// out\n        /* \"#utility.yul\":1197:1283   */\n    tag_124:\n        /* \"#utility.yul\":1232:1239   */\n      0x00\n        /* \"#utility.yul\":1272:1276   */\n      0xff\n        /* \"#utility.yul\":1265:1270   */\n      dup3\n        /* \"#utility.yul\":1261:1277   */\n      and\n        /* \"#utility.yul\":1250:1277   */\n      swap1\n      pop\n        /* \"#utility.yul\":1197:1283   */\n      swap2\n      swap1\n      pop\n      jump\t// out\n        /* \"#utility.yul\":1289:1407   */\n    tag_125:\n        /* \"#utility.yul\":1360:1382   */\n      tag_179\n        /* \"#utility.yul\":1376:1381   */\n      dup2\n        /* \"#utility.yul\":1360:1382   */\n      tag_124\n      jump\t// in\n    tag_179:\n        /* \"#utility.yul\":1353:1358   */\n      dup2\n        /* \"#utility.yul\":1350:1383   */\n      eq\n        /* \"#utility.yul\":1340:1401   */\n      tag_180\n      jumpi\n        /* \"#utility.yul\":1397:1398   */\n      0x00\n        /* \"#utility.yul\":1394:1395   */\n      dup1\n        /* \"#utility.yul\":1387:1399   */\n      revert\n        /* \"#utility.yul\":1340:1401   */\n    tag_180:\n        /* \"#utility.yul\":1289:1407   */\n      pop\n      jump\t// out\n        /* \"#utility.yul\":1413:1548   */\n    tag_126:\n        /* \"#utility.yul\":1457:1462   */\n      0x00\n        /* \"#utility.yul\":1495:1501   */\n      dup2\n        /* \"#utility.yul\":1482:1502   */\n      calldataload\n        /* \"#utility.yul\":1473:1502   */\n      swap1\n      pop\n        /* \"#utility.yul\":1511:1542   */\n      tag_182\n        /* \"#utility.yul\":1536:1541   */\n      dup2\n        /* \"#utility.yul\":1511:1542   */\n      tag_125\n      jump\t// in\n    tag_182:\n        /* \"#utility.yul\":1413:1548   */\n      swap3\n      swap2\n      pop\n      pop\n      jump\t// out\n        /* \"#utility.yul\":1554:2585   */\n    tag_14:\n        /* \"#utility.yul\":1645:1651   */\n      0x00\n        /* \"#utility.yul\":1653:1659   */\n      dup1\n        /* \"#utility.yul\":1661:1667   */\n      0x00\n        /* \"#utility.yul\":1669:1675   */\n      dup1\n        /* \"#utility.yul\":1677:1683   */\n      0x00\n        /* \"#utility.yul\":1685:1691   */\n      dup1\n        /* \"#utility.yul\":1734:1737   */\n      0xc0\n        /* \"#utility.yul\":1722:1731   */\n      dup8\n        /* \"#utility.yul\":1713:1720   */\n      dup10\n        /* \"#utility.yul\":1709:1732   */\n      sub\n        /* \"#utility.yul\":1705:1738   */\n      slt\n        /* \"#utility.yul\":1702:1822   */\n      iszero\n      tag_184\n      jumpi\n        /* \"#utility.yul\":1741:1820   */\n      tag_185\n      tag_115\n      jump\t// in\n    tag_185:\n        /* \"#utility.yul\":1702:1822   */\n    tag_184:\n        /* \"#utility.yul\":1861:1862   */\n      0x00\n        /* \"#utility.yul\":1886:1939   */\n      tag_186\n        /* \"#utility.yul\":1931:1938   */\n      dup10\n        /* \"#utility.yul\":1922:1928   */\n      dup3\n        /* \"#utility.yul\":1911:1920   */\n      dup11\n        /* \"#utility.yul\":1907:1929   */\n      add\n        /* \"#utility.yul\":1886:1939   */\n      tag_120\n      jump\t// in\n    tag_186:\n        /* \"#utility.yul\":1876:1939   */\n      swap7\n      pop\n        /* \"#utility.yul\":1832:1949   */\n      pop\n        /* \"#utility.yul\":1988:1990   */\n      0x20\n        /* \"#utility.yul\":2014:2064   */\n      tag_187\n        /* \"#utility.yul\":2056:2063   */\n      dup10\n        /* \"#utility.yul\":2047:2053   */\n      dup3\n        /* \"#utility.yul\":2036:2045   */\n      dup11\n        /* \"#utility.yul\":2032:2054   */\n      add\n        /* \"#utility.yul\":2014:2064   */\n      tag_123\n      jump\t// in\n    tag_187:\n        /* \"#utility.yul\":2004:2064   */\n      swap6\n      pop\n        /* \"#utility.yul\":1959:2074   */\n      pop\n        /* \"#utility.yul\":2113:2115   */\n      0x40\n        /* \"#utility.yul\":2139:2189   */\n      tag_188\n        /* \"#utility.yul\":2181:2188   */\n      dup10\n        /* \"#utility.yul\":2172:2178   */\n      dup3\n        /* \"#utility.yul\":2161:2170   */\n      dup11\n        /* \"#utility.yul\":2157:2179   */\n      add\n        /* \"#utility.yul\":2139:2189   */\n      tag_123\n      jump\t// in\n    tag_188:\n        /* \"#utility.yul\":2129:2189   */\n      swap5\n      pop\n        /* \"#utility.yul\":2084:2199   */\n      pop\n        /* \"#utility.yul\":2238:2240   */\n      0x60\n        /* \"#utility.yul\":2264:2314   */\n      tag_189\n        /* \"#utility.yul\":2306:2313   */\n      dup10\n        /* \"#utility.yul\":2297:2303   */\n      dup3\n        /* \"#utility.yul\":2286:2295   */\n      dup11\n        /* \"#utility.yul\":2282:2304   */\n      add\n        /* \"#utility.yul\":2264:2314   */\n      tag_123\n      jump\t// in\n    tag_189:\n        /* \"#utility.yul\":2254:2314   */\n      swap4\n      pop\n        /* \"#utility.yul\":2209:2324   */\n      pop\n        /* \"#utility.yul\":2363:2366   */\n      0x80\n        /* \"#utility.yul\":2390:2441   */\n      tag_190\n        /* \"#utility.yul\":2433:2440   */\n      dup10\n        /* \"#utility.yul\":2424:2430   */\n      dup3\n        /* \"#utility.yul\":2413:2422   */\n      dup11\n        /* \"#utility.yul\":2409:2431   */\n      add\n        /* \"#utility.yul\":2390:2441   */\n      tag_126\n      jump\t// in\n    tag_190:\n        /* \"#utility.yul\":2380:2441   */\n      swap3\n      pop\n        /* \"#utility.yul\":2334:2451   */\n      pop\n        /* \"#utility.yul\":2490:2493   */\n      0xa0\n        /* \"#utility.yul\":2517:2568   */\n      tag_191\n        /* \"#utility.yul\":2560:2567   */\n      dup10\n        /* \"#utility.yul\":2551:2557   */\n      dup3\n        /* \"#utility.yul\":2540:2549   */\n      dup11\n        /* \"#utility.yul\":2536:2558   */\n      add\n        /* \"#utility.yul\":2517:2568   */\n      tag_126\n      jump\t// in\n    tag_191:\n        /* \"#utility.yul\":2507:2568   */\n      swap2\n      pop\n        /* \"#utility.yul\":2461:2578   */\n      pop\n        /* \"#utility.yul\":1554:2585   */\n      swap3\n      swap6\n      pop\n      swap3\n      swap6\n      pop\n      swap3\n      swap6\n      jump\t// out\n        /* \"#utility.yul\":2591:2695   */\n    tag_127:\n        /* \"#utility.yul\":2636:2643   */\n      0x00\n        /* \"#utility.yul\":2665:2689   */\n      tag_193\n        /* \"#utility.yul\":2683:2688   */\n      dup3\n        /* \"#utility.yul\":2665:2689   */\n      tag_117\n      jump\t// in\n    tag_193:\n        /* \"#utility.yul\":2654:2689   */\n      swap1\n      pop\n        /* \"#utility.yul\":2591:2695   */\n      swap2\n      swap1\n      pop\n      jump\t// out\n        /* \"#utility.yul\":2701:2839   */\n    tag_128:\n        /* \"#utility.yul\":2782:2814   */\n      tag_195\n        /* \"#utility.yul\":2808:2813   */\n      dup2\n        /* \"#utility.yul\":2782:2814   */\n      tag_127\n      jump\t// in\n    tag_195:\n        /* \"#utility.yul\":2775:2780   */\n      dup2\n        /* \"#utility.yul\":2772:2815   */\n      eq\n        /* \"#utility.yul\":2762:2833   */\n      tag_196\n      jumpi\n        /* \"#utility.yul\":2829:2830   */\n      0x00\n        /* \"#utility.yul\":2826:2827   */\n      dup1\n        /* \"#utility.yul\":2819:2831   */\n      revert\n        /* \"#utility.yul\":2762:2833   */\n    tag_196:\n        /* \"#utility.yul\":2701:2839   */\n      pop\n      jump\t// out\n        /* \"#utility.yul\":2845:3000   */\n    tag_129:\n        /* \"#utility.yul\":2899:2904   */\n      0x00\n        /* \"#utility.yul\":2937:2943   */\n      dup2\n        /* \"#utility.yul\":2924:2944   */\n      calldataload\n        /* \"#utility.yul\":2915:2944   */\n      swap1\n      pop\n        /* \"#utility.yul\":2953:2994   */\n      tag_198\n        /* \"#utility.yul\":2988:2993   */\n      dup2\n        /* \"#utility.yul\":2953:2994   */\n      tag_128\n      jump\t// in\n    tag_198:\n        /* \"#utility.yul\":2845:3000   */\n      swap3\n      swap2\n      pop\n      pop\n      jump\t// out\n        /* \"#utility.yul\":3006:3351   */\n    tag_18:\n        /* \"#utility.yul\":3073:3079   */\n      0x00\n        /* \"#utility.yul\":3122:3124   */\n      0x20\n        /* \"#utility.yul\":3110:3119   */\n      dup3\n        /* \"#utility.yul\":3101:3108   */\n      dup5\n        /* \"#utility.yul\":3097:3120   */\n      sub\n        /* \"#utility.yul\":3093:3125   */\n      slt\n        /* \"#utility.yul\":3090:3209   */\n      iszero\n      tag_200\n      jumpi\n        /* \"#utility.yul\":3128:3207   */\n      tag_201\n      tag_115\n      jump\t// in\n    tag_201:\n        /* \"#utility.yul\":3090:3209   */\n    tag_200:\n        /* \"#utility.yul\":3248:3249   */\n      0x00\n        /* \"#utility.yul\":3273:3334   */\n      tag_202\n        /* \"#utility.yul\":3326:3333   */\n      dup5\n        /* \"#utility.yul\":3317:3323   */\n      dup3\n        /* \"#utility.yul\":3306:3315   */\n      dup6\n        /* \"#utility.yul\":3302:3324   */\n      add\n        /* \"#utility.yul\":3273:3334   */\n      tag_129\n      jump\t// in\n    tag_202:\n        /* \"#utility.yul\":3263:3334   */\n      swap2\n      pop\n        /* \"#utility.yul\":3219:3344   */\n      pop\n        /* \"#utility.yul\":3006:3351   */\n      swap3\n      swap2\n      pop\n      pop\n      jump\t// out\n        /* \"#utility.yul\":3357:3475   */\n    tag_130:\n        /* \"#utility.yul\":3444:3468   */\n      tag_204\n        /* \"#utility.yul\":3462:3467   */\n      dup2\n        /* \"#utility.yul\":3444:3468   */\n      tag_118\n      jump\t// in\n    tag_204:\n        /* \"#utility.yul\":3439:3442   */\n      dup3\n        /* \"#utility.yul\":3432:3469   */\n      mstore\n        /* \"#utility.yul\":3357:3475   */\n      pop\n      pop\n      jump\t// out\n        /* \"#utility.yul\":3481:3703   */\n    tag_24:\n        /* \"#utility.yul\":3574:3578   */\n      0x00\n        /* \"#utility.yul\":3612:3614   */\n      0x20\n        /* \"#utility.yul\":3601:3610   */\n      dup3\n        /* \"#utility.yul\":3597:3615   */\n      add\n        /* \"#utility.yul\":3589:3615   */\n      swap1\n      pop\n        /* \"#utility.yul\":3625:3696   */\n      tag_206\n        /* \"#utility.yul\":3693:3694   */\n      0x00\n        /* \"#utility.yul\":3682:3691   */\n      dup4\n        /* \"#utility.yul\":3678:3695   */\n      add\n        /* \"#utility.yul\":3669:3675   */\n      dup5\n        /* \"#utility.yul\":3625:3696   */\n      tag_130\n      jump\t// in\n    tag_206:\n        /* \"#utility.yul\":3481:3703   */\n      swap3\n      swap2\n      pop\n      pop\n      jump\t// out\n        /* \"#utility.yul\":3709:3786   */\n    tag_131:\n        /* \"#utility.yul\":3746:3753   */\n      0x00\n        /* \"#utility.yul\":3775:3780   */\n      dup2\n        /* \"#utility.yul\":3764:3780   */\n      swap1\n      pop\n        /* \"#utility.yul\":3709:3786   */\n      swap2\n      swap1\n      pop\n      jump\t// out\n        /* \"#utility.yul\":3792:3914   */\n    tag_132:\n        /* \"#utility.yul\":3865:3889   */\n      tag_209\n        /* \"#utility.yul\":3883:3888   */\n      dup2\n        /* \"#utility.yul\":3865:3889   */\n      tag_131\n      jump\t// in\n    tag_209:\n        /* \"#utility.yul\":3858:3863   */\n      dup2\n        /* \"#utility.yul\":3855:3890   */\n      eq\n        /* \"#utility.yul\":3845:3908   */\n      tag_210\n      jumpi\n        /* \"#utility.yul\":3904:3905   */\n      0x00\n        /* \"#utility.yul\":3901:3902   */\n      dup1\n        /* \"#utility.yul\":3894:3906   */\n      revert\n        /* \"#utility.yul\":3845:3908   */\n    tag_210:\n        /* \"#utility.yul\":3792:3914   */\n      pop\n      jump\t// out\n        /* \"#utility.yul\":3920:4059   */\n    tag_133:\n        /* \"#utility.yul\":3966:3971   */\n      0x00\n        /* \"#utility.yul\":4004:4010   */\n      dup2\n        /* \"#utility.yul\":3991:4011   */\n      calldataload\n        /* \"#utility.yul\":3982:4011   */\n      swap1\n      pop\n        /* \"#utility.yul\":4020:4053   */\n      tag_212\n        /* \"#utility.yul\":4047:4052   */\n      dup2\n        /* \"#utility.yul\":4020:4053   */\n      tag_132\n      jump\t// in\n    tag_212:\n        /* \"#utility.yul\":3920:4059   */\n      swap3\n      swap2\n      pop\n      pop\n      jump\t// out\n        /* \"#utility.yul\":4065:4394   */\n    tag_28:\n        /* \"#utility.yul\":4124:4130   */\n      0x00\n        /* \"#utility.yul\":4173:4175   */\n      0x20\n        /* \"#utility.yul\":4161:4170   */\n      dup3\n        /* \"#utility.yul\":4152:4159   */\n      dup5\n        /* \"#utility.yul\":4148:4171   */\n      sub\n        /* \"#utility.yul\":4144:4176   */\n      slt\n        /* \"#utility.yul\":4141:4260   */\n      iszero\n      tag_214\n      jumpi\n        /* \"#utility.yul\":4179:4258   */\n      tag_215\n      tag_115\n      jump\t// in\n    tag_215:\n        /* \"#utility.yul\":4141:4260   */\n    tag_214:\n        /* \"#utility.yul\":4299:4300   */\n      0x00\n        /* \"#utility.yul\":4324:4377   */\n      tag_216\n        /* \"#utility.yul\":4369:4376   */\n      dup5\n        /* \"#utility.yul\":4360:4366   */\n      dup3\n        /* \"#utility.yul\":4349:4358   */\n      dup6\n        /* \"#utility.yul\":4345:4367   */\n      add\n        /* \"#utility.yul\":4324:4377   */\n      tag_133\n      jump\t// in\n    tag_216:\n        /* \"#utility.yul\":4314:4377   */\n      swap2\n      pop\n        /* \"#utility.yul\":4270:4387   */\n      pop\n        /* \"#utility.yul\":4065:4394   */\n      swap3\n      swap2\n      pop\n      pop\n      jump\t// out\n        /* \"#utility.yul\":4400:4514   */\n    tag_134:\n        /* \"#utility.yul\":4467:4473   */\n      0x00\n        /* \"#utility.yul\":4501:4506   */\n      dup2\n        /* \"#utility.yul\":4495:4507   */\n      mload\n        /* \"#utility.yul\":4485:4507   */\n      swap1\n      pop\n        /* \"#utility.yul\":4400:4514   */\n      swap2\n      swap1\n      pop\n      jump\t// out\n        /* \"#utility.yul\":4520:4704   */\n    tag_135:\n        /* \"#utility.yul\":4619:4630   */\n      0x00\n        /* \"#utility.yul\":4653:4659   */\n      dup3\n        /* \"#utility.yul\":4648:4651   */\n      dup3\n        /* \"#utility.yul\":4641:4660   */\n      mstore\n        /* \"#utility.yul\":4693:4697   */\n      0x20\n        /* \"#utility.yul\":4688:4691   */\n      dup3\n        /* \"#utility.yul\":4684:4698   */\n      add\n        /* \"#utility.yul\":4669:4698   */\n      swap1\n      pop\n        /* \"#utility.yul\":4520:4704   */\n      swap3\n      swap2\n      pop\n      pop\n      jump\t// out\n        /* \"#utility.yul\":4710:4842   */\n    tag_136:\n        /* \"#utility.yul\":4777:4781   */\n      0x00\n        /* \"#utility.yul\":4800:4803   */\n      dup2\n        /* \"#utility.yul\":4792:4803   */\n      swap1\n      pop\n        /* \"#utility.yul\":4830:4834   */\n      0x20\n        /* \"#utility.yul\":4825:4828   */\n      dup3\n        /* \"#utility.yul\":4821:4835   */\n      add\n        /* \"#utility.yul\":4813:4835   */\n      swap1\n      pop\n        /* \"#utility.yul\":4710:4842   */\n      swap2\n      swap1\n      pop\n      jump\t// out\n        /* \"#utility.yul\":4848:4956   */\n    tag_137:\n        /* \"#utility.yul\":4925:4949   */\n      tag_221\n        /* \"#utility.yul\":4943:4948   */\n      dup2\n        /* \"#utility.yul\":4925:4949   */\n      tag_118\n      jump\t// in\n    tag_221:\n        /* \"#utility.yul\":4920:4923   */\n      dup3\n        /* \"#utility.yul\":4913:4950   */\n      mstore\n        /* \"#utility.yul\":4848:4956   */\n      pop\n      pop\n      jump\t// out\n        /* \"#utility.yul\":4962:5141   */\n    tag_138:\n        /* \"#utility.yul\":5031:5041   */\n      0x00\n        /* \"#utility.yul\":5052:5098   */\n      tag_223\n        /* \"#utility.yul\":5094:5097   */\n      dup4\n        /* \"#utility.yul\":5086:5092   */\n      dup4\n        /* \"#utility.yul\":5052:5098   */\n      tag_137\n      jump\t// in\n    tag_223:\n        /* \"#utility.yul\":5130:5134   */\n      0x20\n        /* \"#utility.yul\":5125:5128   */\n      dup4\n        /* \"#utility.yul\":5121:5135   */\n      add\n        /* \"#utility.yul\":5107:5135   */\n      swap1\n      pop\n        /* \"#utility.yul\":4962:5141   */\n      swap3\n      swap2\n      pop\n      pop\n      jump\t// out\n        /* \"#utility.yul\":5147:5260   */\n    tag_139:\n        /* \"#utility.yul\":5217:5221   */\n      0x00\n        /* \"#utility.yul\":5249:5253   */\n      0x20\n        /* \"#utility.yul\":5244:5247   */\n      dup3\n        /* \"#utility.yul\":5240:5254   */\n      add\n        /* \"#utility.yul\":5232:5254   */\n      swap1\n      pop\n        /* \"#utility.yul\":5147:5260   */\n      swap2\n      swap1\n      pop\n      jump\t// out\n        /* \"#utility.yul\":5296:6028   */\n    tag_140:\n        /* \"#utility.yul\":5415:5418   */\n      0x00\n        /* \"#utility.yul\":5444:5498   */\n      tag_226\n        /* \"#utility.yul\":5492:5497   */\n      dup3\n        /* \"#utility.yul\":5444:5498   */\n      tag_134\n      jump\t// in\n    tag_226:\n        /* \"#utility.yul\":5514:5600   */\n      tag_227\n        /* \"#utility.yul\":5593:5599   */\n      dup2\n        /* \"#utility.yul\":5588:5591   */\n      dup6\n        /* \"#utility.yul\":5514:5600   */\n      tag_135\n      jump\t// in\n    tag_227:\n        /* \"#utility.yul\":5507:5600   */\n      swap4\n      pop\n        /* \"#utility.yul\":5624:5680   */\n      tag_228\n        /* \"#utility.yul\":5674:5679   */\n      dup4\n        /* \"#utility.yul\":5624:5680   */\n      tag_136\n      jump\t// in\n    tag_228:\n        /* \"#utility.yul\":5703:5710   */\n      dup1\n        /* \"#utility.yul\":5734:5735   */\n      0x00\n        /* \"#utility.yul\":5719:6003   */\n    tag_229:\n        /* \"#utility.yul\":5744:5750   */\n      dup4\n        /* \"#utility.yul\":5741:5742   */\n      dup2\n        /* \"#utility.yul\":5738:5751   */\n      lt\n        /* \"#utility.yul\":5719:6003   */\n      iszero\n      tag_231\n      jumpi\n        /* \"#utility.yul\":5820:5826   */\n      dup2\n        /* \"#utility.yul\":5814:5827   */\n      mload\n        /* \"#utility.yul\":5847:5910   */\n      tag_232\n        /* \"#utility.yul\":5906:5909   */\n      dup9\n        /* \"#utility.yul\":5891:5904   */\n      dup3\n        /* \"#utility.yul\":5847:5910   */\n      tag_138\n      jump\t// in\n    tag_232:\n        /* \"#utility.yul\":5840:5910   */\n      swap8\n      pop\n        /* \"#utility.yul\":5933:5993   */\n      tag_233\n        /* \"#utility.yul\":5986:5992   */\n      dup4\n        /* \"#utility.yul\":5933:5993   */\n      tag_139\n      jump\t// in\n    tag_233:\n        /* \"#utility.yul\":5923:5993   */\n      swap3\n      pop\n        /* \"#utility.yul\":5779:6003   */\n      pop\n        /* \"#utility.yul\":5766:5767   */\n      0x01\n        /* \"#utility.yul\":5763:5764   */\n      dup2\n        /* \"#utility.yul\":5759:5768   */\n      add\n        /* \"#utility.yul\":5754:5768   */\n      swap1\n      pop\n        /* \"#utility.yul\":5719:6003   */\n      jump(tag_229)\n    tag_231:\n        /* \"#utility.yul\":5723:5737   */\n      pop\n        /* \"#utility.yul\":6019:6022   */\n      dup6\n        /* \"#utility.yul\":6012:6022   */\n      swap4\n      pop\n        /* \"#utility.yul\":5420:6028   */\n      pop\n      pop\n      pop\n        /* \"#utility.yul\":5296:6028   */\n      swap3\n      swap2\n      pop\n      pop\n      jump\t// out\n        /* \"#utility.yul\":6034:6407   */\n    tag_35:\n        /* \"#utility.yul\":6177:6181   */\n      0x00\n        /* \"#utility.yul\":6215:6217   */\n      0x20\n        /* \"#utility.yul\":6204:6213   */\n      dup3\n        /* \"#utility.yul\":6200:6218   */\n      add\n        /* \"#utility.yul\":6192:6218   */\n      swap1\n      pop\n        /* \"#utility.yul\":6264:6273   */\n      dup2\n        /* \"#utility.yul\":6258:6262   */\n      dup2\n        /* \"#utility.yul\":6254:6274   */\n      sub\n        /* \"#utility.yul\":6250:6251   */\n      0x00\n        /* \"#utility.yul\":6239:6248   */\n      dup4\n        /* \"#utility.yul\":6235:6252   */\n      add\n        /* \"#utility.yul\":6228:6275   */\n      mstore\n        /* \"#utility.yul\":6292:6400   */\n      tag_235\n        /* \"#utility.yul\":6395:6399   */\n      dup2\n        /* \"#utility.yul\":6386:6392   */\n      dup5\n        /* \"#utility.yul\":6292:6400   */\n      tag_140\n      jump\t// in\n    tag_235:\n        /* \"#utility.yul\":6284:6400   */\n      swap1\n      pop\n        /* \"#utility.yul\":6034:6407   */\n      swap3\n      swap2\n      pop\n      pop\n      jump\t// out\n        /* \"#utility.yul\":6413:6742   */\n    tag_43:\n        /* \"#utility.yul\":6472:6478   */\n      0x00\n        /* \"#utility.yul\":6521:6523   */\n      0x20\n        /* \"#utility.yul\":6509:6518   */\n      dup3\n        /* \"#utility.yul\":6500:6507   */\n      dup5\n        /* \"#utility.yul\":6496:6519   */\n      sub\n        /* \"#utility.yul\":6492:6524   */\n      slt\n        /* \"#utility.yul\":6489:6608   */\n      iszero\n      tag_237\n      jumpi\n        /* \"#utility.yul\":6527:6606   */\n      tag_238\n      tag_115\n      jump\t// in\n    tag_238:\n        /* \"#utility.yul\":6489:6608   */\n    tag_237:\n        /* \"#utility.yul\":6647:6648   */\n      0x00\n        /* \"#utility.yul\":6672:6725   */\n      tag_239\n        /* \"#utility.yul\":6717:6724   */\n      dup5\n        /* \"#utility.yul\":6708:6714   */\n      dup3\n        /* \"#utility.yul\":6697:6706   */\n      dup6\n        /* \"#utility.yul\":6693:6715   */\n      add\n        /* \"#utility.yul\":6672:6725   */\n      tag_120\n      jump\t// in\n    tag_239:\n        /* \"#utility.yul\":6662:6725   */\n      swap2\n      pop\n        /* \"#utility.yul\":6618:6735   */\n      pop\n        /* \"#utility.yul\":6413:6742   */\n      swap3\n      swap2\n      pop\n      pop\n      jump\t// out\n        /* \"#utility.yul\":6748:6857   */\n    tag_141:\n        /* \"#utility.yul\":6829:6850   */\n      tag_241\n        /* \"#utility.yul\":6844:6849   */\n      dup2\n        /* \"#utility.yul\":6829:6850   */\n      tag_121\n      jump\t// in\n    tag_241:\n        /* \"#utility.yul\":6824:6827   */\n      dup3\n        /* \"#utility.yul\":6817:6851   */\n      mstore\n        /* \"#utility.yul\":6748:6857   */\n      pop\n      pop\n      jump\t// out\n        /* \"#utility.yul\":6863:6981   */\n    tag_142:\n        /* \"#utility.yul\":6950:6974   */\n      tag_243\n        /* \"#utility.yul\":6968:6973   */\n      dup2\n        /* \"#utility.yul\":6950:6974   */\n      tag_131\n      jump\t// in\n    tag_243:\n        /* \"#utility.yul\":6945:6948   */\n      dup3\n        /* \"#utility.yul\":6938:6975   */\n      mstore\n        /* \"#utility.yul\":6863:6981   */\n      pop\n      pop\n      jump\t// out\n        /* \"#utility.yul\":6987:7099   */\n    tag_143:\n        /* \"#utility.yul\":7070:7092   */\n      tag_245\n        /* \"#utility.yul\":7086:7091   */\n      dup2\n        /* \"#utility.yul\":7070:7092   */\n      tag_124\n      jump\t// in\n    tag_245:\n        /* \"#utility.yul\":7065:7068   */\n      dup3\n        /* \"#utility.yul\":7058:7093   */\n      mstore\n        /* \"#utility.yul\":6987:7099   */\n      pop\n      pop\n      jump\t// out\n        /* \"#utility.yul\":7105:7828   */\n    tag_46:\n        /* \"#utility.yul\":7312:7316   */\n      0x00\n        /* \"#utility.yul\":7350:7353   */\n      0xc0\n        /* \"#utility.yul\":7339:7348   */\n      dup3\n        /* \"#utility.yul\":7335:7354   */\n      add\n        /* \"#utility.yul\":7327:7354   */\n      swap1\n      pop\n        /* \"#utility.yul\":7364:7429   */\n      tag_247\n        /* \"#utility.yul\":7426:7427   */\n      0x00\n        /* \"#utility.yul\":7415:7424   */\n      dup4\n        /* \"#utility.yul\":7411:7428   */\n      add\n        /* \"#utility.yul\":7402:7408   */\n      dup10\n        /* \"#utility.yul\":7364:7429   */\n      tag_141\n      jump\t// in\n    tag_247:\n        /* \"#utility.yul\":7439:7505   */\n      tag_248\n        /* \"#utility.yul\":7501:7503   */\n      0x20\n        /* \"#utility.yul\":7490:7499   */\n      dup4\n        /* \"#utility.yul\":7486:7504   */\n      add\n        /* \"#utility.yul\":7477:7483   */\n      dup9\n        /* \"#utility.yul\":7439:7505   */\n      tag_141\n      jump\t// in\n    tag_248:\n        /* \"#utility.yul\":7515:7581   */\n      tag_249\n        /* \"#utility.yul\":7577:7579   */\n      0x40\n        /* \"#utility.yul\":7566:7575   */\n      dup4\n        /* \"#utility.yul\":7562:7580   */\n      add\n        /* \"#utility.yul\":7553:7559   */\n      dup8\n        /* \"#utility.yul\":7515:7581   */\n      tag_141\n      jump\t// in\n    tag_249:\n        /* \"#utility.yul\":7591:7663   */\n      tag_250\n        /* \"#utility.yul\":7659:7661   */\n      0x60\n        /* \"#utility.yul\":7648:7657   */\n      dup4\n        /* \"#utility.yul\":7644:7662   */\n      add\n        /* \"#utility.yul\":7635:7641   */\n      dup7\n        /* \"#utility.yul\":7591:7663   */\n      tag_142\n      jump\t// in\n    tag_250:\n        /* \"#utility.yul\":7673:7742   */\n      tag_251\n        /* \"#utility.yul\":7737:7740   */\n      0x80\n        /* \"#utility.yul\":7726:7735   */\n      dup4\n        /* \"#utility.yul\":7722:7741   */\n      add\n        /* \"#utility.yul\":7713:7719   */\n      dup6\n        /* \"#utility.yul\":7673:7742   */\n      tag_143\n      jump\t// in\n    tag_251:\n        /* \"#utility.yul\":7752:7821   */\n      tag_252\n        /* \"#utility.yul\":7816:7819   */\n      0xa0\n        /* \"#utility.yul\":7805:7814   */\n      dup4\n        /* \"#utility.yul\":7801:7820   */\n      add\n        /* \"#utility.yul\":7792:7798   */\n      dup5\n        /* \"#utility.yul\":7752:7821   */\n      tag_143\n      jump\t// in\n    tag_252:\n        /* \"#utility.yul\":7105:7828   */\n      swap8\n      swap7\n      pop\n      pop\n      pop\n      pop\n      pop\n      pop\n      pop\n      jump\t// out\n        /* \"#utility.yul\":7834:8296   */\n    tag_50:\n        /* \"#utility.yul\":7896:7902   */\n      0x00\n        /* \"#utility.yul\":7904:7910   */\n      dup1\n        /* \"#utility.yul\":7953:7955   */\n      0x40\n        /* \"#utility.yul\":7941:7950   */\n      dup4\n        /* \"#utility.yul\":7932:7939   */\n      dup6\n        /* \"#utility.yul\":7928:7951   */\n      sub\n        /* \"#utility.yul\":7924:7956   */\n      slt\n        /* \"#utility.yul\":7921:8040   */\n      iszero\n      tag_254\n      jumpi\n        /* \"#utility.yul\":7959:8038   */\n      tag_255\n      tag_115\n      jump\t// in\n    tag_255:\n        /* \"#utility.yul\":7921:8040   */\n    tag_254:\n        /* \"#utility.yul\":8079:8080   */\n      0x00\n        /* \"#utility.yul\":8104:8154   */\n      tag_256\n        /* \"#utility.yul\":8146:8153   */\n      dup6\n        /* \"#utility.yul\":8137:8143   */\n      dup3\n        /* \"#utility.yul\":8126:8135   */\n      dup7\n        /* \"#utility.yul\":8122:8144   */\n      add\n        /* \"#utility.yul\":8104:8154   */\n      tag_123\n      jump\t// in\n    tag_256:\n        /* \"#utility.yul\":8094:8154   */\n      swap3\n      pop\n        /* \"#utility.yul\":8050:8164   */\n      pop\n        /* \"#utility.yul\":8203:8205   */\n      0x20\n        /* \"#utility.yul\":8229:8279   */\n      tag_257\n        /* \"#utility.yul\":8271:8278   */\n      dup6\n        /* \"#utility.yul\":8262:8268   */\n      dup3\n        /* \"#utility.yul\":8251:8260   */\n      dup7\n        /* \"#utility.yul\":8247:8269   */\n      add\n        /* \"#utility.yul\":8229:8279   */\n      tag_123\n      jump\t// in\n    tag_257:\n        /* \"#utility.yul\":8219:8279   */\n      swap2\n      pop\n        /* \"#utility.yul\":8174:8289   */\n      pop\n        /* \"#utility.yul\":7834:8296   */\n      swap3\n      pop\n      swap3\n      swap1\n      pop\n      jump\t// out\n        /* \"#utility.yul\":8302:8471   */\n    tag_144:\n        /* \"#utility.yul\":8386:8397   */\n      0x00\n        /* \"#utility.yul\":8420:8426   */\n      dup3\n        /* \"#utility.yul\":8415:8418   */\n      dup3\n        /* \"#utility.yul\":8408:8427   */\n      mstore\n        /* \"#utility.yul\":8460:8464   */\n      0x20\n        /* \"#utility.yul\":8455:8458   */\n      dup3\n        /* \"#utility.yul\":8451:8465   */\n      add\n        /* \"#utility.yul\":8436:8465   */\n      swap1\n      pop\n        /* \"#utility.yul\":8302:8471   */\n      swap3\n      swap2\n      pop\n      pop\n      jump\t// out\n        /* \"#utility.yul\":8477:8706   */\n    tag_145:\n        /* \"#utility.yul\":8617:8651   */\n      0x4f6e6c7920656d706c6f79656572206861732061636365737320746f20746869\n        /* \"#utility.yul\":8613:8614   */\n      0x00\n        /* \"#utility.yul\":8605:8611   */\n      dup3\n        /* \"#utility.yul\":8601:8615   */\n      add\n        /* \"#utility.yul\":8594:8652   */\n      mstore\n        /* \"#utility.yul\":8686:8698   */\n      0x732066756e6374696f6e00000000000000000000000000000000000000000000\n        /* \"#utility.yul\":8681:8683   */\n      0x20\n        /* \"#utility.yul\":8673:8679   */\n      dup3\n        /* \"#utility.yul\":8669:8684   */\n      add\n        /* \"#utility.yul\":8662:8699   */\n      mstore\n        /* \"#utility.yul\":8477:8706   */\n      pop\n      jump\t// out\n        /* \"#utility.yul\":8712:9078   */\n    tag_146:\n        /* \"#utility.yul\":8854:8857   */\n      0x00\n        /* \"#utility.yul\":8875:8942   */\n      tag_261\n        /* \"#utility.yul\":8939:8941   */\n      0x2a\n        /* \"#utility.yul\":8934:8937   */\n      dup4\n        /* \"#utility.yul\":8875:8942   */\n      tag_144\n      jump\t// in\n    tag_261:\n        /* \"#utility.yul\":8868:8942   */\n      swap2\n      pop\n        /* \"#utility.yul\":8951:9044   */\n      tag_262\n        /* \"#utility.yul\":9040:9043   */\n      dup3\n        /* \"#utility.yul\":8951:9044   */\n      tag_145\n      jump\t// in\n    tag_262:\n        /* \"#utility.yul\":9069:9071   */\n      0x40\n        /* \"#utility.yul\":9064:9067   */\n      dup3\n        /* \"#utility.yul\":9060:9072   */\n      add\n        /* \"#utility.yul\":9053:9072   */\n      swap1\n      pop\n        /* \"#utility.yul\":8712:9078   */\n      swap2\n      swap1\n      pop\n      jump\t// out\n        /* \"#utility.yul\":9084:9503   */\n    tag_55:\n        /* \"#utility.yul\":9250:9254   */\n      0x00\n        /* \"#utility.yul\":9288:9290   */\n      0x20\n        /* \"#utility.yul\":9277:9286   */\n      dup3\n        /* \"#utility.yul\":9273:9291   */\n      add\n        /* \"#utility.yul\":9265:9291   */\n      swap1\n      pop\n        /* \"#utility.yul\":9337:9346   */\n      dup2\n        /* \"#utility.yul\":9331:9335   */\n      dup2\n        /* \"#utility.yul\":9327:9347   */\n      sub\n        /* \"#utility.yul\":9323:9324   */\n      0x00\n        /* \"#utility.yul\":9312:9321   */\n      dup4\n        /* \"#utility.yul\":9308:9325   */\n      add\n        /* \"#utility.yul\":9301:9348   */\n      mstore\n        /* \"#utility.yul\":9365:9496   */\n      tag_264\n        /* \"#utility.yul\":9491:9495   */\n      dup2\n        /* \"#utility.yul\":9365:9496   */\n      tag_146\n      jump\t// in\n    tag_264:\n        /* \"#utility.yul\":9357:9496   */\n      swap1\n      pop\n        /* \"#utility.yul\":9084:9503   */\n      swap2\n      swap1\n      pop\n      jump\t// out\n        /* \"#utility.yul\":9509:9689   */\n    tag_65:\n        /* \"#utility.yul\":9557:9634   */\n      0x4e487b7100000000000000000000000000000000000000000000000000000000\n        /* \"#utility.yul\":9554:9555   */\n      0x00\n        /* \"#utility.yul\":9547:9635   */\n      mstore\n        /* \"#utility.yul\":9654:9658   */\n      0x32\n        /* \"#utility.yul\":9651:9652   */\n      0x04\n        /* \"#utility.yul\":9644:9659   */\n      mstore\n        /* \"#utility.yul\":9678:9682   */\n      0x24\n        /* \"#utility.yul\":9675:9676   */\n      0x00\n        /* \"#utility.yul\":9668:9683   */\n      revert\n        /* \"#utility.yul\":9695:9875   */\n    tag_147:\n        /* \"#utility.yul\":9743:9820   */\n      0x4e487b7100000000000000000000000000000000000000000000000000000000\n        /* \"#utility.yul\":9740:9741   */\n      0x00\n        /* \"#utility.yul\":9733:9821   */\n      mstore\n        /* \"#utility.yul\":9840:9844   */\n      0x11\n        /* \"#utility.yul\":9837:9838   */\n      0x04\n        /* \"#utility.yul\":9830:9845   */\n      mstore\n        /* \"#utility.yul\":9864:9868   */\n      0x24\n        /* \"#utility.yul\":9861:9862   */\n      0x00\n        /* \"#utility.yul\":9854:9869   */\n      revert\n        /* \"#utility.yul\":9881:10114   */\n    tag_69:\n        /* \"#utility.yul\":9920:9923   */\n      0x00\n        /* \"#utility.yul\":9943:9967   */\n      tag_268\n        /* \"#utility.yul\":9961:9966   */\n      dup3\n        /* \"#utility.yul\":9943:9967   */\n      tag_131\n      jump\t// in\n    tag_268:\n        /* \"#utility.yul\":9934:9967   */\n      swap2\n      pop\n        /* \"#utility.yul\":9989:10055   */\n      0xffffffffffffffffffffffffffffffffffffffffffffffffffffffffffffffff\n        /* \"#utility.yul\":9982:9987   */\n      dup3\n        /* \"#utility.yul\":9979:10056   */\n      sub\n        /* \"#utility.yul\":9976:10079   */\n      tag_269\n      jumpi\n        /* \"#utility.yul\":10059:10077   */\n      tag_270\n      tag_147\n      jump\t// in\n    tag_270:\n        /* \"#utility.yul\":9976:10079   */\n    tag_269:\n        /* \"#utility.yul\":10106:10107   */\n      0x01\n        /* \"#utility.yul\":10099:10104   */\n      dup3\n        /* \"#utility.yul\":10095:10108   */\n      add\n        /* \"#utility.yul\":10088:10108   */\n      swap1\n      pop\n        /* \"#utility.yul\":9881:10114   */\n      swap2\n      swap1\n      pop\n      jump\t// out\n        /* \"#utility.yul\":10120:10354   */\n    tag_148:\n        /* \"#utility.yul\":10260:10294   */\n      0x4f6e6c7920616e2020656d706c6f796565206861732061636365737320746f20\n        /* \"#utility.yul\":10256:10257   */\n      0x00\n        /* \"#utility.yul\":10248:10254   */\n      dup3\n        /* \"#utility.yul\":10244:10258   */\n      add\n        /* \"#utility.yul\":10237:10295   */\n      mstore\n        /* \"#utility.yul\":10329:10346   */\n      0x746869732066756e6374696f6e5f320000000000000000000000000000000000\n        /* \"#utility.yul\":10324:10326   */\n      0x20\n        /* \"#utility.yul\":10316:10322   */\n      dup3\n        /* \"#utility.yul\":10312:10327   */\n      add\n        /* \"#utility.yul\":10305:10347   */\n      mstore\n        /* \"#utility.yul\":10120:10354   */\n      pop\n      jump\t// out\n        /* \"#utility.yul\":10360:10726   */\n    tag_149:\n        /* \"#utility.yul\":10502:10505   */\n      0x00\n        /* \"#utility.yul\":10523:10590   */\n      tag_273\n        /* \"#utility.yul\":10587:10589   */\n      0x2f\n        /* \"#utility.yul\":10582:10585   */\n      dup4\n        /* \"#utility.yul\":10523:10590   */\n      tag_144\n      jump\t// in\n    tag_273:\n        /* \"#utility.yul\":10516:10590   */\n      swap2\n      pop\n        /* \"#utility.yul\":10599:10692   */\n      tag_274\n        /* \"#utility.yul\":10688:10691   */\n      dup3\n        /* \"#utility.yul\":10599:10692   */\n      tag_148\n      jump\t// in\n    tag_274:\n        /* \"#utility.yul\":10717:10719   */\n      0x40\n        /* \"#utility.yul\":10712:10715   */\n      dup3\n        /* \"#utility.yul\":10708:10720   */\n      add\n        /* \"#utility.yul\":10701:10720   */\n      swap1\n      pop\n        /* \"#utility.yul\":10360:10726   */\n      swap2\n      swap1\n      pop\n      jump\t// out\n        /* \"#utility.yul\":10732:11151   */\n    tag_72:\n        /* \"#utility.yul\":10898:10902   */\n      0x00\n        /* \"#utility.yul\":10936:10938   */\n      0x20\n        /* \"#utility.yul\":10925:10934   */\n      dup3\n        /* \"#utility.yul\":10921:10939   */\n      add\n        /* \"#utility.yul\":10913:10939   */\n      swap1\n      pop\n        /* \"#utility.yul\":10985:10994   */\n      dup2\n        /* \"#utility.yul\":10979:10983   */\n      dup2\n        /* \"#utility.yul\":10975:10995   */\n      sub\n        /* \"#utility.yul\":10971:10972   */\n      0x00\n        /* \"#utility.yul\":10960:10969   */\n      dup4\n        /* \"#utility.yul\":10956:10973   */\n      add\n        /* \"#utility.yul\":10949:10996   */\n      mstore\n        /* \"#utility.yul\":11013:11144   */\n      tag_276\n        /* \"#utility.yul\":11139:11143   */\n      dup2\n        /* \"#utility.yul\":11013:11144   */\n      tag_149\n      jump\t// in\n    tag_276:\n        /* \"#utility.yul\":11005:11144   */\n      swap1\n      pop\n        /* \"#utility.yul\":10732:11151   */\n      swap2\n      swap1\n      pop\n      jump\t// out\n        /* \"#utility.yul\":11157:11447   */\n    tag_150:\n        /* \"#utility.yul\":11297:11331   */\n      0x54686520656d706c6f79656520646964206e6f742072656d61696e20696e2063\n        /* \"#utility.yul\":11293:11294   */\n      0x00\n        /* \"#utility.yul\":11285:11291   */\n      dup3\n        /* \"#utility.yul\":11281:11295   */\n      add\n        /* \"#utility.yul\":11274:11332   */\n      mstore\n        /* \"#utility.yul\":11366:11400   */\n      0x6f6d706c69616e6365207769746820616c6c207468652061677265656d656e74\n        /* \"#utility.yul\":11361:11363   */\n      0x20\n        /* \"#utility.yul\":11353:11359   */\n      dup3\n        /* \"#utility.yul\":11349:11364   */\n      add\n        /* \"#utility.yul\":11342:11401   */\n      mstore\n        /* \"#utility.yul\":11435:11439   */\n      0x732e000000000000000000000000000000000000000000000000000000000000\n        /* \"#utility.yul\":11430:11432   */\n      0x40\n        /* \"#utility.yul\":11422:11428   */\n      dup3\n        /* \"#utility.yul\":11418:11433   */\n      add\n        /* \"#utility.yul\":11411:11440   */\n      mstore\n        /* \"#utility.yul\":11157:11447   */\n      pop\n      jump\t// out\n        /* \"#utility.yul\":11453:11819   */\n    tag_151:\n        /* \"#utility.yul\":11595:11598   */\n      0x00\n        /* \"#utility.yul\":11616:11683   */\n      tag_279\n        /* \"#utility.yul\":11680:11682   */\n      0x42\n        /* \"#utility.yul\":11675:11678   */\n      dup4\n        /* \"#utility.yul\":11616:11683   */\n      tag_144\n      jump\t// in\n    tag_279:\n        /* \"#utility.yul\":11609:11683   */\n      swap2\n      pop\n        /* \"#utility.yul\":11692:11785   */\n      tag_280\n        /* \"#utility.yul\":11781:11784   */\n      dup3\n        /* \"#utility.yul\":11692:11785   */\n      tag_150\n      jump\t// in\n    tag_280:\n        /* \"#utility.yul\":11810:11812   */\n      0x60\n        /* \"#utility.yul\":11805:11808   */\n      dup3\n        /* \"#utility.yul\":11801:11813   */\n      add\n        /* \"#utility.yul\":11794:11813   */\n      swap1\n      pop\n        /* \"#utility.yul\":11453:11819   */\n      swap2\n      swap1\n      pop\n      jump\t// out\n        /* \"#utility.yul\":11825:12244   */\n    tag_76:\n        /* \"#utility.yul\":11991:11995   */\n      0x00\n        /* \"#utility.yul\":12029:12031   */\n      0x20\n        /* \"#utility.yul\":12018:12027   */\n      dup3\n        /* \"#utility.yul\":12014:12032   */\n      add\n        /* \"#utility.yul\":12006:12032   */\n      swap1\n      pop\n        /* \"#utility.yul\":12078:12087   */\n      dup2\n        /* \"#utility.yul\":12072:12076   */\n      dup2\n        /* \"#utility.yul\":12068:12088   */\n      sub\n        /* \"#utility.yul\":12064:12065   */\n      0x00\n        /* \"#utility.yul\":12053:12062   */\n      dup4\n        /* \"#utility.yul\":12049:12066   */\n      add\n        /* \"#utility.yul\":12042:12089   */\n      mstore\n        /* \"#utility.yul\":12106:12237   */\n      tag_282\n        /* \"#utility.yul\":12232:12236   */\n      dup2\n        /* \"#utility.yul\":12106:12237   */\n      tag_151\n      jump\t// in\n    tag_282:\n        /* \"#utility.yul\":12098:12237   */\n      swap1\n      pop\n        /* \"#utility.yul\":11825:12244   */\n      swap2\n      swap1\n      pop\n      jump\t// out\n        /* \"#utility.yul\":12250:12420   */\n    tag_152:\n        /* \"#utility.yul\":12390:12412   */\n      0x4661696c656420746f2073656e64204574686572000000000000000000000000\n        /* \"#utility.yul\":12386:12387   */\n      0x00\n        /* \"#utility.yul\":12378:12384   */\n      dup3\n        /* \"#utility.yul\":12374:12388   */\n      add\n        /* \"#utility.yul\":12367:12413   */\n      mstore\n        /* \"#utility.yul\":12250:12420   */\n      pop\n      jump\t// out\n        /* \"#utility.yul\":12426:12792   */\n    tag_153:\n        /* \"#utility.yul\":12568:12571   */\n      0x00\n        /* \"#utility.yul\":12589:12656   */\n      tag_285\n        /* \"#utility.yul\":12653:12655   */\n      0x14\n        /* \"#utility.yul\":12648:12651   */\n      dup4\n        /* \"#utility.yul\":12589:12656   */\n      tag_144\n      jump\t// in\n    tag_285:\n        /* \"#utility.yul\":12582:12656   */\n      swap2\n      pop\n        /* \"#utility.yul\":12665:12758   */\n      tag_286\n        /* \"#utility.yul\":12754:12757   */\n      dup3\n        /* \"#utility.yul\":12665:12758   */\n      tag_152\n      jump\t// in\n    tag_286:\n        /* \"#utility.yul\":12783:12785   */\n      0x20\n        /* \"#utility.yul\":12778:12781   */\n      dup3\n        /* \"#utility.yul\":12774:12786   */\n      add\n        /* \"#utility.yul\":12767:12786   */\n      swap1\n      pop\n        /* \"#utility.yul\":12426:12792   */\n      swap2\n      swap1\n      pop\n      jump\t// out\n        /* \"#utility.yul\":12798:13217   */\n    tag_80:\n        /* \"#utility.yul\":12964:12968   */\n      0x00\n        /* \"#utility.yul\":13002:13004   */\n      0x20\n        /* \"#utility.yul\":12991:13000   */\n      dup3\n        /* \"#utility.yul\":12987:13005   */\n      add\n        /* \"#utility.yul\":12979:13005   */\n      swap1\n      pop\n        /* \"#utility.yul\":13051:13060   */\n      dup2\n        /* \"#utility.yul\":13045:13049   */\n      dup2\n        /* \"#utility.yul\":13041:13061   */\n      sub\n        /* \"#utility.yul\":13037:13038   */\n      0x00\n        /* \"#utility.yul\":13026:13035   */\n      dup4\n        /* \"#utility.yul\":13022:13039   */\n      add\n        /* \"#utility.yul\":13015:13062   */\n      mstore\n        /* \"#utility.yul\":13079:13210   */\n      tag_288\n        /* \"#utility.yul\":13205:13209   */\n      dup2\n        /* \"#utility.yul\":13079:13210   */\n      tag_153\n      jump\t// in\n    tag_288:\n        /* \"#utility.yul\":13071:13210   */\n      swap1\n      pop\n        /* \"#utility.yul\":12798:13217   */\n      swap2\n      swap1\n      pop\n      jump\t// out\n        /* \"#utility.yul\":13223:13411   */\n    tag_92:\n        /* \"#utility.yul\":13261:13264   */\n      0x00\n        /* \"#utility.yul\":13280:13298   */\n      tag_290\n        /* \"#utility.yul\":13296:13297   */\n      dup3\n        /* \"#utility.yul\":13280:13298   */\n      tag_124\n      jump\t// in\n    tag_290:\n        /* \"#utility.yul\":13275:13298   */\n      swap2\n      pop\n        /* \"#utility.yul\":13312:13330   */\n      tag_291\n        /* \"#utility.yul\":13328:13329   */\n      dup4\n        /* \"#utility.yul\":13312:13330   */\n      tag_124\n      jump\t// in\n    tag_291:\n        /* \"#utility.yul\":13307:13330   */\n      swap3\n      pop\n        /* \"#utility.yul\":13353:13354   */\n      dup3\n        /* \"#utility.yul\":13350:13351   */\n      dup3\n        /* \"#utility.yul\":13346:13355   */\n      add\n        /* \"#utility.yul\":13339:13355   */\n      swap1\n      pop\n        /* \"#utility.yul\":13376:13380   */\n      0xff\n        /* \"#utility.yul\":13371:13374   */\n      dup2\n        /* \"#utility.yul\":13368:13381   */\n      gt\n        /* \"#utility.yul\":13365:13404   */\n      iszero\n      tag_292\n      jumpi\n        /* \"#utility.yul\":13384:13402   */\n      tag_293\n      tag_147\n      jump\t// in\n    tag_293:\n        /* \"#utility.yul\":13365:13404   */\n    tag_292:\n        /* \"#utility.yul\":13223:13411   */\n      swap3\n      swap2\n      pop\n      pop\n      jump\t// out\n        /* \"#utility.yul\":13417:13723   */\n    tag_95:\n        /* \"#utility.yul\":13454:13458   */\n      0x00\n        /* \"#utility.yul\":13474:13491   */\n      tag_295\n        /* \"#utility.yul\":13489:13490   */\n      dup3\n        /* \"#utility.yul\":13474:13491   */\n      tag_121\n      jump\t// in\n    tag_295:\n        /* \"#utility.yul\":13469:13491   */\n      swap2\n      pop\n        /* \"#utility.yul\":13505:13522   */\n      tag_296\n        /* \"#utility.yul\":13520:13521   */\n      dup4\n        /* \"#utility.yul\":13505:13522   */\n      tag_121\n      jump\t// in\n    tag_296:\n        /* \"#utility.yul\":13500:13522   */\n      swap3\n      pop\n        /* \"#utility.yul\":13546:13547   */\n      dup3\n        /* \"#utility.yul\":13543:13544   */\n      dup3\n        /* \"#utility.yul\":13539:13548   */\n      sub\n        /* \"#utility.yul\":13531:13548   */\n      swap1\n      pop\n        /* \"#utility.yul\":13678:13682   */\n      0x7f\n        /* \"#utility.yul\":13672:13676   */\n      dup2\n        /* \"#utility.yul\":13668:13683   */\n      sgt\n        /* \"#utility.yul\":13587:13653   */\n      0xffffffffffffffffffffffffffffffffffffffffffffffffffffffffffffff80\n        /* \"#utility.yul\":13581:13585   */\n      dup3\n        /* \"#utility.yul\":13577:13654   */\n      slt\n        /* \"#utility.yul\":13561:13693   */\n      or\n        /* \"#utility.yul\":13558:13716   */\n      iszero\n      tag_297\n      jumpi\n        /* \"#utility.yul\":13696:13714   */\n      tag_298\n      tag_147\n      jump\t// in\n    tag_298:\n        /* \"#utility.yul\":13558:13716   */\n    tag_297:\n        /* \"#utility.yul\":13417:13723   */\n      swap3\n      swap2\n      pop\n      pop\n      jump\t// out\n        /* \"#utility.yul\":13729:13831   */\n    tag_154:\n        /* \"#utility.yul\":13771:13779   */\n      0x00\n        /* \"#utility.yul\":13818:13823   */\n      dup2\n        /* \"#utility.yul\":13815:13816   */\n      0x01\n        /* \"#utility.yul\":13811:13824   */\n      shr\n        /* \"#utility.yul\":13790:13824   */\n      swap1\n      pop\n        /* \"#utility.yul\":13729:13831   */\n      swap2\n      swap1\n      pop\n      jump\t// out\n        /* \"#utility.yul\":13837:14685   */\n    tag_155:\n        /* \"#utility.yul\":13898:13903   */\n      0x00\n        /* \"#utility.yul\":13905:13909   */\n      dup1\n        /* \"#utility.yul\":13929:13935   */\n      dup3\n        /* \"#utility.yul\":13920:13935   */\n      swap2\n      pop\n        /* \"#utility.yul\":13953:13958   */\n      dup4\n        /* \"#utility.yul\":13944:13958   */\n      swap1\n      pop\n        /* \"#utility.yul\":13967:14679   */\n    tag_301:\n        /* \"#utility.yul\":13988:13989   */\n      0x01\n        /* \"#utility.yul\":13978:13986   */\n      dup6\n        /* \"#utility.yul\":13975:13990   */\n      gt\n        /* \"#utility.yul\":13967:14679   */\n      iszero\n      tag_303\n      jumpi\n        /* \"#utility.yul\":14083:14087   */\n      dup1\n        /* \"#utility.yul\":14078:14081   */\n      dup7\n        /* \"#utility.yul\":14074:14088   */\n      div\n        /* \"#utility.yul\":14068:14072   */\n      dup2\n        /* \"#utility.yul\":14065:14089   */\n      gt\n        /* \"#utility.yul\":14062:14112   */\n      iszero\n      tag_304\n      jumpi\n        /* \"#utility.yul\":14092:14110   */\n      tag_305\n      tag_147\n      jump\t// in\n    tag_305:\n        /* \"#utility.yul\":14062:14112   */\n    tag_304:\n        /* \"#utility.yul\":14142:14143   */\n      0x01\n        /* \"#utility.yul\":14132:14140   */\n      dup6\n        /* \"#utility.yul\":14128:14144   */\n      and\n        /* \"#utility.yul\":14125:14576   */\n      iszero\n      tag_306\n      jumpi\n        /* \"#utility.yul\":14557:14561   */\n      dup1\n        /* \"#utility.yul\":14550:14555   */\n      dup3\n        /* \"#utility.yul\":14546:14562   */\n      mul\n        /* \"#utility.yul\":14537:14562   */\n      swap2\n      pop\n        /* \"#utility.yul\":14125:14576   */\n    tag_306:\n        /* \"#utility.yul\":14607:14611   */\n      dup1\n        /* \"#utility.yul\":14601:14605   */\n      dup2\n        /* \"#utility.yul\":14597:14612   */\n      mul\n        /* \"#utility.yul\":14589:14612   */\n      swap1\n      pop\n        /* \"#utility.yul\":14637:14669   */\n      tag_307\n        /* \"#utility.yul\":14660:14668   */\n      dup6\n        /* \"#utility.yul\":14637:14669   */\n      tag_154\n      jump\t// in\n    tag_307:\n        /* \"#utility.yul\":14625:14669   */\n      swap5\n      pop\n        /* \"#utility.yul\":13967:14679   */\n      jump(tag_301)\n    tag_303:\n        /* \"#utility.yul\":13837:14685   */\n      swap5\n      pop\n      swap5\n      swap3\n      pop\n      pop\n      pop\n      jump\t// out\n        /* \"#utility.yul\":14691:15916   */\n    tag_156:\n        /* \"#utility.yul\":14748:14753   */\n      0x00\n        /* \"#utility.yul\":14914:14922   */\n      dup3\n        /* \"#utility.yul\":14936:14937   */\n      0x00\n        /* \"#utility.yul\":14931:14958   */\n      dup2\n      eq\n      tag_310\n      jumpi\n        /* \"#utility.yul\":14972:14973   */\n      0x01\n        /* \"#utility.yul\":14967:14997   */\n      dup2\n      eq\n      tag_311\n      jumpi\n        /* \"#utility.yul\":14907:14997   */\n      jump(tag_309)\n        /* \"#utility.yul\":14931:14958   */\n    tag_310:\n        /* \"#utility.yul\":14949:14950   */\n      0x01\n        /* \"#utility.yul\":14940:14950   */\n      swap2\n      pop\n        /* \"#utility.yul\":14951:14956   */\n      pop\n      jump(tag_308)\n        /* \"#utility.yul\":14967:14997   */\n    tag_311:\n        /* \"#utility.yul\":14985:14989   */\n      dup3\n        /* \"#utility.yul\":14976:14989   */\n      swap2\n      pop\n        /* \"#utility.yul\":14990:14995   */\n      pop\n      jump(tag_308)\n        /* \"#utility.yul\":14907:14997   */\n    tag_309:\n      pop\n        /* \"#utility.yul\":15016:15020   */\n      dup2\n        /* \"#utility.yul\":15006:15042   */\n      tag_312\n      jumpi\n        /* \"#utility.yul\":15033:15034   */\n      0x00\n        /* \"#utility.yul\":15024:15034   */\n      swap1\n      pop\n        /* \"#utility.yul\":15035:15040   */\n      jump(tag_308)\n        /* \"#utility.yul\":15006:15042   */\n    tag_312:\n        /* \"#utility.yul\":15061:15062   */\n      0x01\n        /* \"#utility.yul\":15052:15062   */\n      swap1\n      pop\n        /* \"#utility.yul\":15284:15285   */\n      0x00\n        /* \"#utility.yul\":15278:15282   */\n      dup3\n        /* \"#utility.yul\":15274:15286   */\n      sgt\n        /* \"#utility.yul\":15300:15301   */\n      0x01\n        /* \"#utility.yul\":15295:15356   */\n      dup2\n      eq\n      tag_314\n      jumpi\n        /* \"#utility.yul\":15370:15371   */\n      0x00\n        /* \"#utility.yul\":15365:15428   */\n      dup2\n      eq\n      tag_315\n      jumpi\n        /* \"#utility.yul\":15267:15428   */\n      jump(tag_313)\n        /* \"#utility.yul\":15295:15356   */\n    tag_314:\n        /* \"#utility.yul\":15325:15329   */\n      dup3\n        /* \"#utility.yul\":15320:15323   */\n      dup7\n        /* \"#utility.yul\":15316:15330   */\n      div\n        /* \"#utility.yul\":15310:15314   */\n      dup4\n        /* \"#utility.yul\":15307:15331   */\n      gt\n        /* \"#utility.yul\":15304:15354   */\n      iszero\n      tag_316\n      jumpi\n        /* \"#utility.yul\":15334:15352   */\n      tag_317\n      tag_147\n      jump\t// in\n    tag_317:\n        /* \"#utility.yul\":15304:15354   */\n    tag_316:\n        /* \"#utility.yul\":15295:15356   */\n      jump(tag_313)\n        /* \"#utility.yul\":15365:15428   */\n    tag_315:\n        /* \"#utility.yul\":15397:15401   */\n      dup3\n        /* \"#utility.yul\":15392:15395   */\n      dup7\n        /* \"#utility.yul\":15387:15402   */\n      sdiv\n        /* \"#utility.yul\":15381:15385   */\n      dup4\n        /* \"#utility.yul\":15377:15403   */\n      slt\n        /* \"#utility.yul\":15374:15426   */\n      iszero\n      tag_318\n      jumpi\n        /* \"#utility.yul\":15406:15424   */\n      tag_319\n      tag_147\n      jump\t// in\n    tag_319:\n        /* \"#utility.yul\":15374:15426   */\n    tag_318:\n        /* \"#utility.yul\":15267:15428   */\n    tag_313:\n      pop\n        /* \"#utility.yul\":15454:15455   */\n      0x01\n        /* \"#utility.yul\":15444:15452   */\n      dup4\n        /* \"#utility.yul\":15440:15456   */\n      and\n        /* \"#utility.yul\":15437:15502   */\n      iszero\n      tag_320\n      jumpi\n        /* \"#utility.yul\":15488:15492   */\n      dup2\n        /* \"#utility.yul\":15479:15492   */\n      swap1\n      pop\n        /* \"#utility.yul\":15437:15502   */\n    tag_320:\n        /* \"#utility.yul\":15529:15533   */\n      dup2\n        /* \"#utility.yul\":15523:15527   */\n      dup3\n        /* \"#utility.yul\":15519:15534   */\n      mul\n        /* \"#utility.yul\":15511:15534   */\n      swap2\n      pop\n        /* \"#utility.yul\":15555:15587   */\n      tag_321\n        /* \"#utility.yul\":15578:15586   */\n      dup4\n        /* \"#utility.yul\":15555:15587   */\n      tag_154\n      jump\t// in\n    tag_321:\n        /* \"#utility.yul\":15543:15587   */\n      swap3\n      pop\n        /* \"#utility.yul\":15667:15713   */\n      tag_322\n        /* \"#utility.yul\":15709:15712   */\n      dup6\n        /* \"#utility.yul\":15699:15707   */\n      dup5\n        /* \"#utility.yul\":15693:15697   */\n      dup5\n        /* \"#utility.yul\":15686:15691   */\n      dup5\n        /* \"#utility.yul\":15667:15713   */\n      tag_155\n      jump\t// in\n    tag_322:\n        /* \"#utility.yul\":15652:15713   */\n      swap3\n      pop\n      swap1\n      pop\n        /* \"#utility.yul\":15764:15768   */\n      dup2\n        /* \"#utility.yul\":15759:15762   */\n      dup6\n        /* \"#utility.yul\":15755:15769   */\n      div\n        /* \"#utility.yul\":15748:15753   */\n      dup2\n        /* \"#utility.yul\":15745:15770   */\n      gt\n        /* \"#utility.yul\":15741:15742   */\n      0x00\n        /* \"#utility.yul\":15734:15739   */\n      dup3\n        /* \"#utility.yul\":15730:15743   */\n      sgt\n        /* \"#utility.yul\":15726:15771   */\n      and\n        /* \"#utility.yul\":15723:15794   */\n      iszero\n      tag_323\n      jumpi\n        /* \"#utility.yul\":15774:15792   */\n      tag_324\n      tag_147\n      jump\t// in\n    tag_324:\n        /* \"#utility.yul\":15723:15794   */\n    tag_323:\n        /* \"#utility.yul\":15846:15850   */\n      dup2\n        /* \"#utility.yul\":15841:15844   */\n      dup5\n        /* \"#utility.yul\":15836:15851   */\n      sdiv\n        /* \"#utility.yul\":15829:15834   */\n      dup2\n        /* \"#utility.yul\":15825:15852   */\n      slt\n        /* \"#utility.yul\":15821:15822   */\n      0x00\n        /* \"#utility.yul\":15814:15819   */\n      dup3\n        /* \"#utility.yul\":15810:15823   */\n      slt\n        /* \"#utility.yul\":15806:15853   */\n      and\n        /* \"#utility.yul\":15803:15876   */\n      iszero\n      tag_325\n      jumpi\n        /* \"#utility.yul\":15856:15874   */\n      tag_326\n      tag_147\n      jump\t// in\n    tag_326:\n        /* \"#utility.yul\":15803:15876   */\n    tag_325:\n        /* \"#utility.yul\":15905:15909   */\n      dup2\n        /* \"#utility.yul\":15898:15903   */\n      dup2\n        /* \"#utility.yul\":15894:15910   */\n      mul\n        /* \"#utility.yul\":15885:15910   */\n      swap1\n      pop\n        /* \"#utility.yul\":14691:15916   */\n    tag_308:\n      swap5\n      swap4\n      pop\n      pop\n      pop\n      pop\n      jump\t// out\n        /* \"#utility.yul\":15922:15998   */\n    tag_157:\n        /* \"#utility.yul\":15958:15965   */\n      0x00\n        /* \"#utility.yul\":15987:15992   */\n      dup2\n        /* \"#utility.yul\":15976:15992   */\n      swap1\n      pop\n        /* \"#utility.yul\":15922:15998   */\n      swap2\n      swap1\n      pop\n      jump\t// out\n        /* \"#utility.yul\":16004:16349   */\n    tag_99:\n        /* \"#utility.yul\":16061:16066   */\n      0x00\n        /* \"#utility.yul\":16085:16107   */\n      tag_329\n        /* \"#utility.yul\":16102:16106   */\n      dup3\n        /* \"#utility.yul\":16085:16107   */\n      tag_157\n      jump\t// in\n    tag_329:\n        /* \"#utility.yul\":16077:16107   */\n      swap2\n      pop\n        /* \"#utility.yul\":16128:16153   */\n      tag_330\n        /* \"#utility.yul\":16144:16152   */\n      dup4\n        /* \"#utility.yul\":16128:16153   */\n      tag_124\n      jump\t// in\n    tag_330:\n        /* \"#utility.yul\":16116:16153   */\n      swap3\n      pop\n        /* \"#utility.yul\":16172:16342   */\n      tag_331\n        /* \"#utility.yul\":16275:16341   */\n      0x7fffffffffffffffffffffffffffffffffffffffffffffffffffffffffffffff\n        /* \"#utility.yul\":16207:16273   */\n      0x8000000000000000000000000000000000000000000000000000000000000000\n        /* \"#utility.yul\":16197:16205   */\n      dup6\n        /* \"#utility.yul\":16191:16195   */\n      dup6\n        /* \"#utility.yul\":16172:16342   */\n      tag_156\n      jump\t// in\n    tag_331:\n        /* \"#utility.yul\":16163:16342   */\n      swap1\n      pop\n        /* \"#utility.yul\":16004:16349   */\n      swap3\n      swap2\n      pop\n      pop\n      jump\t// out\n        /* \"#utility.yul\":16355:16730   */\n    tag_102:\n        /* \"#utility.yul\":16394:16397   */\n      0x00\n        /* \"#utility.yul\":16413:16432   */\n      tag_333\n        /* \"#utility.yul\":16430:16431   */\n      dup3\n        /* \"#utility.yul\":16413:16432   */\n      tag_157\n      jump\t// in\n    tag_333:\n        /* \"#utility.yul\":16408:16432   */\n      swap2\n      pop\n        /* \"#utility.yul\":16446:16465   */\n      tag_334\n        /* \"#utility.yul\":16463:16464   */\n      dup4\n        /* \"#utility.yul\":16446:16465   */\n      tag_157\n      jump\t// in\n    tag_334:\n        /* \"#utility.yul\":16441:16465   */\n      swap3\n      pop\n        /* \"#utility.yul\":16488:16489   */\n      dup3\n        /* \"#utility.yul\":16485:16486   */\n      dup3\n        /* \"#utility.yul\":16481:16490   */\n      add\n        /* \"#utility.yul\":16474:16490   */\n      swap1\n      pop\n        /* \"#utility.yul\":16686:16687   */\n      dup3\n        /* \"#utility.yul\":16681:16684   */\n      dup2\n        /* \"#utility.yul\":16677:16688   */\n      slt\n        /* \"#utility.yul\":16670:16689   */\n      iszero\n        /* \"#utility.yul\":16666:16667   */\n      0x00\n        /* \"#utility.yul\":16663:16664   */\n      dup4\n        /* \"#utility.yul\":16659:16668   */\n      slt\n        /* \"#utility.yul\":16655:16690   */\n      and\n        /* \"#utility.yul\":16638:16639   */\n      dup4\n        /* \"#utility.yul\":16633:16636   */\n      dup3\n        /* \"#utility.yul\":16629:16640   */\n      slt\n        /* \"#utility.yul\":16624:16625   */\n      0x00\n        /* \"#utility.yul\":16621:16622   */\n      dup5\n        /* \"#utility.yul\":16617:16626   */\n      slt\n        /* \"#utility.yul\":16610:16627   */\n      iszero\n        /* \"#utility.yul\":16606:16641   */\n      and\n        /* \"#utility.yul\":16590:16700   */\n      or\n        /* \"#utility.yul\":16587:16723   */\n      iszero\n      tag_335\n      jumpi\n        /* \"#utility.yul\":16703:16721   */\n      tag_336\n      tag_147\n      jump\t// in\n    tag_336:\n        /* \"#utility.yul\":16587:16723   */\n    tag_335:\n        /* \"#utility.yul\":16355:16730   */\n      swap3\n      swap2\n      pop\n      pop\n      jump\t// out\n        /* \"#utility.yul\":16736:16916   */\n    tag_158:\n        /* \"#utility.yul\":16784:16861   */\n      0x4e487b7100000000000000000000000000000000000000000000000000000000\n        /* \"#utility.yul\":16781:16782   */\n      0x00\n        /* \"#utility.yul\":16774:16862   */\n      mstore\n        /* \"#utility.yul\":16881:16885   */\n      0x12\n        /* \"#utility.yul\":16878:16879   */\n      0x04\n        /* \"#utility.yul\":16871:16886   */\n      mstore\n        /* \"#utility.yul\":16905:16909   */\n      0x24\n        /* \"#utility.yul\":16902:16903   */\n      0x00\n        /* \"#utility.yul\":16895:16910   */\n      revert\n        /* \"#utility.yul\":16922:17307   */\n    tag_107:\n        /* \"#utility.yul\":16961:16962   */\n      0x00\n        /* \"#utility.yul\":16978:16997   */\n      tag_339\n        /* \"#utility.yul\":16995:16996   */\n      dup3\n        /* \"#utility.yul\":16978:16997   */\n      tag_157\n      jump\t// in\n    tag_339:\n        /* \"#utility.yul\":16973:16997   */\n      swap2\n      pop\n        /* \"#utility.yul\":17011:17030   */\n      tag_340\n        /* \"#utility.yul\":17028:17029   */\n      dup4\n        /* \"#utility.yul\":17011:17030   */\n      tag_157\n      jump\t// in\n    tag_340:\n        /* \"#utility.yul\":17006:17030   */\n      swap3\n      pop\n        /* \"#utility.yul\":17049:17050   */\n      dup3\n        /* \"#utility.yul\":17039:17074   */\n      tag_341\n      jumpi\n        /* \"#utility.yul\":17054:17072   */\n      tag_342\n      tag_158\n      jump\t// in\n    tag_342:\n        /* \"#utility.yul\":17039:17074   */\n    tag_341:\n        /* \"#utility.yul\":17240:17241   */\n      0x01\n        /* \"#utility.yul\":17237:17238   */\n      0x00\n        /* \"#utility.yul\":17233:17242   */\n      sub\n        /* \"#utility.yul\":17230:17231   */\n      dup4\n        /* \"#utility.yul\":17227:17243   */\n      eq\n        /* \"#utility.yul\":17146:17212   */\n      0x8000000000000000000000000000000000000000000000000000000000000000\n        /* \"#utility.yul\":17143:17144   */\n      dup4\n        /* \"#utility.yul\":17140:17213   */\n      eq\n        /* \"#utility.yul\":17123:17253   */\n      and\n        /* \"#utility.yul\":17120:17276   */\n      iszero\n      tag_343\n      jumpi\n        /* \"#utility.yul\":17256:17274   */\n      tag_344\n      tag_147\n      jump\t// in\n    tag_344:\n        /* \"#utility.yul\":17120:17276   */\n    tag_343:\n        /* \"#utility.yul\":17299:17300   */\n      dup3\n        /* \"#utility.yul\":17296:17297   */\n      dup3\n        /* \"#utility.yul\":17291:17301   */\n      sdiv\n        /* \"#utility.yul\":17286:17301   */\n      swap1\n      pop\n        /* \"#utility.yul\":16922:17307   */\n      swap3\n      swap2\n      pop\n      pop\n      jump\t// out\n        /* \"#utility.yul\":17313:17869   */\n    tag_112:\n        /* \"#utility.yul\":17352:17359   */\n      0x00\n        /* \"#utility.yul\":17375:17394   */\n      tag_346\n        /* \"#utility.yul\":17392:17393   */\n      dup3\n        /* \"#utility.yul\":17375:17394   */\n      tag_157\n      jump\t// in\n    tag_346:\n        /* \"#utility.yul\":17370:17394   */\n      swap2\n      pop\n        /* \"#utility.yul\":17408:17427   */\n      tag_347\n        /* \"#utility.yul\":17425:17426   */\n      dup4\n        /* \"#utility.yul\":17408:17427   */\n      tag_157\n      jump\t// in\n    tag_347:\n        /* \"#utility.yul\":17403:17427   */\n      swap3\n      pop\n        /* \"#utility.yul\":17462:17463   */\n      dup3\n        /* \"#utility.yul\":17459:17460   */\n      dup3\n        /* \"#utility.yul\":17455:17464   */\n      mul\n        /* \"#utility.yul\":17484:17513   */\n      tag_348\n        /* \"#utility.yul\":17501:17512   */\n      dup2\n        /* \"#utility.yul\":17484:17513   */\n      tag_157\n      jump\t// in\n    tag_348:\n        /* \"#utility.yul\":17473:17513   */\n      swap2\n      pop\n        /* \"#utility.yul\":17571:17637   */\n      0x8000000000000000000000000000000000000000000000000000000000000000\n        /* \"#utility.yul\":17568:17569   */\n      dup5\n        /* \"#utility.yul\":17565:17638   */\n      eq\n        /* \"#utility.yul\":17561:17562   */\n      0x00\n        /* \"#utility.yul\":17558:17559   */\n      dup5\n        /* \"#utility.yul\":17554:17563   */\n      slt\n        /* \"#utility.yul\":17550:17639   */\n      and\n        /* \"#utility.yul\":17547:17662   */\n      iszero\n      tag_349\n      jumpi\n        /* \"#utility.yul\":17642:17660   */\n      tag_350\n      tag_147\n      jump\t// in\n    tag_350:\n        /* \"#utility.yul\":17547:17662   */\n    tag_349:\n        /* \"#utility.yul\":17812:17813   */\n      dup3\n        /* \"#utility.yul\":17803:17810   */\n      dup3\n        /* \"#utility.yul\":17798:17814   */\n      sdiv\n        /* \"#utility.yul\":17795:17796   */\n      dup5\n        /* \"#utility.yul\":17792:17815   */\n      eq\n        /* \"#utility.yul\":17772:17773   */\n      dup4\n        /* \"#utility.yul\":17765:17774   */\n      iszero\n        /* \"#utility.yul\":17745:17829   */\n      or\n        /* \"#utility.yul\":17722:17862   */\n      tag_351\n      jumpi\n        /* \"#utility.yul\":17842:17860   */\n      tag_352\n      tag_147\n      jump\t// in\n    tag_352:\n        /* \"#utility.yul\":17722:17862   */\n    tag_351:\n        /* \"#utility.yul\":17360:17869   */\n      pop\n        /* \"#utility.yul\":17313:17869   */\n      swap3\n      swap2\n      pop\n      pop\n      jump\t// out\n\n    auxdata: 0xa2646970667358221220cb29b2375d32aa639e738fe381977543529a9f2266ff94704bc306a8f909a71464736f6c63430008110033\n}\n",
				"bytecode": {
					"linkReferences": {},
					"object": "608060405234801561001057600080fd5b5033600160006101000a81548173ffffffffffffffffffffffffffffffffffffffff021916908373ffffffffffffffffffffffffffffffffffffffff1602179055506116ec806100616000396000f3fe60806040526004361061007b5760003560e01c80634abefa361161004e5780634abefa361461012d5780636e9960c31461015857806380def88d14610183578063aebf11b2146101c55761007b565b80631296428a146100805780631f50ad16146100a95780633c4c59df146100c55780634739326b146100f0575b600080fd5b34801561008c57600080fd5b506100a760048036038101906100a29190610caf565b6101ee565b005b6100c360048036038101906100be9190610d7a565b610504565b005b3480156100d157600080fd5b506100da6107c4565b6040516100e79190610db6565b60405180910390f35b3480156100fc57600080fd5b5061011760048036038101906101129190610e07565b6107ea565b6040516101249190610db6565b60405180910390f35b34801561013957600080fd5b50610142610829565b60405161014f9190610ef2565b60405180910390f35b34801561016457600080fd5b5061016d6108b7565b60405161017a9190610db6565b60405180910390f35b34801561018f57600080fd5b506101aa60048036038101906101a59190610f14565b6108e1565b6040516101bc96959493929190610f6e565b60405180910390f35b3480156101d157600080fd5b506101ec60048036038101906101e79190610fcf565b61095e565b005b600160009054906101000a900473ffffffffffffffffffffffffffffffffffffffff1673ffffffffffffffffffffffffffffffffffffffff163373ffffffffffffffffffffffffffffffffffffffff161461027e576040517f08c379a000000000000000000000000000000000000000000000000000000000815260040161027590611092565b60405180910390fd5b6000869080600181540180825580915050600190039060005260206000200160009091909190916101000a81548173ffffffffffffffffffffffffffffffffffffffff021916908373ffffffffffffffffffffffffffffffffffffffff16021790555084600260008873ffffffffffffffffffffffffffffffffffffffff1673ffffffffffffffffffffffffffffffffffffffff16815260200190815260200160002060000160006101000a81548160ff021916908360000b60ff16021790555083600260008873ffffffffffffffffffffffffffffffffffffffff1673ffffffffffffffffffffffffffffffffffffffff16815260200190815260200160002060000160016101000a81548160ff021916908360000b60ff16021790555082600260008873ffffffffffffffffffffffffffffffffffffffff1673ffffffffffffffffffffffffffffffffffffffff16815260200190815260200160002060000160026101000a81548160ff021916908360000b60ff1602179055508160ff16600260008873ffffffffffffffffffffffffffffffffffffffff1673ffffffffffffffffffffffffffffffffffffffff168152602001908152602001600020600101819055506000600260008873ffffffffffffffffffffffffffffffffffffffff1673ffffffffffffffffffffffffffffffffffffffff16815260200190815260200160002060020160006101000a81548160ff021916908360ff16021790555080600260008873ffffffffffffffffffffffffffffffffffffffff1673ffffffffffffffffffffffffffffffffffffffff16815260200190815260200160002060020160016101000a81548160ff021916908360ff160217905550505050505050565b8060008173ffffffffffffffffffffffffffffffffffffffff163373ffffffffffffffffffffffffffffffffffffffff160361053f57600190505b60005b6000805490508110156105dc578273ffffffffffffffffffffffffffffffffffffffff166000828154811061057a576105796110b2565b5b9060005260206000200160009054906101000a900473ffffffffffffffffffffffffffffffffffffffff1673ffffffffffffffffffffffffffffffffffffffff16036105c957600191506105dc565b80806105d490611110565b915050610542565b508061061d576040517f08c379a0000000000000000000000000000000000000000000000000000000008152600401610614906111ca565b60405180910390fd5b600260008473ffffffffffffffffffffffffffffffffffffffff1673ffffffffffffffffffffffffffffffffffffffff16815260200190815260200160002060020160019054906101000a900460ff1660ff16600260008573ffffffffffffffffffffffffffffffffffffffff1673ffffffffffffffffffffffffffffffffffffffff16815260200190815260200160002060020160009054906101000a900460ff1660ff1611610703576040517f08c379a00000000000000000000000000000000000000000000000000000000081526004016106fa90611282565b60405180910390fd5b60008373ffffffffffffffffffffffffffffffffffffffff166108fc600260008773ffffffffffffffffffffffffffffffffffffffff1673ffffffffffffffffffffffffffffffffffffffff168152602001908152602001600020600101549081150290604051600060405180830381858888f193505050509050806107be576040517f08c379a00000000000000000000000000000000000000000000000000000000081526004016107b5906112ee565b60405180910390fd5b50505050565b600160009054906101000a900473ffffffffffffffffffffffffffffffffffffffff1681565b600081815481106107fa57600080fd5b906000526020600020016000915054906101000a900473ffffffffffffffffffffffffffffffffffffffff1681565b606060008054806020026020016040519081016040528092919081815260200182805480156108ad57602002820191906000526020600020905b8160009054906101000a900473ffffffffffffffffffffffffffffffffffffffff1673ffffffffffffffffffffffffffffffffffffffff1681526020019060010190808311610863575b5050505050905090565b6000600160009054906101000a900473ffffffffffffffffffffffffffffffffffffffff16905090565b60026020528060005260406000206000915090508060000160009054906101000a900460000b908060000160019054906101000a900460000b908060000160029054906101000a900460000b908060010154908060020160009054906101000a900460ff16908060020160019054906101000a900460ff16905086565b600061096a8383610a82565b9050600260003373ffffffffffffffffffffffffffffffffffffffff1673ffffffffffffffffffffffffffffffffffffffff16815260200190815260200160002060000160029054906101000a900460000b60000b811215610a7d576001600260003373ffffffffffffffffffffffffffffffffffffffff1673ffffffffffffffffffffffffffffffffffffffff16815260200190815260200160002060020160009054906101000a900460ff16610a22919061130e565b600260003373ffffffffffffffffffffffffffffffffffffffff1673ffffffffffffffffffffffffffffffffffffffff16815260200190815260200160002060020160006101000a81548160ff021916908360ff1602179055505b505050565b600080600260003373ffffffffffffffffffffffffffffffffffffffff1673ffffffffffffffffffffffffffffffffffffffff16815260200190815260200160002060000160009054906101000a900460000b84610ae09190611343565b60000b90506000600260003373ffffffffffffffffffffffffffffffffffffffff1673ffffffffffffffffffffffffffffffffffffffff16815260200190815260200160002060000160019054906101000a900460000b84610b429190611343565b60000b9050610b73600282610b5791906114f5565b600284610b6491906114f5565b610b6e9190611561565b610b7d565b9250505092915050565b6000806002600184610b8f9190611561565b610b9991906115d4565b90508291505b81811215610bd4578091506002808385610bb991906115d4565b610bc3919061163e565b610bcd91906115d4565b9050610b9f565b50919050565b600080fd5b600073ffffffffffffffffffffffffffffffffffffffff82169050919050565b6000610c0a82610bdf565b9050919050565b610c1a81610bff565b8114610c2557600080fd5b50565b600081359050610c3781610c11565b92915050565b60008160000b9050919050565b610c5381610c3d565b8114610c5e57600080fd5b50565b600081359050610c7081610c4a565b92915050565b600060ff82169050919050565b610c8c81610c76565b8114610c9757600080fd5b50565b600081359050610ca981610c83565b92915050565b60008060008060008060c08789031215610ccc57610ccb610bda565b5b6000610cda89828a01610c28565b9650506020610ceb89828a01610c61565b9550506040610cfc89828a01610c61565b9450506060610d0d89828a01610c61565b9350506080610d1e89828a01610c9a565b92505060a0610d2f89828a01610c9a565b9150509295509295509295565b6000610d4782610bdf565b9050919050565b610d5781610d3c565b8114610d6257600080fd5b50565b600081359050610d7481610d4e565b92915050565b600060208284031215610d9057610d8f610bda565b5b6000610d9e84828501610d65565b91505092915050565b610db081610bff565b82525050565b6000602082019050610dcb6000830184610da7565b92915050565b6000819050919050565b610de481610dd1565b8114610def57600080fd5b50565b600081359050610e0181610ddb565b92915050565b600060208284031215610e1d57610e1c610bda565b5b6000610e2b84828501610df2565b91505092915050565b600081519050919050565b600082825260208201905092915050565b6000819050602082019050919050565b610e6981610bff565b82525050565b6000610e7b8383610e60565b60208301905092915050565b6000602082019050919050565b6000610e9f82610e34565b610ea98185610e3f565b9350610eb483610e50565b8060005b83811015610ee5578151610ecc8882610e6f565b9750610ed783610e87565b925050600181019050610eb8565b5085935050505092915050565b60006020820190508181036000830152610f0c8184610e94565b905092915050565b600060208284031215610f2a57610f29610bda565b5b6000610f3884828501610c28565b91505092915050565b610f4a81610c3d565b82525050565b610f5981610dd1565b82525050565b610f6881610c76565b82525050565b600060c082019050610f836000830189610f41565b610f906020830188610f41565b610f9d6040830187610f41565b610faa6060830186610f50565b610fb76080830185610f5f565b610fc460a0830184610f5f565b979650505050505050565b60008060408385031215610fe657610fe5610bda565b5b6000610ff485828601610c61565b925050602061100585828601610c61565b9150509250929050565b600082825260208201905092915050565b7f4f6e6c7920656d706c6f79656572206861732061636365737320746f2074686960008201527f732066756e6374696f6e00000000000000000000000000000000000000000000602082015250565b600061107c602a8361100f565b915061108782611020565b604082019050919050565b600060208201905081810360008301526110ab8161106f565b9050919050565b7f4e487b7100000000000000000000000000000000000000000000000000000000600052603260045260246000fd5b7f4e487b7100000000000000000000000000000000000000000000000000000000600052601160045260246000fd5b600061111b82610dd1565b91507fffffffffffffffffffffffffffffffffffffffffffffffffffffffffffffffff820361114d5761114c6110e1565b5b600182019050919050565b7f4f6e6c7920616e2020656d706c6f796565206861732061636365737320746f2060008201527f746869732066756e6374696f6e5f320000000000000000000000000000000000602082015250565b60006111b4602f8361100f565b91506111bf82611158565b604082019050919050565b600060208201905081810360008301526111e3816111a7565b9050919050565b7f54686520656d706c6f79656520646964206e6f742072656d61696e20696e206360008201527f6f6d706c69616e6365207769746820616c6c207468652061677265656d656e7460208201527f732e000000000000000000000000000000000000000000000000000000000000604082015250565b600061126c60428361100f565b9150611277826111ea565b606082019050919050565b6000602082019050818103600083015261129b8161125f565b9050919050565b7f4661696c656420746f2073656e64204574686572000000000000000000000000600082015250565b60006112d860148361100f565b91506112e3826112a2565b602082019050919050565b60006020820190508181036000830152611307816112cb565b9050919050565b600061131982610c76565b915061132483610c76565b9250828201905060ff81111561133d5761133c6110e1565b5b92915050565b600061134e82610c3d565b915061135983610c3d565b92508282039050607f81137fffffffffffffffffffffffffffffffffffffffffffffffffffffffffffffff8082121715611396576113956110e1565b5b92915050565b60008160011c9050919050565b6000808291508390505b60018511156113f3578086048111156113cf576113ce6110e1565b5b60018516156113de5780820291505b80810290506113ec8561139c565b94506113b3565b94509492505050565b60008260008114611414576001811461141e57611427565b60019150506114e3565b829150506114e3565b508161143657600090506114e3565b600190506000821360018114611453576000811461146b5761147f565b828604831115611466576114656110e1565b5b61147f565b82860583121561147e5761147d6110e1565b5b5b50600183161561148d578190505b818202915061149b8361139c565b92506114a9858484846113a9565b9250905081850481116000821316156114c5576114c46110e1565b5b81840581126000821216156114dd576114dc6110e1565b5b81810290505b949350505050565b6000819050919050565b6000611500826114eb565b915061150b83610c76565b92506115597f7fffffffffffffffffffffffffffffffffffffffffffffffffffffffffffffff7f800000000000000000000000000000000000000000000000000000000000000085856113fc565b905092915050565b600061156c826114eb565b9150611577836114eb565b92508282019050828112156000831216838212600084121516171561159f5761159e6110e1565b5b92915050565b7f4e487b7100000000000000000000000000000000000000000000000000000000600052601260045260246000fd5b60006115df826114eb565b91506115ea836114eb565b9250826115fa576115f96115a5565b5b600160000383147f800000000000000000000000000000000000000000000000000000000000000083141615611633576116326110e1565b5b828205905092915050565b6000611649826114eb565b9150611654836114eb565b9250828202611662816114eb565b91507f8000000000000000000000000000000000000000000000000000000000000000841460008412161561169a576116996110e1565b5b82820584148315176116af576116ae6110e1565b5b509291505056fea2646970667358221220cb29b2375d32aa639e738fe381977543529a9f2266ff94704bc306a8f909a71464736f6c63430008110033",
					"opcodes": "PUSH1 0x80 PUSH1 0x40 MSTORE CALLVALUE DUP1 ISZERO PUSH2 0x10 JUMPI PUSH1 0x0 DUP1 REVERT JUMPDEST POP CALLER PUSH1 0x1 PUSH1 0x0 PUSH2 0x100 EXP DUP2 SLOAD DUP2 PUSH20 0xFFFFFFFFFFFFFFFFFFFFFFFFFFFFFFFFFFFFFFFF MUL NOT AND SWAP1 DUP4 PUSH20 0xFFFFFFFFFFFFFFFFFFFFFFFFFFFFFFFFFFFFFFFF AND MUL OR SWAP1 SSTORE POP PUSH2 0x16EC DUP1 PUSH2 0x61 PUSH1 0x0 CODECOPY PUSH1 0x0 RETURN INVALID PUSH1 0x80 PUSH1 0x40 MSTORE PUSH1 0x4 CALLDATASIZE LT PUSH2 0x7B JUMPI PUSH1 0x0 CALLDATALOAD PUSH1 0xE0 SHR DUP1 PUSH4 0x4ABEFA36 GT PUSH2 0x4E JUMPI DUP1 PUSH4 0x4ABEFA36 EQ PUSH2 0x12D JUMPI DUP1 PUSH4 0x6E9960C3 EQ PUSH2 0x158 JUMPI DUP1 PUSH4 0x80DEF88D EQ PUSH2 0x183 JUMPI DUP1 PUSH4 0xAEBF11B2 EQ PUSH2 0x1C5 JUMPI PUSH2 0x7B JUMP JUMPDEST DUP1 PUSH4 0x1296428A EQ PUSH2 0x80 JUMPI DUP1 PUSH4 0x1F50AD16 EQ PUSH2 0xA9 JUMPI DUP1 PUSH4 0x3C4C59DF EQ PUSH2 0xC5 JUMPI DUP1 PUSH4 0x4739326B EQ PUSH2 0xF0 JUMPI JUMPDEST PUSH1 0x0 DUP1 REVERT JUMPDEST CALLVALUE DUP1 ISZERO PUSH2 0x8C JUMPI PUSH1 0x0 DUP1 REVERT JUMPDEST POP PUSH2 0xA7 PUSH1 0x4 DUP1 CALLDATASIZE SUB DUP2 ADD SWAP1 PUSH2 0xA2 SWAP2 SWAP1 PUSH2 0xCAF JUMP JUMPDEST PUSH2 0x1EE JUMP JUMPDEST STOP JUMPDEST PUSH2 0xC3 PUSH1 0x4 DUP1 CALLDATASIZE SUB DUP2 ADD SWAP1 PUSH2 0xBE SWAP2 SWAP1 PUSH2 0xD7A JUMP JUMPDEST PUSH2 0x504 JUMP JUMPDEST STOP JUMPDEST CALLVALUE DUP1 ISZERO PUSH2 0xD1 JUMPI PUSH1 0x0 DUP1 REVERT JUMPDEST POP PUSH2 0xDA PUSH2 0x7C4 JUMP JUMPDEST PUSH1 0x40 MLOAD PUSH2 0xE7 SWAP2 SWAP1 PUSH2 0xDB6 JUMP JUMPDEST PUSH1 0x40 MLOAD DUP1 SWAP2 SUB SWAP1 RETURN JUMPDEST CALLVALUE DUP1 ISZERO PUSH2 0xFC JUMPI PUSH1 0x0 DUP1 REVERT JUMPDEST POP PUSH2 0x117 PUSH1 0x4 DUP1 CALLDATASIZE SUB DUP2 ADD SWAP1 PUSH2 0x112 SWAP2 SWAP1 PUSH2 0xE07 JUMP JUMPDEST PUSH2 0x7EA JUMP JUMPDEST PUSH1 0x40 MLOAD PUSH2 0x124 SWAP2 SWAP1 PUSH2 0xDB6 JUMP JUMPDEST PUSH1 0x40 MLOAD DUP1 SWAP2 SUB SWAP1 RETURN JUMPDEST CALLVALUE DUP1 ISZERO PUSH2 0x139 JUMPI PUSH1 0x0 DUP1 REVERT JUMPDEST POP PUSH2 0x142 PUSH2 0x829 JUMP JUMPDEST PUSH1 0x40 MLOAD PUSH2 0x14F SWAP2 SWAP1 PUSH2 0xEF2 JUMP JUMPDEST PUSH1 0x40 MLOAD DUP1 SWAP2 SUB SWAP1 RETURN JUMPDEST CALLVALUE DUP1 ISZERO PUSH2 0x164 JUMPI PUSH1 0x0 DUP1 REVERT JUMPDEST POP PUSH2 0x16D PUSH2 0x8B7 JUMP JUMPDEST PUSH1 0x40 MLOAD PUSH2 0x17A SWAP2 SWAP1 PUSH2 0xDB6 JUMP JUMPDEST PUSH1 0x40 MLOAD DUP1 SWAP2 SUB SWAP1 RETURN JUMPDEST CALLVALUE DUP1 ISZERO PUSH2 0x18F JUMPI PUSH1 0x0 DUP1 REVERT JUMPDEST POP PUSH2 0x1AA PUSH1 0x4 DUP1 CALLDATASIZE SUB DUP2 ADD SWAP1 PUSH2 0x1A5 SWAP2 SWAP1 PUSH2 0xF14 JUMP JUMPDEST PUSH2 0x8E1 JUMP JUMPDEST PUSH1 0x40 MLOAD PUSH2 0x1BC SWAP7 SWAP6 SWAP5 SWAP4 SWAP3 SWAP2 SWAP1 PUSH2 0xF6E JUMP JUMPDEST PUSH1 0x40 MLOAD DUP1 SWAP2 SUB SWAP1 RETURN JUMPDEST CALLVALUE DUP1 ISZERO PUSH2 0x1D1 JUMPI PUSH1 0x0 DUP1 REVERT JUMPDEST POP PUSH2 0x1EC PUSH1 0x4 DUP1 CALLDATASIZE SUB DUP2 ADD SWAP1 PUSH2 0x1E7 SWAP2 SWAP1 PUSH2 0xFCF JUMP JUMPDEST PUSH2 0x95E JUMP JUMPDEST STOP JUMPDEST PUSH1 0x1 PUSH1 0x0 SWAP1 SLOAD SWAP1 PUSH2 0x100 EXP SWAP1 DIV PUSH20 0xFFFFFFFFFFFFFFFFFFFFFFFFFFFFFFFFFFFFFFFF AND PUSH20 0xFFFFFFFFFFFFFFFFFFFFFFFFFFFFFFFFFFFFFFFF AND CALLER PUSH20 0xFFFFFFFFFFFFFFFFFFFFFFFFFFFFFFFFFFFFFFFF AND EQ PUSH2 0x27E JUMPI PUSH1 0x40 MLOAD PUSH32 0x8C379A000000000000000000000000000000000000000000000000000000000 DUP2 MSTORE PUSH1 0x4 ADD PUSH2 0x275 SWAP1 PUSH2 0x1092 JUMP JUMPDEST PUSH1 0x40 MLOAD DUP1 SWAP2 SUB SWAP1 REVERT JUMPDEST PUSH1 0x0 DUP7 SWAP1 DUP1 PUSH1 0x1 DUP2 SLOAD ADD DUP1 DUP3 SSTORE DUP1 SWAP2 POP POP PUSH1 0x1 SWAP1 SUB SWAP1 PUSH1 0x0 MSTORE PUSH1 0x20 PUSH1 0x0 KECCAK256 ADD PUSH1 0x0 SWAP1 SWAP2 SWAP1 SWAP2 SWAP1 SWAP2 PUSH2 0x100 EXP DUP2 SLOAD DUP2 PUSH20 0xFFFFFFFFFFFFFFFFFFFFFFFFFFFFFFFFFFFFFFFF MUL NOT AND SWAP1 DUP4 PUSH20 0xFFFFFFFFFFFFFFFFFFFFFFFFFFFFFFFFFFFFFFFF AND MUL OR SWAP1 SSTORE POP DUP5 PUSH1 0x2 PUSH1 0x0 DUP9 PUSH20 0xFFFFFFFFFFFFFFFFFFFFFFFFFFFFFFFFFFFFFFFF AND PUSH20 0xFFFFFFFFFFFFFFFFFFFFFFFFFFFFFFFFFFFFFFFF AND DUP2 MSTORE PUSH1 0x20 ADD SWAP1 DUP2 MSTORE PUSH1 0x20 ADD PUSH1 0x0 KECCAK256 PUSH1 0x0 ADD PUSH1 0x0 PUSH2 0x100 EXP DUP2 SLOAD DUP2 PUSH1 0xFF MUL NOT AND SWAP1 DUP4 PUSH1 0x0 SIGNEXTEND PUSH1 0xFF AND MUL OR SWAP1 SSTORE POP DUP4 PUSH1 0x2 PUSH1 0x0 DUP9 PUSH20 0xFFFFFFFFFFFFFFFFFFFFFFFFFFFFFFFFFFFFFFFF AND PUSH20 0xFFFFFFFFFFFFFFFFFFFFFFFFFFFFFFFFFFFFFFFF AND DUP2 MSTORE PUSH1 0x20 ADD SWAP1 DUP2 MSTORE PUSH1 0x20 ADD PUSH1 0x0 KECCAK256 PUSH1 0x0 ADD PUSH1 0x1 PUSH2 0x100 EXP DUP2 SLOAD DUP2 PUSH1 0xFF MUL NOT AND SWAP1 DUP4 PUSH1 0x0 SIGNEXTEND PUSH1 0xFF AND MUL OR SWAP1 SSTORE POP DUP3 PUSH1 0x2 PUSH1 0x0 DUP9 PUSH20 0xFFFFFFFFFFFFFFFFFFFFFFFFFFFFFFFFFFFFFFFF AND PUSH20 0xFFFFFFFFFFFFFFFFFFFFFFFFFFFFFFFFFFFFFFFF AND DUP2 MSTORE PUSH1 0x20 ADD SWAP1 DUP2 MSTORE PUSH1 0x20 ADD PUSH1 0x0 KECCAK256 PUSH1 0x0 ADD PUSH1 0x2 PUSH2 0x100 EXP DUP2 SLOAD DUP2 PUSH1 0xFF MUL NOT AND SWAP1 DUP4 PUSH1 0x0 SIGNEXTEND PUSH1 0xFF AND MUL OR SWAP1 SSTORE POP DUP2 PUSH1 0xFF AND PUSH1 0x2 PUSH1 0x0 DUP9 PUSH20 0xFFFFFFFFFFFFFFFFFFFFFFFFFFFFFFFFFFFFFFFF AND PUSH20 0xFFFFFFFFFFFFFFFFFFFFFFFFFFFFFFFFFFFFFFFF AND DUP2 MSTORE PUSH1 0x20 ADD SWAP1 DUP2 MSTORE PUSH1 0x20 ADD PUSH1 0x0 KECCAK256 PUSH1 0x1 ADD DUP2 SWAP1 SSTORE POP PUSH1 0x0 PUSH1 0x2 PUSH1 0x0 DUP9 PUSH20 0xFFFFFFFFFFFFFFFFFFFFFFFFFFFFFFFFFFFFFFFF AND PUSH20 0xFFFFFFFFFFFFFFFFFFFFFFFFFFFFFFFFFFFFFFFF AND DUP2 MSTORE PUSH1 0x20 ADD SWAP1 DUP2 MSTORE PUSH1 0x20 ADD PUSH1 0x0 KECCAK256 PUSH1 0x2 ADD PUSH1 0x0 PUSH2 0x100 EXP DUP2 SLOAD DUP2 PUSH1 0xFF MUL NOT AND SWAP1 DUP4 PUSH1 0xFF AND MUL OR SWAP1 SSTORE POP DUP1 PUSH1 0x2 PUSH1 0x0 DUP9 PUSH20 0xFFFFFFFFFFFFFFFFFFFFFFFFFFFFFFFFFFFFFFFF AND PUSH20 0xFFFFFFFFFFFFFFFFFFFFFFFFFFFFFFFFFFFFFFFF AND DUP2 MSTORE PUSH1 0x20 ADD SWAP1 DUP2 MSTORE PUSH1 0x20 ADD PUSH1 0x0 KECCAK256 PUSH1 0x2 ADD PUSH1 0x1 PUSH2 0x100 EXP DUP2 SLOAD DUP2 PUSH1 0xFF MUL NOT AND SWAP1 DUP4 PUSH1 0xFF AND MUL OR SWAP1 SSTORE POP POP POP POP POP POP POP JUMP JUMPDEST DUP1 PUSH1 0x0 DUP2 PUSH20 0xFFFFFFFFFFFFFFFFFFFFFFFFFFFFFFFFFFFFFFFF AND CALLER PUSH20 0xFFFFFFFFFFFFFFFFFFFFFFFFFFFFFFFFFFFFFFFF AND SUB PUSH2 0x53F JUMPI PUSH1 0x1 SWAP1 POP JUMPDEST PUSH1 0x0 JUMPDEST PUSH1 0x0 DUP1 SLOAD SWAP1 POP DUP2 LT ISZERO PUSH2 0x5DC JUMPI DUP3 PUSH20 0xFFFFFFFFFFFFFFFFFFFFFFFFFFFFFFFFFFFFFFFF AND PUSH1 0x0 DUP3 DUP2 SLOAD DUP2 LT PUSH2 0x57A JUMPI PUSH2 0x579 PUSH2 0x10B2 JUMP JUMPDEST JUMPDEST SWAP1 PUSH1 0x0 MSTORE PUSH1 0x20 PUSH1 0x0 KECCAK256 ADD PUSH1 0x0 SWAP1 SLOAD SWAP1 PUSH2 0x100 EXP SWAP1 DIV PUSH20 0xFFFFFFFFFFFFFFFFFFFFFFFFFFFFFFFFFFFFFFFF AND PUSH20 0xFFFFFFFFFFFFFFFFFFFFFFFFFFFFFFFFFFFFFFFF AND SUB PUSH2 0x5C9 JUMPI PUSH1 0x1 SWAP2 POP PUSH2 0x5DC JUMP JUMPDEST DUP1 DUP1 PUSH2 0x5D4 SWAP1 PUSH2 0x1110 JUMP JUMPDEST SWAP2 POP POP PUSH2 0x542 JUMP JUMPDEST POP DUP1 PUSH2 0x61D JUMPI PUSH1 0x40 MLOAD PUSH32 0x8C379A000000000000000000000000000000000000000000000000000000000 DUP2 MSTORE PUSH1 0x4 ADD PUSH2 0x614 SWAP1 PUSH2 0x11CA JUMP JUMPDEST PUSH1 0x40 MLOAD DUP1 SWAP2 SUB SWAP1 REVERT JUMPDEST PUSH1 0x2 PUSH1 0x0 DUP5 PUSH20 0xFFFFFFFFFFFFFFFFFFFFFFFFFFFFFFFFFFFFFFFF AND PUSH20 0xFFFFFFFFFFFFFFFFFFFFFFFFFFFFFFFFFFFFFFFF AND DUP2 MSTORE PUSH1 0x20 ADD SWAP1 DUP2 MSTORE PUSH1 0x20 ADD PUSH1 0x0 KECCAK256 PUSH1 0x2 ADD PUSH1 0x1 SWAP1 SLOAD SWAP1 PUSH2 0x100 EXP SWAP1 DIV PUSH1 0xFF AND PUSH1 0xFF AND PUSH1 0x2 PUSH1 0x0 DUP6 PUSH20 0xFFFFFFFFFFFFFFFFFFFFFFFFFFFFFFFFFFFFFFFF AND PUSH20 0xFFFFFFFFFFFFFFFFFFFFFFFFFFFFFFFFFFFFFFFF AND DUP2 MSTORE PUSH1 0x20 ADD SWAP1 DUP2 MSTORE PUSH1 0x20 ADD PUSH1 0x0 KECCAK256 PUSH1 0x2 ADD PUSH1 0x0 SWAP1 SLOAD SWAP1 PUSH2 0x100 EXP SWAP1 DIV PUSH1 0xFF AND PUSH1 0xFF AND GT PUSH2 0x703 JUMPI PUSH1 0x40 MLOAD PUSH32 0x8C379A000000000000000000000000000000000000000000000000000000000 DUP2 MSTORE PUSH1 0x4 ADD PUSH2 0x6FA SWAP1 PUSH2 0x1282 JUMP JUMPDEST PUSH1 0x40 MLOAD DUP1 SWAP2 SUB SWAP1 REVERT JUMPDEST PUSH1 0x0 DUP4 PUSH20 0xFFFFFFFFFFFFFFFFFFFFFFFFFFFFFFFFFFFFFFFF AND PUSH2 0x8FC PUSH1 0x2 PUSH1 0x0 DUP8 PUSH20 0xFFFFFFFFFFFFFFFFFFFFFFFFFFFFFFFFFFFFFFFF AND PUSH20 0xFFFFFFFFFFFFFFFFFFFFFFFFFFFFFFFFFFFFFFFF AND DUP2 MSTORE PUSH1 0x20 ADD SWAP1 DUP2 MSTORE PUSH1 0x20 ADD PUSH1 0x0 KECCAK256 PUSH1 0x1 ADD SLOAD SWAP1 DUP2 ISZERO MUL SWAP1 PUSH1 0x40 MLOAD PUSH1 0x0 PUSH1 0x40 MLOAD DUP1 DUP4 SUB DUP2 DUP6 DUP9 DUP9 CALL SWAP4 POP POP POP POP SWAP1 POP DUP1 PUSH2 0x7BE JUMPI PUSH1 0x40 MLOAD PUSH32 0x8C379A000000000000000000000000000000000000000000000000000000000 DUP2 MSTORE PUSH1 0x4 ADD PUSH2 0x7B5 SWAP1 PUSH2 0x12EE JUMP JUMPDEST PUSH1 0x40 MLOAD DUP1 SWAP2 SUB SWAP1 REVERT JUMPDEST POP POP POP POP JUMP JUMPDEST PUSH1 0x1 PUSH1 0x0 SWAP1 SLOAD SWAP1 PUSH2 0x100 EXP SWAP1 DIV PUSH20 0xFFFFFFFFFFFFFFFFFFFFFFFFFFFFFFFFFFFFFFFF AND DUP2 JUMP JUMPDEST PUSH1 0x0 DUP2 DUP2 SLOAD DUP2 LT PUSH2 0x7FA JUMPI PUSH1 0x0 DUP1 REVERT JUMPDEST SWAP1 PUSH1 0x0 MSTORE PUSH1 0x20 PUSH1 0x0 KECCAK256 ADD PUSH1 0x0 SWAP2 POP SLOAD SWAP1 PUSH2 0x100 EXP SWAP1 DIV PUSH20 0xFFFFFFFFFFFFFFFFFFFFFFFFFFFFFFFFFFFFFFFF AND DUP2 JUMP JUMPDEST PUSH1 0x60 PUSH1 0x0 DUP1 SLOAD DUP1 PUSH1 0x20 MUL PUSH1 0x20 ADD PUSH1 0x40 MLOAD SWAP1 DUP2 ADD PUSH1 0x40 MSTORE DUP1 SWAP3 SWAP2 SWAP1 DUP2 DUP2 MSTORE PUSH1 0x20 ADD DUP3 DUP1 SLOAD DUP1 ISZERO PUSH2 0x8AD JUMPI PUSH1 0x20 MUL DUP3 ADD SWAP2 SWAP1 PUSH1 0x0 MSTORE PUSH1 0x20 PUSH1 0x0 KECCAK256 SWAP1 JUMPDEST DUP2 PUSH1 0x0 SWAP1 SLOAD SWAP1 PUSH2 0x100 EXP SWAP1 DIV PUSH20 0xFFFFFFFFFFFFFFFFFFFFFFFFFFFFFFFFFFFFFFFF AND PUSH20 0xFFFFFFFFFFFFFFFFFFFFFFFFFFFFFFFFFFFFFFFF AND DUP2 MSTORE PUSH1 0x20 ADD SWAP1 PUSH1 0x1 ADD SWAP1 DUP1 DUP4 GT PUSH2 0x863 JUMPI JUMPDEST POP POP POP POP POP SWAP1 POP SWAP1 JUMP JUMPDEST PUSH1 0x0 PUSH1 0x1 PUSH1 0x0 SWAP1 SLOAD SWAP1 PUSH2 0x100 EXP SWAP1 DIV PUSH20 0xFFFFFFFFFFFFFFFFFFFFFFFFFFFFFFFFFFFFFFFF AND SWAP1 POP SWAP1 JUMP JUMPDEST PUSH1 0x2 PUSH1 0x20 MSTORE DUP1 PUSH1 0x0 MSTORE PUSH1 0x40 PUSH1 0x0 KECCAK256 PUSH1 0x0 SWAP2 POP SWAP1 POP DUP1 PUSH1 0x0 ADD PUSH1 0x0 SWAP1 SLOAD SWAP1 PUSH2 0x100 EXP SWAP1 DIV PUSH1 0x0 SIGNEXTEND SWAP1 DUP1 PUSH1 0x0 ADD PUSH1 0x1 SWAP1 SLOAD SWAP1 PUSH2 0x100 EXP SWAP1 DIV PUSH1 0x0 SIGNEXTEND SWAP1 DUP1 PUSH1 0x0 ADD PUSH1 0x2 SWAP1 SLOAD SWAP1 PUSH2 0x100 EXP SWAP1 DIV PUSH1 0x0 SIGNEXTEND SWAP1 DUP1 PUSH1 0x1 ADD SLOAD SWAP1 DUP1 PUSH1 0x2 ADD PUSH1 0x0 SWAP1 SLOAD SWAP1 PUSH2 0x100 EXP SWAP1 DIV PUSH1 0xFF AND SWAP1 DUP1 PUSH1 0x2 ADD PUSH1 0x1 SWAP1 SLOAD SWAP1 PUSH2 0x100 EXP SWAP1 DIV PUSH1 0xFF AND SWAP1 POP DUP7 JUMP JUMPDEST PUSH1 0x0 PUSH2 0x96A DUP4 DUP4 PUSH2 0xA82 JUMP JUMPDEST SWAP1 POP PUSH1 0x2 PUSH1 0x0 CALLER PUSH20 0xFFFFFFFFFFFFFFFFFFFFFFFFFFFFFFFFFFFFFFFF AND PUSH20 0xFFFFFFFFFFFFFFFFFFFFFFFFFFFFFFFFFFFFFFFF AND DUP2 MSTORE PUSH1 0x20 ADD SWAP1 DUP2 MSTORE PUSH1 0x20 ADD PUSH1 0x0 KECCAK256 PUSH1 0x0 ADD PUSH1 0x2 SWAP1 SLOAD SWAP1 PUSH2 0x100 EXP SWAP1 DIV PUSH1 0x0 SIGNEXTEND PUSH1 0x0 SIGNEXTEND DUP2 SLT ISZERO PUSH2 0xA7D JUMPI PUSH1 0x1 PUSH1 0x2 PUSH1 0x0 CALLER PUSH20 0xFFFFFFFFFFFFFFFFFFFFFFFFFFFFFFFFFFFFFFFF AND PUSH20 0xFFFFFFFFFFFFFFFFFFFFFFFFFFFFFFFFFFFFFFFF AND DUP2 MSTORE PUSH1 0x20 ADD SWAP1 DUP2 MSTORE PUSH1 0x20 ADD PUSH1 0x0 KECCAK256 PUSH1 0x2 ADD PUSH1 0x0 SWAP1 SLOAD SWAP1 PUSH2 0x100 EXP SWAP1 DIV PUSH1 0xFF AND PUSH2 0xA22 SWAP2 SWAP1 PUSH2 0x130E JUMP JUMPDEST PUSH1 0x2 PUSH1 0x0 CALLER PUSH20 0xFFFFFFFFFFFFFFFFFFFFFFFFFFFFFFFFFFFFFFFF AND PUSH20 0xFFFFFFFFFFFFFFFFFFFFFFFFFFFFFFFFFFFFFFFF AND DUP2 MSTORE PUSH1 0x20 ADD SWAP1 DUP2 MSTORE PUSH1 0x20 ADD PUSH1 0x0 KECCAK256 PUSH1 0x2 ADD PUSH1 0x0 PUSH2 0x100 EXP DUP2 SLOAD DUP2 PUSH1 0xFF MUL NOT AND SWAP1 DUP4 PUSH1 0xFF AND MUL OR SWAP1 SSTORE POP JUMPDEST POP POP POP JUMP JUMPDEST PUSH1 0x0 DUP1 PUSH1 0x2 PUSH1 0x0 CALLER PUSH20 0xFFFFFFFFFFFFFFFFFFFFFFFFFFFFFFFFFFFFFFFF AND PUSH20 0xFFFFFFFFFFFFFFFFFFFFFFFFFFFFFFFFFFFFFFFF AND DUP2 MSTORE PUSH1 0x20 ADD SWAP1 DUP2 MSTORE PUSH1 0x20 ADD PUSH1 0x0 KECCAK256 PUSH1 0x0 ADD PUSH1 0x0 SWAP1 SLOAD SWAP1 PUSH2 0x100 EXP SWAP1 DIV PUSH1 0x0 SIGNEXTEND DUP5 PUSH2 0xAE0 SWAP2 SWAP1 PUSH2 0x1343 JUMP JUMPDEST PUSH1 0x0 SIGNEXTEND SWAP1 POP PUSH1 0x0 PUSH1 0x2 PUSH1 0x0 CALLER PUSH20 0xFFFFFFFFFFFFFFFFFFFFFFFFFFFFFFFFFFFFFFFF AND PUSH20 0xFFFFFFFFFFFFFFFFFFFFFFFFFFFFFFFFFFFFFFFF AND DUP2 MSTORE PUSH1 0x20 ADD SWAP1 DUP2 MSTORE PUSH1 0x20 ADD PUSH1 0x0 KECCAK256 PUSH1 0x0 ADD PUSH1 0x1 SWAP1 SLOAD SWAP1 PUSH2 0x100 EXP SWAP1 DIV PUSH1 0x0 SIGNEXTEND DUP5 PUSH2 0xB42 SWAP2 SWAP1 PUSH2 0x1343 JUMP JUMPDEST PUSH1 0x0 SIGNEXTEND SWAP1 POP PUSH2 0xB73 PUSH1 0x2 DUP3 PUSH2 0xB57 SWAP2 SWAP1 PUSH2 0x14F5 JUMP JUMPDEST PUSH1 0x2 DUP5 PUSH2 0xB64 SWAP2 SWAP1 PUSH2 0x14F5 JUMP JUMPDEST PUSH2 0xB6E SWAP2 SWAP1 PUSH2 0x1561 JUMP JUMPDEST PUSH2 0xB7D JUMP JUMPDEST SWAP3 POP POP POP SWAP3 SWAP2 POP POP JUMP JUMPDEST PUSH1 0x0 DUP1 PUSH1 0x2 PUSH1 0x1 DUP5 PUSH2 0xB8F SWAP2 SWAP1 PUSH2 0x1561 JUMP JUMPDEST PUSH2 0xB99 SWAP2 SWAP1 PUSH2 0x15D4 JUMP JUMPDEST SWAP1 POP DUP3 SWAP2 POP JUMPDEST DUP2 DUP2 SLT ISZERO PUSH2 0xBD4 JUMPI DUP1 SWAP2 POP PUSH1 0x2 DUP1 DUP4 DUP6 PUSH2 0xBB9 SWAP2 SWAP1 PUSH2 0x15D4 JUMP JUMPDEST PUSH2 0xBC3 SWAP2 SWAP1 PUSH2 0x163E JUMP JUMPDEST PUSH2 0xBCD SWAP2 SWAP1 PUSH2 0x15D4 JUMP JUMPDEST SWAP1 POP PUSH2 0xB9F JUMP JUMPDEST POP SWAP2 SWAP1 POP JUMP JUMPDEST PUSH1 0x0 DUP1 REVERT JUMPDEST PUSH1 0x0 PUSH20 0xFFFFFFFFFFFFFFFFFFFFFFFFFFFFFFFFFFFFFFFF DUP3 AND SWAP1 POP SWAP2 SWAP1 POP JUMP JUMPDEST PUSH1 0x0 PUSH2 0xC0A DUP3 PUSH2 0xBDF JUMP JUMPDEST SWAP1 POP SWAP2 SWAP1 POP JUMP JUMPDEST PUSH2 0xC1A DUP2 PUSH2 0xBFF JUMP JUMPDEST DUP2 EQ PUSH2 0xC25 JUMPI PUSH1 0x0 DUP1 REVERT JUMPDEST POP JUMP JUMPDEST PUSH1 0x0 DUP2 CALLDATALOAD SWAP1 POP PUSH2 0xC37 DUP2 PUSH2 0xC11 JUMP JUMPDEST SWAP3 SWAP2 POP POP JUMP JUMPDEST PUSH1 0x0 DUP2 PUSH1 0x0 SIGNEXTEND SWAP1 POP SWAP2 SWAP1 POP JUMP JUMPDEST PUSH2 0xC53 DUP2 PUSH2 0xC3D JUMP JUMPDEST DUP2 EQ PUSH2 0xC5E JUMPI PUSH1 0x0 DUP1 REVERT JUMPDEST POP JUMP JUMPDEST PUSH1 0x0 DUP2 CALLDATALOAD SWAP1 POP PUSH2 0xC70 DUP2 PUSH2 0xC4A JUMP JUMPDEST SWAP3 SWAP2 POP POP JUMP JUMPDEST PUSH1 0x0 PUSH1 0xFF DUP3 AND SWAP1 POP SWAP2 SWAP1 POP JUMP JUMPDEST PUSH2 0xC8C DUP2 PUSH2 0xC76 JUMP JUMPDEST DUP2 EQ PUSH2 0xC97 JUMPI PUSH1 0x0 DUP1 REVERT JUMPDEST POP JUMP JUMPDEST PUSH1 0x0 DUP2 CALLDATALOAD SWAP1 POP PUSH2 0xCA9 DUP2 PUSH2 0xC83 JUMP JUMPDEST SWAP3 SWAP2 POP POP JUMP JUMPDEST PUSH1 0x0 DUP1 PUSH1 0x0 DUP1 PUSH1 0x0 DUP1 PUSH1 0xC0 DUP8 DUP10 SUB SLT ISZERO PUSH2 0xCCC JUMPI PUSH2 0xCCB PUSH2 0xBDA JUMP JUMPDEST JUMPDEST PUSH1 0x0 PUSH2 0xCDA DUP10 DUP3 DUP11 ADD PUSH2 0xC28 JUMP JUMPDEST SWAP7 POP POP PUSH1 0x20 PUSH2 0xCEB DUP10 DUP3 DUP11 ADD PUSH2 0xC61 JUMP JUMPDEST SWAP6 POP POP PUSH1 0x40 PUSH2 0xCFC DUP10 DUP3 DUP11 ADD PUSH2 0xC61 JUMP JUMPDEST SWAP5 POP POP PUSH1 0x60 PUSH2 0xD0D DUP10 DUP3 DUP11 ADD PUSH2 0xC61 JUMP JUMPDEST SWAP4 POP POP PUSH1 0x80 PUSH2 0xD1E DUP10 DUP3 DUP11 ADD PUSH2 0xC9A JUMP JUMPDEST SWAP3 POP POP PUSH1 0xA0 PUSH2 0xD2F DUP10 DUP3 DUP11 ADD PUSH2 0xC9A JUMP JUMPDEST SWAP2 POP POP SWAP3 SWAP6 POP SWAP3 SWAP6 POP SWAP3 SWAP6 JUMP JUMPDEST PUSH1 0x0 PUSH2 0xD47 DUP3 PUSH2 0xBDF JUMP JUMPDEST SWAP1 POP SWAP2 SWAP1 POP JUMP JUMPDEST PUSH2 0xD57 DUP2 PUSH2 0xD3C JUMP JUMPDEST DUP2 EQ PUSH2 0xD62 JUMPI PUSH1 0x0 DUP1 REVERT JUMPDEST POP JUMP JUMPDEST PUSH1 0x0 DUP2 CALLDATALOAD SWAP1 POP PUSH2 0xD74 DUP2 PUSH2 0xD4E JUMP JUMPDEST SWAP3 SWAP2 POP POP JUMP JUMPDEST PUSH1 0x0 PUSH1 0x20 DUP3 DUP5 SUB SLT ISZERO PUSH2 0xD90 JUMPI PUSH2 0xD8F PUSH2 0xBDA JUMP JUMPDEST JUMPDEST PUSH1 0x0 PUSH2 0xD9E DUP5 DUP3 DUP6 ADD PUSH2 0xD65 JUMP JUMPDEST SWAP2 POP POP SWAP3 SWAP2 POP POP JUMP JUMPDEST PUSH2 0xDB0 DUP2 PUSH2 0xBFF JUMP JUMPDEST DUP3 MSTORE POP POP JUMP JUMPDEST PUSH1 0x0 PUSH1 0x20 DUP3 ADD SWAP1 POP PUSH2 0xDCB PUSH1 0x0 DUP4 ADD DUP5 PUSH2 0xDA7 JUMP JUMPDEST SWAP3 SWAP2 POP POP JUMP JUMPDEST PUSH1 0x0 DUP2 SWAP1 POP SWAP2 SWAP1 POP JUMP JUMPDEST PUSH2 0xDE4 DUP2 PUSH2 0xDD1 JUMP JUMPDEST DUP2 EQ PUSH2 0xDEF JUMPI PUSH1 0x0 DUP1 REVERT JUMPDEST POP JUMP JUMPDEST PUSH1 0x0 DUP2 CALLDATALOAD SWAP1 POP PUSH2 0xE01 DUP2 PUSH2 0xDDB JUMP JUMPDEST SWAP3 SWAP2 POP POP JUMP JUMPDEST PUSH1 0x0 PUSH1 0x20 DUP3 DUP5 SUB SLT ISZERO PUSH2 0xE1D JUMPI PUSH2 0xE1C PUSH2 0xBDA JUMP JUMPDEST JUMPDEST PUSH1 0x0 PUSH2 0xE2B DUP5 DUP3 DUP6 ADD PUSH2 0xDF2 JUMP JUMPDEST SWAP2 POP POP SWAP3 SWAP2 POP POP JUMP JUMPDEST PUSH1 0x0 DUP2 MLOAD SWAP1 POP SWAP2 SWAP1 POP JUMP JUMPDEST PUSH1 0x0 DUP3 DUP3 MSTORE PUSH1 0x20 DUP3 ADD SWAP1 POP SWAP3 SWAP2 POP POP JUMP JUMPDEST PUSH1 0x0 DUP2 SWAP1 POP PUSH1 0x20 DUP3 ADD SWAP1 POP SWAP2 SWAP1 POP JUMP JUMPDEST PUSH2 0xE69 DUP2 PUSH2 0xBFF JUMP JUMPDEST DUP3 MSTORE POP POP JUMP JUMPDEST PUSH1 0x0 PUSH2 0xE7B DUP4 DUP4 PUSH2 0xE60 JUMP JUMPDEST PUSH1 0x20 DUP4 ADD SWAP1 POP SWAP3 SWAP2 POP POP JUMP JUMPDEST PUSH1 0x0 PUSH1 0x20 DUP3 ADD SWAP1 POP SWAP2 SWAP1 POP JUMP JUMPDEST PUSH1 0x0 PUSH2 0xE9F DUP3 PUSH2 0xE34 JUMP JUMPDEST PUSH2 0xEA9 DUP2 DUP6 PUSH2 0xE3F JUMP JUMPDEST SWAP4 POP PUSH2 0xEB4 DUP4 PUSH2 0xE50 JUMP JUMPDEST DUP1 PUSH1 0x0 JUMPDEST DUP4 DUP2 LT ISZERO PUSH2 0xEE5 JUMPI DUP2 MLOAD PUSH2 0xECC DUP9 DUP3 PUSH2 0xE6F JUMP JUMPDEST SWAP8 POP PUSH2 0xED7 DUP4 PUSH2 0xE87 JUMP JUMPDEST SWAP3 POP POP PUSH1 0x1 DUP2 ADD SWAP1 POP PUSH2 0xEB8 JUMP JUMPDEST POP DUP6 SWAP4 POP POP POP POP SWAP3 SWAP2 POP POP JUMP JUMPDEST PUSH1 0x0 PUSH1 0x20 DUP3 ADD SWAP1 POP DUP2 DUP2 SUB PUSH1 0x0 DUP4 ADD MSTORE PUSH2 0xF0C DUP2 DUP5 PUSH2 0xE94 JUMP JUMPDEST SWAP1 POP SWAP3 SWAP2 POP POP JUMP JUMPDEST PUSH1 0x0 PUSH1 0x20 DUP3 DUP5 SUB SLT ISZERO PUSH2 0xF2A JUMPI PUSH2 0xF29 PUSH2 0xBDA JUMP JUMPDEST JUMPDEST PUSH1 0x0 PUSH2 0xF38 DUP5 DUP3 DUP6 ADD PUSH2 0xC28 JUMP JUMPDEST SWAP2 POP POP SWAP3 SWAP2 POP POP JUMP JUMPDEST PUSH2 0xF4A DUP2 PUSH2 0xC3D JUMP JUMPDEST DUP3 MSTORE POP POP JUMP JUMPDEST PUSH2 0xF59 DUP2 PUSH2 0xDD1 JUMP JUMPDEST DUP3 MSTORE POP POP JUMP JUMPDEST PUSH2 0xF68 DUP2 PUSH2 0xC76 JUMP JUMPDEST DUP3 MSTORE POP POP JUMP JUMPDEST PUSH1 0x0 PUSH1 0xC0 DUP3 ADD SWAP1 POP PUSH2 0xF83 PUSH1 0x0 DUP4 ADD DUP10 PUSH2 0xF41 JUMP JUMPDEST PUSH2 0xF90 PUSH1 0x20 DUP4 ADD DUP9 PUSH2 0xF41 JUMP JUMPDEST PUSH2 0xF9D PUSH1 0x40 DUP4 ADD DUP8 PUSH2 0xF41 JUMP JUMPDEST PUSH2 0xFAA PUSH1 0x60 DUP4 ADD DUP7 PUSH2 0xF50 JUMP JUMPDEST PUSH2 0xFB7 PUSH1 0x80 DUP4 ADD DUP6 PUSH2 0xF5F JUMP JUMPDEST PUSH2 0xFC4 PUSH1 0xA0 DUP4 ADD DUP5 PUSH2 0xF5F JUMP JUMPDEST SWAP8 SWAP7 POP POP POP POP POP POP POP JUMP JUMPDEST PUSH1 0x0 DUP1 PUSH1 0x40 DUP4 DUP6 SUB SLT ISZERO PUSH2 0xFE6 JUMPI PUSH2 0xFE5 PUSH2 0xBDA JUMP JUMPDEST JUMPDEST PUSH1 0x0 PUSH2 0xFF4 DUP6 DUP3 DUP7 ADD PUSH2 0xC61 JUMP JUMPDEST SWAP3 POP POP PUSH1 0x20 PUSH2 0x1005 DUP6 DUP3 DUP7 ADD PUSH2 0xC61 JUMP JUMPDEST SWAP2 POP POP SWAP3 POP SWAP3 SWAP1 POP JUMP JUMPDEST PUSH1 0x0 DUP3 DUP3 MSTORE PUSH1 0x20 DUP3 ADD SWAP1 POP SWAP3 SWAP2 POP POP JUMP JUMPDEST PUSH32 0x4F6E6C7920656D706C6F79656572206861732061636365737320746F20746869 PUSH1 0x0 DUP3 ADD MSTORE PUSH32 0x732066756E6374696F6E00000000000000000000000000000000000000000000 PUSH1 0x20 DUP3 ADD MSTORE POP JUMP JUMPDEST PUSH1 0x0 PUSH2 0x107C PUSH1 0x2A DUP4 PUSH2 0x100F JUMP JUMPDEST SWAP2 POP PUSH2 0x1087 DUP3 PUSH2 0x1020 JUMP JUMPDEST PUSH1 0x40 DUP3 ADD SWAP1 POP SWAP2 SWAP1 POP JUMP JUMPDEST PUSH1 0x0 PUSH1 0x20 DUP3 ADD SWAP1 POP DUP2 DUP2 SUB PUSH1 0x0 DUP4 ADD MSTORE PUSH2 0x10AB DUP2 PUSH2 0x106F JUMP JUMPDEST SWAP1 POP SWAP2 SWAP1 POP JUMP JUMPDEST PUSH32 0x4E487B7100000000000000000000000000000000000000000000000000000000 PUSH1 0x0 MSTORE PUSH1 0x32 PUSH1 0x4 MSTORE PUSH1 0x24 PUSH1 0x0 REVERT JUMPDEST PUSH32 0x4E487B7100000000000000000000000000000000000000000000000000000000 PUSH1 0x0 MSTORE PUSH1 0x11 PUSH1 0x4 MSTORE PUSH1 0x24 PUSH1 0x0 REVERT JUMPDEST PUSH1 0x0 PUSH2 0x111B DUP3 PUSH2 0xDD1 JUMP JUMPDEST SWAP2 POP PUSH32 0xFFFFFFFFFFFFFFFFFFFFFFFFFFFFFFFFFFFFFFFFFFFFFFFFFFFFFFFFFFFFFFFF DUP3 SUB PUSH2 0x114D JUMPI PUSH2 0x114C PUSH2 0x10E1 JUMP JUMPDEST JUMPDEST PUSH1 0x1 DUP3 ADD SWAP1 POP SWAP2 SWAP1 POP JUMP JUMPDEST PUSH32 0x4F6E6C7920616E2020656D706C6F796565206861732061636365737320746F20 PUSH1 0x0 DUP3 ADD MSTORE PUSH32 0x746869732066756E6374696F6E5F320000000000000000000000000000000000 PUSH1 0x20 DUP3 ADD MSTORE POP JUMP JUMPDEST PUSH1 0x0 PUSH2 0x11B4 PUSH1 0x2F DUP4 PUSH2 0x100F JUMP JUMPDEST SWAP2 POP PUSH2 0x11BF DUP3 PUSH2 0x1158 JUMP JUMPDEST PUSH1 0x40 DUP3 ADD SWAP1 POP SWAP2 SWAP1 POP JUMP JUMPDEST PUSH1 0x0 PUSH1 0x20 DUP3 ADD SWAP1 POP DUP2 DUP2 SUB PUSH1 0x0 DUP4 ADD MSTORE PUSH2 0x11E3 DUP2 PUSH2 0x11A7 JUMP JUMPDEST SWAP1 POP SWAP2 SWAP1 POP JUMP JUMPDEST PUSH32 0x54686520656D706C6F79656520646964206E6F742072656D61696E20696E2063 PUSH1 0x0 DUP3 ADD MSTORE PUSH32 0x6F6D706C69616E6365207769746820616C6C207468652061677265656D656E74 PUSH1 0x20 DUP3 ADD MSTORE PUSH32 0x732E000000000000000000000000000000000000000000000000000000000000 PUSH1 0x40 DUP3 ADD MSTORE POP JUMP JUMPDEST PUSH1 0x0 PUSH2 0x126C PUSH1 0x42 DUP4 PUSH2 0x100F JUMP JUMPDEST SWAP2 POP PUSH2 0x1277 DUP3 PUSH2 0x11EA JUMP JUMPDEST PUSH1 0x60 DUP3 ADD SWAP1 POP SWAP2 SWAP1 POP JUMP JUMPDEST PUSH1 0x0 PUSH1 0x20 DUP3 ADD SWAP1 POP DUP2 DUP2 SUB PUSH1 0x0 DUP4 ADD MSTORE PUSH2 0x129B DUP2 PUSH2 0x125F JUMP JUMPDEST SWAP1 POP SWAP2 SWAP1 POP JUMP JUMPDEST PUSH32 0x4661696C656420746F2073656E64204574686572000000000000000000000000 PUSH1 0x0 DUP3 ADD MSTORE POP JUMP JUMPDEST PUSH1 0x0 PUSH2 0x12D8 PUSH1 0x14 DUP4 PUSH2 0x100F JUMP JUMPDEST SWAP2 POP PUSH2 0x12E3 DUP3 PUSH2 0x12A2 JUMP JUMPDEST PUSH1 0x20 DUP3 ADD SWAP1 POP SWAP2 SWAP1 POP JUMP JUMPDEST PUSH1 0x0 PUSH1 0x20 DUP3 ADD SWAP1 POP DUP2 DUP2 SUB PUSH1 0x0 DUP4 ADD MSTORE PUSH2 0x1307 DUP2 PUSH2 0x12CB JUMP JUMPDEST SWAP1 POP SWAP2 SWAP1 POP JUMP JUMPDEST PUSH1 0x0 PUSH2 0x1319 DUP3 PUSH2 0xC76 JUMP JUMPDEST SWAP2 POP PUSH2 0x1324 DUP4 PUSH2 0xC76 JUMP JUMPDEST SWAP3 POP DUP3 DUP3 ADD SWAP1 POP PUSH1 0xFF DUP2 GT ISZERO PUSH2 0x133D JUMPI PUSH2 0x133C PUSH2 0x10E1 JUMP JUMPDEST JUMPDEST SWAP3 SWAP2 POP POP JUMP JUMPDEST PUSH1 0x0 PUSH2 0x134E DUP3 PUSH2 0xC3D JUMP JUMPDEST SWAP2 POP PUSH2 0x1359 DUP4 PUSH2 0xC3D JUMP JUMPDEST SWAP3 POP DUP3 DUP3 SUB SWAP1 POP PUSH1 0x7F DUP2 SGT PUSH32 0xFFFFFFFFFFFFFFFFFFFFFFFFFFFFFFFFFFFFFFFFFFFFFFFFFFFFFFFFFFFFFF80 DUP3 SLT OR ISZERO PUSH2 0x1396 JUMPI PUSH2 0x1395 PUSH2 0x10E1 JUMP JUMPDEST JUMPDEST SWAP3 SWAP2 POP POP JUMP JUMPDEST PUSH1 0x0 DUP2 PUSH1 0x1 SHR SWAP1 POP SWAP2 SWAP1 POP JUMP JUMPDEST PUSH1 0x0 DUP1 DUP3 SWAP2 POP DUP4 SWAP1 POP JUMPDEST PUSH1 0x1 DUP6 GT ISZERO PUSH2 0x13F3 JUMPI DUP1 DUP7 DIV DUP2 GT ISZERO PUSH2 0x13CF JUMPI PUSH2 0x13CE PUSH2 0x10E1 JUMP JUMPDEST JUMPDEST PUSH1 0x1 DUP6 AND ISZERO PUSH2 0x13DE JUMPI DUP1 DUP3 MUL SWAP2 POP JUMPDEST DUP1 DUP2 MUL SWAP1 POP PUSH2 0x13EC DUP6 PUSH2 0x139C JUMP JUMPDEST SWAP5 POP PUSH2 0x13B3 JUMP JUMPDEST SWAP5 POP SWAP5 SWAP3 POP POP POP JUMP JUMPDEST PUSH1 0x0 DUP3 PUSH1 0x0 DUP2 EQ PUSH2 0x1414 JUMPI PUSH1 0x1 DUP2 EQ PUSH2 0x141E JUMPI PUSH2 0x1427 JUMP JUMPDEST PUSH1 0x1 SWAP2 POP POP PUSH2 0x14E3 JUMP JUMPDEST DUP3 SWAP2 POP POP PUSH2 0x14E3 JUMP JUMPDEST POP DUP2 PUSH2 0x1436 JUMPI PUSH1 0x0 SWAP1 POP PUSH2 0x14E3 JUMP JUMPDEST PUSH1 0x1 SWAP1 POP PUSH1 0x0 DUP3 SGT PUSH1 0x1 DUP2 EQ PUSH2 0x1453 JUMPI PUSH1 0x0 DUP2 EQ PUSH2 0x146B JUMPI PUSH2 0x147F JUMP JUMPDEST DUP3 DUP7 DIV DUP4 GT ISZERO PUSH2 0x1466 JUMPI PUSH2 0x1465 PUSH2 0x10E1 JUMP JUMPDEST JUMPDEST PUSH2 0x147F JUMP JUMPDEST DUP3 DUP7 SDIV DUP4 SLT ISZERO PUSH2 0x147E JUMPI PUSH2 0x147D PUSH2 0x10E1 JUMP JUMPDEST JUMPDEST JUMPDEST POP PUSH1 0x1 DUP4 AND ISZERO PUSH2 0x148D JUMPI DUP2 SWAP1 POP JUMPDEST DUP2 DUP3 MUL SWAP2 POP PUSH2 0x149B DUP4 PUSH2 0x139C JUMP JUMPDEST SWAP3 POP PUSH2 0x14A9 DUP6 DUP5 DUP5 DUP5 PUSH2 0x13A9 JUMP JUMPDEST SWAP3 POP SWAP1 POP DUP2 DUP6 DIV DUP2 GT PUSH1 0x0 DUP3 SGT AND ISZERO PUSH2 0x14C5 JUMPI PUSH2 0x14C4 PUSH2 0x10E1 JUMP JUMPDEST JUMPDEST DUP2 DUP5 SDIV DUP2 SLT PUSH1 0x0 DUP3 SLT AND ISZERO PUSH2 0x14DD JUMPI PUSH2 0x14DC PUSH2 0x10E1 JUMP JUMPDEST JUMPDEST DUP2 DUP2 MUL SWAP1 POP JUMPDEST SWAP5 SWAP4 POP POP POP POP JUMP JUMPDEST PUSH1 0x0 DUP2 SWAP1 POP SWAP2 SWAP1 POP JUMP JUMPDEST PUSH1 0x0 PUSH2 0x1500 DUP3 PUSH2 0x14EB JUMP JUMPDEST SWAP2 POP PUSH2 0x150B DUP4 PUSH2 0xC76 JUMP JUMPDEST SWAP3 POP PUSH2 0x1559 PUSH32 0x7FFFFFFFFFFFFFFFFFFFFFFFFFFFFFFFFFFFFFFFFFFFFFFFFFFFFFFFFFFFFFFF PUSH32 0x8000000000000000000000000000000000000000000000000000000000000000 DUP6 DUP6 PUSH2 0x13FC JUMP JUMPDEST SWAP1 POP SWAP3 SWAP2 POP POP JUMP JUMPDEST PUSH1 0x0 PUSH2 0x156C DUP3 PUSH2 0x14EB JUMP JUMPDEST SWAP2 POP PUSH2 0x1577 DUP4 PUSH2 0x14EB JUMP JUMPDEST SWAP3 POP DUP3 DUP3 ADD SWAP1 POP DUP3 DUP2 SLT ISZERO PUSH1 0x0 DUP4 SLT AND DUP4 DUP3 SLT PUSH1 0x0 DUP5 SLT ISZERO AND OR ISZERO PUSH2 0x159F JUMPI PUSH2 0x159E PUSH2 0x10E1 JUMP JUMPDEST JUMPDEST SWAP3 SWAP2 POP POP JUMP JUMPDEST PUSH32 0x4E487B7100000000000000000000000000000000000000000000000000000000 PUSH1 0x0 MSTORE PUSH1 0x12 PUSH1 0x4 MSTORE PUSH1 0x24 PUSH1 0x0 REVERT JUMPDEST PUSH1 0x0 PUSH2 0x15DF DUP3 PUSH2 0x14EB JUMP JUMPDEST SWAP2 POP PUSH2 0x15EA DUP4 PUSH2 0x14EB JUMP JUMPDEST SWAP3 POP DUP3 PUSH2 0x15FA JUMPI PUSH2 0x15F9 PUSH2 0x15A5 JUMP JUMPDEST JUMPDEST PUSH1 0x1 PUSH1 0x0 SUB DUP4 EQ PUSH32 0x8000000000000000000000000000000000000000000000000000000000000000 DUP4 EQ AND ISZERO PUSH2 0x1633 JUMPI PUSH2 0x1632 PUSH2 0x10E1 JUMP JUMPDEST JUMPDEST DUP3 DUP3 SDIV SWAP1 POP SWAP3 SWAP2 POP POP JUMP JUMPDEST PUSH1 0x0 PUSH2 0x1649 DUP3 PUSH2 0x14EB JUMP JUMPDEST SWAP2 POP PUSH2 0x1654 DUP4 PUSH2 0x14EB JUMP JUMPDEST SWAP3 POP DUP3 DUP3 MUL PUSH2 0x1662 DUP2 PUSH2 0x14EB JUMP JUMPDEST SWAP2 POP PUSH32 0x8000000000000000000000000000000000000000000000000000000000000000 DUP5 EQ PUSH1 0x0 DUP5 SLT AND ISZERO PUSH2 0x169A JUMPI PUSH2 0x1699 PUSH2 0x10E1 JUMP JUMPDEST JUMPDEST DUP3 DUP3 SDIV DUP5 EQ DUP4 ISZERO OR PUSH2 0x16AF JUMPI PUSH2 0x16AE PUSH2 0x10E1 JUMP JUMPDEST JUMPDEST POP SWAP3 SWAP2 POP POP JUMP INVALID LOG2 PUSH5 0x6970667358 0x22 SLT KECCAK256 0xCB 0x29 0xB2 CALLDATACOPY 0x5D ORIGIN 0xAA PUSH4 0x9E738FE3 DUP2 SWAP8 PUSH22 0x43529A9F2266FF94704BC306A8F909A71464736F6C63 NUMBER STOP ADDMOD GT STOP CALLER "
				},
				"gasEstimates": {
					"creation": {
						"codeDepositCost": "1173600",
						"executionCost": "25487",
						"totalCost": "1199087"
					},
					"external": {
						"empContractStatus(address)": "infinite",
						"employeer()": "2559",
						"employees(uint256)": "5023",
						"getAdmin()": "2544",
						"getEmployees()": "infinite",
						"payEmployee(address)": "infinite",
						"setEmployeeAccount(address,int8,int8,int8,uint8,uint8)": "infinite",
						"updateCompCountStatus(int8,int8)": "infinite"
					},
					"internal": {
						"calculateDistance(int8,int8)": "infinite",
						"getSqrt(int256)": "infinite"
					}
				},
				"methodIdentifiers": {
					"empContractStatus(address)": "80def88d",
					"employeer()": "3c4c59df",
					"employees(uint256)": "4739326b",
					"getAdmin()": "6e9960c3",
					"getEmployees()": "4abefa36",
					"payEmployee(address)": "1f50ad16",
					"setEmployeeAccount(address,int8,int8,int8,uint8,uint8)": "1296428a",
					"updateCompCountStatus(int8,int8)": "aebf11b2"
				}
			},
			"storageLayout": {
				"storage": [
					{
						"astId": 4,
						"contract": "refund_by_location/contracts/refundByLocation.sol:RefundContract",
						"label": "employees",
						"offset": 0,
						"slot": "0",
						"type": "t_array(t_address)dyn_storage"
					},
					{
						"astId": 6,
						"contract": "refund_by_location/contracts/refundByLocation.sol:RefundContract",
						"label": "employeer",
						"offset": 0,
						"slot": "1",
						"type": "t_address"
					},
					{
						"astId": 24,
						"contract": "refund_by_location/contracts/refundByLocation.sol:RefundContract",
						"label": "empContractStatus",
						"offset": 0,
						"slot": "2",
						"type": "t_mapping(t_address,t_struct(ContractStatus)19_storage)"
					}
				],
				"types": {
					"t_address": {
						"encoding": "inplace",
						"label": "address",
						"numberOfBytes": "20"
					},
					"t_array(t_address)dyn_storage": {
						"base": "t_address",
						"encoding": "dynamic_array",
						"label": "address[]",
						"numberOfBytes": "32"
					},
					"t_int8": {
						"encoding": "inplace",
						"label": "int8",
						"numberOfBytes": "1"
					},
					"t_mapping(t_address,t_struct(ContractStatus)19_storage)": {
						"encoding": "mapping",
						"key": "t_address",
						"label": "mapping(address => struct RefundContract.ContractStatus)",
						"numberOfBytes": "32",
						"value": "t_struct(ContractStatus)19_storage"
					},
					"t_struct(ContractStatus)19_storage": {
						"encoding": "inplace",
						"label": "struct RefundContract.ContractStatus",
						"members": [
							{
								"astId": 8,
								"contract": "refund_by_location/contracts/refundByLocation.sol:RefundContract",
								"label": "latitude",
								"offset": 0,
								"slot": "0",
								"type": "t_int8"
							},
							{
								"astId": 10,
								"contract": "refund_by_location/contracts/refundByLocation.sol:RefundContract",
								"label": "longitude",
								"offset": 1,
								"slot": "0",
								"type": "t_int8"
							},
							{
								"astId": 12,
								"contract": "refund_by_location/contracts/refundByLocation.sol:RefundContract",
								"label": "maxRadius",
								"offset": 2,
								"slot": "0",
								"type": "t_int8"
							},
							{
								"astId": 14,
								"contract": "refund_by_location/contracts/refundByLocation.sol:RefundContract",
								"label": "payment",
								"offset": 0,
								"slot": "1",
								"type": "t_uint256"
							},
							{
								"astId": 16,
								"contract": "refund_by_location/contracts/refundByLocation.sol:RefundContract",
								"label": "compCount",
								"offset": 0,
								"slot": "2",
								"type": "t_uint8"
							},
							{
								"astId": 18,
								"contract": "refund_by_location/contracts/refundByLocation.sol:RefundContract",
								"label": "reqAmount",
								"offset": 1,
								"slot": "2",
								"type": "t_uint8"
							}
						],
						"numberOfBytes": "96"
					},
					"t_uint256": {
						"encoding": "inplace",
						"label": "uint256",
						"numberOfBytes": "32"
					},
					"t_uint8": {
						"encoding": "inplace",
						"label": "uint8",
						"numberOfBytes": "1"
					}
				}
			},
			"userdoc": {
				"kind": "user",
				"methods": {},
				"version": 1
			}
		}
	}
}